:020000040800F2
:10A8000060E9002049A9000851A90008DF430108B8
:10A8100055A9000857A9000859A900080000000020
:10A820000000000000000000000000005BA900081C
:10A830005DA9000800000000674301088FC20008FE
:10A8400063A9000863A9000863A9000863A90008B8
:10A8500063A9000863A9000863A9000863A90008A8
:10A8600063A9000863A9000863A9000863A9000898
:10A8700063A9000863A9000863A9000863A9000888
:10A8800063A9000863A9000863A9000863A9000878
:10A8900063A9000863A9000863A9000863A9000868
:10A8A00063A9000863A9000863A9000863A9000858
:10A8B00063A9000863A9000863A9000863A9000848
:10A8C00063A9000863A9000863A9000863A9000838
:10A8D00063A90008C3C30008A3C4000829C4000872
:10A8E00063A9000863A9000863A9000863A9000818
:10A8F00063A9000863A9000863A9000863A9000808
:10A9000063A90008B1C3000863A9000863A900088F
:10A9100063A9000863A9000863A9000863A90008E7
:10A9200063A9000863A9000863A9000863A90008D7
:10A93000DFF810D00DF0D6FF0048004715210108C0
:10A94000AFF3008060E900200648804706480047D2
:10A95000FEE7FEE7FEE7FEE7FEE7FEE7FEE7FEE7CF
:10A96000FEE7FEE715AA000831A900080CB5002291
:10A97000019200925148016841F4803101604FF426
:10A98000A063016801F4003100910199491C019113
:10A99000009911B901999942F3D10168890302D54F
:10A9A0000121009100E000920099012930D1444931
:10A9B0000A6842F010020A600A6822F003020A6084
:10A9C0000A6842F002020A604168416041684160E1
:10A9D000416841F480614160416821F47C1141602B
:10A9E000416841F4E8114160016841F08071016003
:10A9F00001688901FCD5416821F00301416041688B
:10AA000041F0020141604168C1F381010229FAD19C
:10AA10000CBDABE710B52948016841F001010160A8
:10AA20004168284A114041600168274A114001608D
:10AA3000016821F480210160416821F4FE01416038
:10AA40004FF41F018160FFF7E4FF21491F480860B0
:10AA500010BD10B5194A506800F00C011D4B1E487E
:10AA600000290ED004290ED008290ED003605168A9
:10AA7000194AC1F30311121D515C0268CA400260F9
:10AA800010BD0360F3E70360F1E7516801F4701152
:10AA9000536803F48033022404EB914133B15368CB
:10AAA0009B0307D50D4B59430160E0E70B4B59431E
:10AAB0000160DCE7074B59430160D8E70010024012
:10AAC000002002400000FFF8FFFFF6FE00A800088B
:10AAD00008ED00E000127A000000002000093D00AF
:10AAE0002A4908432A490860704770B50F23C27885
:10AAF00001260178002A1ED0254A126802F4E0627D
:10AB0000C2F5E062120AC2F10404D3404578A540C0
:10AB100082781A402A43120101F1E02181F80024D1
:10AB2000007800F01F018E404009800000F1E02015
:10AB3000C0F8006170BD01F01F0086404809800028
:10AB400000F1E020C0F8806170BD124A114001435D
:10AB50000F48001F016070470D4A121D002903D0E5
:10AB6000116801431160704711688143116070479B
:10AB70004FF0E021042804D0086920F004000861A7
:10AB80007047086940F00400086170470000FA054A
:10AB90000CED00E080FFFF1F10B5012000F08BFEE0
:10ABA000BDE81040002000F086BE204908607047D4
:10ABB0001E49091F086070471C49843108607047AE
:10ABC0001B4A118821F46071014311807047184AB3
:10ABD000118821F07F0101431180704708B5144AA4
:10ABE0002C3A104400900098016008BD08B5104947
:10ABF0002C39084400900098008808BD0B489C3010
:10AC00000068C0B270470A480830018841F001016D
:10AC1000018070470548A0300068C0B27047044802
:10AC20000830018841F002010180704704860D421E
:10AC30002C6C004001684FF6FE721140016000214B
:10AC4000016041608160C1607249724A0839904276
:10AC500004D1486840F00F00486070476D4A1432D4
:10AC6000904204D1486840F0F00048607047694A5B
:10AC70002832904204D1486840F4706048607047C0
:10AC8000644A3C32904204D1486840F470404860C5
:10AC90007047604A5032904204D1486840F47020B6
:10ACA000486070475B4A6432904204D1486840F47F
:10ACB000700048607047574A7832904204D1486823
:10ACC00040F0706048607047534A111F904204D1B1
:10ACD000086840F00F00086070474F4A14329042F5
:10ACE00004D1086840F0F000086070474A4A2832F2
:10ACF000904204D1086840F4706008607047464A8A
:10AD00003C32904204D1086840F4704008607047BB
:10AD1000414A50329042FAD1086840F470200860ED
:10AD2000704730B5026847F6F0739A430C6A8B6837
:10AD30002343D1E904452C4323438C692343CC6945
:10AD400023434C6A23438C6A234313430360CA683A
:10AD500042600A6882604968C16030BD00210160BC
:10AD600041608160C160016141618161C1610162D5
:10AD7000416281627047002904D0016841F00101FD
:10AD80000160704701684FF6FE7211400160704724
:10AD9000002A03D002680A430260704702688A43AF
:10ADA0000260704741607047406880B27047024659
:10ADB0000020D10003D518490839096802E0154977
:10ADC00008390968114200D001207047C10003D53D
:10ADD0001149091F086070470E49083948607047DB
:10ADE00002460020D10003D50B490839096802E06A
:10ADF000084908390968114200D001207047C10094
:10AE000003D50549091F08607047024908394860A1
:10AE10007047000008000240080402408100A1F1D0
:10AE2000C04100280CD043F2D2020A60401C8000CE
:10AE3000A0F1C0406FF070420260C1F80421704779
:10AE40004FF0204343F2DB021A60EFE710B51824FD
:10AE500040234FF020414FF0FC32102805D041F83C
:10AE6000804F4B608A60CA6010BD0C664B668A6674
:10AE7000CA6610BDF74818210160002141604FF0FB
:10AE8000FC318160C1600161704710B5D0E90112E9
:10AE90001143D0E903231A431143426911438269E4
:10AEA0001143C2691143026A1143426A1143826A23
:10AEB0001143C26A1143026B114302689200A2F16E
:10AEC000C04211608168082907D101688900A1F199
:10AED000C0410A6842F040020A60416BD1E9002398
:10AEE00042EA03128B688C891B0243EA04431A432B
:10AEF0000B8A42EA03520B7D896942EA03620A43E4
:10AF00000168491C8900A1F1C0410A60C16AB1F51C
:10AF1000804F08D000686FF070418000A0F1C04001
:10AF2000C0F8041110BD816BD1E9002342EA03127D
:10AF30008B680C8A1B0243EA04531A430B7D896910
:10AF400042EA036200680A438000A0F1C040C0F8F2
:10AF5000042110BD30B5D0E901121143D0E903231B
:10AF60001A431143426941EA4221826941EA42316E
:10AF700041F00804C169D1E9002342EA03220B89A8
:10AF8000097B1B0443EA01610A43016AD1E90035E8
:10AF900043EA05230D89097B2D0445EA01610B4332
:10AFA00001684FF02040102904D040F8804F8260A3
:10AFB000C36030BD04668266C36630BD10B5D0E99B
:10AFC000001241EA42218268102343EA42321143CF
:10AFD000A04A1160C168D1E9003443EA04230C8916
:10AFE000097B240444EA01610B4393600169D1E9C0
:10AFF000003443EA04230C89097B240444EA0161F8
:10B000000B43D3604069D0E9001341EA032103896F
:10B01000007B1B0443EA00600143116110BD10B5C1
:10B0200000210160022242608160C16001614161D2
:10B030008161C1610162D202426252008262C162D8
:10B040000163436B0F221A60436B5A60446BFF230A
:10B05000A360446BE260446B2261446B6261446BA9
:10B06000A161846B2260846B6260846BA360836BDC
:10B07000DA60836B1A61836B5A61806B816110BDEA
:10B0800010210160002141608160C1600161416166
:10B090008161C269FC211160C2695160C26991601D
:10B0A000C269D160026A1160026A5160026A9160ED
:10B0B000006AC16070470021016041608160C26820
:10B0C000FC211160C2685160C2689160C268D160A1
:10B0D0000269116002695160026991600269D16080
:10B0E0004269116042695160426991604069C16082
:10B0F00070478000A0F1C040002904D0016841F0F1
:10B100000101016070470168534A114001607047B6
:10B110004FF0204200290CD0102805D052F8800FA3
:10B1200040F0040010607047106E40F0040010669C
:10B1300070474949C91E102804D052F8800F0840B2
:10B1400010607047106E0840106670474FF0204145
:10B15000002805D051F8A00F40F0040008607047A7
:10B1600051F8A00F3C4AD21E1040086070474FF0C3
:10B17000204200290CD0102805D052F8800F40F052
:10B18000400010607047106E40F04000106670473D
:10B1900031493F39102804D052F8800F0840106020
:10B1A0007047106E0840106670474FF0204110281D
:10B1B00002D0D1F894007047486F704710B54FF433
:10B1C00080744FF02043002A11D0102806D0A042EE
:10B1D00008D153F8840F0843186010BD586E084317
:10B1E000586610BD53F8A40F0843186010BD10280E
:10B1F00006D0A04208D153F8840F8843186010BDD0
:10B20000586E8843586610BD53F8A40F88431860E1
:10B2100010BD034600204FF02042102B08D0B3F59C
:10B22000807F07D0D2F8A4200A4200D001207047C6
:10B23000526EF9E7D2F88420F6E74FF0204210284A
:10B240000CD0B0F5807F0DD052F8A40F8843106069
:10B2500070470000A00000A0FEFF0F00506E884362
:10B260005066F5E752F8840F88431060F0E7034614
:10B2700000204FF02042102B0ED0B3F5807F0DD070
:10B28000D2F8A42002EA010302EAD101002BDFD0A8
:10B290000029DDD00120DBE7526EF3E7D2F88420ED
:10B2A000F0E74FF02042102808D0B0F5807F0AD098
:10B2B00052F8A40F20EAD1001060C9E7506E20EACE
:10B2C000D1005066C4E752F8840F20EAD100106024
:10B2D000BEE7000010B59C49884209D10121042035
:10B2E00000F0D3FA0021BDE81040042000F0CDBAF0
:10B2F0009649884209D10121082000F0C6FA0021B0
:10B30000BDE81040082000F0C0BA9149884209D138
:10B310000121102000F0B9FA0021BDE810401020F2
:10B3200000F0B3BA8B49884209D10121202000F0F6
:10B33000ACFA0021BDE81040202000F0A6BA8649F2
:10B34000884209D10121402000F09FFA0021BDE888
:10B350001040402000F099BA8049884209D101216B
:10B36000802000F092FA0021BDE81040802000F01B
:10B370008CBA7B4988420AD184150121204600F00D
:10B3800084FA2046BDE81040002100F07EBA10BDCE
:10B3900010B50121084600F078FA0021BDE8104000
:10B3A000012000F072BA2DE9F0410022CC7804F0BF
:10B3B0000F03E40601D58C7823430C784FF00F0778
:10B3C00014F0FF0F4FF0010C1CD005680CFA02F4CA
:10B3D0000E882640A64211D1960007FA06F825EA03
:10B3E000080503FA06F848EA0505CE78282E02D0AB
:10B3F000482E02D002E0446100E00461521C082A99
:10B40000E4D305600A88FF2A1ED94568002202F1AC
:10B4100008060CFA06F40E882640A64210D19600C3
:10B4200007FA06F825EA080503FA06F848EA0505CA
:10B43000CE78282E00D14461CE78482E00D1046108
:10B44000521C082AE3D34560BDE8F0814FF6FF7136
:10B450000180022181700421C170704702460020E2
:10B4600092680A4200D001207047806880B270471D
:10B4700002460020D2680A4200D001207047C0680E
:10B4800080B270470161704741617047002A01D066
:10B490000161704741617047C160704741F480327B
:10B4A00082618161826181698069704710B52D4B2D
:10B4B0001A684FF68074224042EA00100843186070
:10B4C00010BD2949C8617047F0B5264C002801DA43
:10B4D000E36900E06368C0F30346420D120185B2E0
:10B4E000C0F301579540032F07D0C2020CD50322A9
:10B4F000B240934343F0706209E023F070626368E6
:10B5000023F07063636002E0AB4343F0706201B10B
:10B510002A43002801DAE261F0BD6260F0BD10B597
:10B520008A07120F0F23934021F003040D49214491
:10B530008C689C438C608B68904003438B6010BD8B
:10B540000949DC310860704700080140000C0140E7
:10B55000001001400014014000180140001C01408F
:10B5600000200140000001400000204210B50121F0
:10B570000C07204600F094F92046BDE81040002159
:10B5800000F08EB921490862704720490861704770
:10B590001F4A116821F0E0010143116070471B4907
:10B5A000A031086070471A4B1A6822F00302024368
:10B5B0001A601848026842F004020260012905D0AE
:10B5C00020BF016821F004010160704730BFF8E737
:10B5D0000F48016841F004010160016841F0020177
:10B5E00001600C48016841F00401016030BF704700
:10B5F00001460020064A52680A4200D001207047E6
:10B6000003490A6842EA80000860704700000E4261
:10B610000070004010ED00E0B448016841F0010105
:10B6200001604168B24A114041600168B14A11406D
:10B630000160016821F480210160416821F4FE016C
:10B6400041604FF41F0181607047A8490A6822F4E5
:10B6500080320A600A6822F480220A60B0F5803FD6
:10B6600007D0B0F5802F03D1086840F4A02008600F
:10B670007047086840F48030086070470346002037
:10B6800059099A4A01290AD002290AD0516A03F0BD
:10B690001F02012393400B4200D001207047116824
:10B6A000F5E7116AF3E718B5002000904FF4A064A5
:10B6B0003120FFF7E3FF0099491C00910099A14256
:10B6C00001D00028F4D03120FFF7D8FF08B10120C5
:10B6D00018BD002018BD854A116821F0F80141EA23
:10B6E000C000106070478449086070477F4B5A68FB
:10B6F00022F47C1208431043586070477E49086664
:10B7000070477A4A516821F0030101435160704744
:10B710007648406800F00C007047744A516821F088
:10B72000F001014351607047704A516821F4E061B3
:10B730000143516070476D4A516821F4605141EAFC
:10B74000C00050607047694A002903D0517A014314
:10B7500051727047517A8143517270476649D831AE
:10B7600008607047614A516821F4404101435160CB
:10B7700070475E49002220310A7001F82029012813
:10B7800005D0042802D1052081F82000704701204F
:10B7900081F82000704759490860704753490A6A88
:10B7A00002430A627047554944390860704710B532
:10B7B0004E4A516801F00C01514B002927D0042951
:10B7C00027D0082927D00360516801F0F00109094A
:10B7D0004C4B5C5C0168E1404160546804F4E064F7
:10B7E000240A1C5D21FA04F48460546804F4605453
:10B7F000E40A1B5DD940C160526802F44042920BDA
:10B80000404B1B1F9A5CB1FBF2F1016110BD03605C
:10B81000DAE70360D8E7516801F47011536803F464
:10B820008033022404EB914133B153689B0307D565
:10B83000354B59430160C7E7334B59430160C3E7B8
:10B840002F4B59430160BFE7284A002903D05169B3
:10B850000143516170475169814351617047234AE7
:10B86000002903D091690143916170479169814337
:10B87000916170471D4A002903D0D1690143D1610C
:10B880007047D1698143D1617047184A002903D0BC
:10B89000D1680143D1607047D1688143D16070475E
:10B8A000124A002903D011690143116170471169DF
:10B8B00081431161704711494039086070470E4952
:10B8C000C86470470949C87170470848416A41F027
:10B8D00080714162704701460020044A92680A4222
:10B8E00000D0012070470149887270470010024063
:10B8F0000000FFF8FFFFF6FE0000424280044242D3
:10B9000000127A001800002000093D00434A002977
:10B9100003D0118801431180704711888143118041
:10B9200070473E48001D018841F0100101807047BA
:10B930003A48001D018821F0100101807047374806
:10B940001C30008835491831098840EA01407047A9
:10B9500000B50246FFF7E5FF3049100C18310880AA
:10B96000081D02805DF804EBE2E700B50246FFF730
:10B97000D8FF2A49C2F3034008310880081D02801D
:10B980005DF804EBD4E700B50246FFF7CAFF234990
:10B99000100C20310880081D02805DF804EBC7E719
:10B9A0001E48103000880007010B1C481430008826
:10B9B000084370471948001D01888906FCD5704767
:10B9C0001648001D018821F008010180018809073F
:10B9D000FCD5704701460020104A121D12880A4209
:10B9E00000D0012070470D49091D0A8882430A8052
:10B9F00070470A49091D0988C2B21140074A1288D6
:10BA0000024202D009B1012070470020704703496B
:10BA1000091D0A8882430A80704700000028004000
:10BA200066480021016041608160C16041628162BD
:10BA3000C162634A8263C163704730B55F4B596826
:10BA400047F6FF629143027D8468C56822434468DB
:10BA50002C43224304680069224302430A435A608C
:10BA600030BD00210175016041608160C1600161EC
:10BA7000704754490860704750490A6822F0030231
:10BA80000A600A6802430A6070474C48006800F088
:10BA900003007047494A002903D0D16B0143D163A9
:10BAA0007047D16B8143D163704747490860704745
:10BAB00010B5424902688A60CA686FF30A02D0E989
:10BAC00001342343D0E90340044323431343CB60B1
:10BAD00010BD0021016041608160C160016170475B
:10BAE00036480069C0B2704708B53449143108447B
:10BAF00000900098006808BD10B5304902684A629D
:10BB000042688A62CA6A22F0F702D0E9023423430B
:10BB1000D0E90440044323431343CB6210BD4FF0EC
:10BB2000FF310160002141608160C16001614161BC
:10BB300070472248006B704720488030006870478B
:10BB40001E498031086070471C48806C70471E4950
:10BB50001431086070471C491831086070471A4951
:10BB60001C31086070471849203108607047174938
:10BB7000086070471549091D08607047012181431D
:10BB8000124808300160704710490C310860704756
:10BB900001460020094A526B0A4200D0012070473A
:10BBA00006498863704701460020044A526B0A42E6
:10BBB00000D0012070470149886370470080014030
:10BBC000FF07C000A00030428C053042AC0130427B
:10BBD00010B5A94988420AD1841401212046FFF7F3
:10BBE00054FE2046BDE810400021FFF74EBEA34999
:10BBF00088420AD1041401212046FFF751FE204655
:10BC0000BDE810400021FFF74BBE9D4988420AD194
:10BC1000C41301212046FFF743FE2046BDE8104033
:10BC20000021FFF73DBE10BD30B5028802F441533C
:10BC30000A884C88CD8822438C882C4322430C8967
:10BC400022434C8922438C892243CC8922431A43C4
:10BC50000280828B22F400628283098A018230BDD5
:10BC6000F0B585B005460C46022000210126AA8BBE
:10BC70004FF240031A40AA8302222A84AF8BA268A3
:10BC8000022A21D0A08800B102266846FFF78FFD66
:10BC90000098E188B1F5007F2CD07101B0FBF1F084
:10BCA00000EB8000A1684000B0FBF1F0401D80B2C5
:10BCB0000A21B0FBF1F000F00101401AC0F34F007F
:10BCC0004FF6FF7202EA0121821EFE2A01D30220F2
:10BCD0000021E288084302432A8420886188A289DF
:10BCE0000843A18811430843384340F40060A88307
:10BCF00005B0F0BD000A00EB8000A1684000B0FB79
:10BD0000F1F0401D80B2D3E70021018041808180A5
:10BD1000C180018141818181C181072101827047F8
:10BD20000021018041808180C18002228260818166
:10BD30007047002904D0018841F04001018070471C
:10BD4000018821F0400101807047002904D0818BD7
:10BD500041F4806181837047818B21F4806181830C
:10BD60007047090901238B4099B2002A03D08288C9
:10BD70000A438280704782888A4382807047002A03
:10BD800003D082880A438280704782888A438280F7
:10BD900070478181704780897047A1F57E42FF3AE4
:10BDA00004D0018841F4807101807047018821F43A
:10BDB000807101807047002904D0818841F004011E
:10BDC00081807047818821F004018180704702885A
:10BDD00022F40062028002880A43028070470188D0
:10BDE00041F4805101807047002904D0018841F45A
:10BDF000005101807047018821F400510180704793
:10BE0000012901D0008B7047808A7047008A7047F3
:10BE1000B1F5804F04D0018821F480410180704742
:10BE2000018841F480410180704702460020128958
:10BE30000A4200D001207047C9430181704730B5E4
:10BE40000246002001F00F03012505FA03F4A3B216
:10BE5000090905FA01F4A4B29188214012891A4215
:10BE600002D0002900D0012030BD01F00F020121D5
:10BE70009140C943018170470030014000380040C3
:10BE8000003C004010B5E14988420AD101218C03F1
:10BE90002046FFF7FAFC2046BDE810400021FFF7DE
:10BEA000F4BCDB4988420AD101214C042046FFF74B
:10BEB000F7FC2046BDE810400021FFF7F1BCD54952
:10BEC00088420AD101218C042046FFF7E9FC204674
:10BED000BDE810400021FFF7E3BCCF4988420AD1FA
:10BEE0000121CC042046FFF7DBFC2046BDE81040D2
:10BEF0000021FFF7D5BCC94988420AD101210C05B0
:10BF00002046FFF7CDFC2046BDE810400021FFF79A
:10BF1000C7BC10BD30B585B004460D46208A4CF62E
:10BF2000FF710840E98801432182A0894EF6F31190
:10BF30000840A9882A8911436A8902431143A181D3
:10BF4000A08A4FF6FF410840A9890143A1826846B3
:10BF5000FFF72DFCAD48844201D1039800E0029820
:10BF6000A189090408D500EBC00101EB0010296884
:10BF70004900B0FBF1F007E000EBC00101EB00105D
:10BF800029688900B0FBF1F06422B0FBF2F10901ED
:10BF90000B096FF018056B4300EB8300A3891D04A8
:10BFA0004FF0320307D503EBC000B0FBF2F000F016
:10BFB0000700084306E003EB0010B0FBF2F000F0CE
:10BFC0000F000843208105B030BD4FF416510160C9
:10BFD00000218180C18001810C22428181817047D2
:10BFE00010B5038A4FF2FF0213400A884C8822439F
:10BFF0008C88C9880C4322431A43028210BD002159
:10C00000018041808180C1807047002904D08189EE
:10C0100041F4005181817047818921F4005181816F
:10C02000704710B540F66A13C1F3421301F01F04C4
:10C030000121A140012B07D0022B07D014303AB1C7
:10C0400002680A43026010BD0C30F8E71030F6E7D2
:10C0500002688A43026010BD002A03D0828A0A4324
:10C0600082827047828A8A4382827047028A22F0E3
:10C070000F020282028A0A4302827047828922F4F6
:10C080000062828182890A4382817047002904D03C
:10C09000818941F0020181817047818921F002018B
:10C0A00081817047028A22F020020282028A0A43BA
:10C0B00002827047002904D0018A41F48041018244
:10C0C0007047018A21F4804101827047C1F3080161
:10C0D000818070478088C0F308007047818941F0F3
:10C0E000010181817047028BD2B20283028B42EA46
:10C0F000012101837047028B02F47F420283028B8D
:10C100000A4302837047002904D0818A41F020014C
:10C1100081827047818A21F0200181827047002945
:10C1200004D0818A41F0100181827047818A21F018
:10C13000100181827047002904D0818A41F00801F2
:10C1400081827047818A21F008018182704700292D
:10C1500004D0818941F40041818170478189C1F314
:10C160000E0181817047002904D0818A41F4006169
:10C1700081827047818A21F4006181827047828ABE
:10C1800022F004028282828A0A4382827047002956
:10C1900004D0818A41F0020181827047818A21F0B6
:10C1A0000201818270470246002012880A4200D0B4
:10C1B000012070478A05C9430180704770B500248B
:10C1C00040F66A12C1F3421301F01F05012606FA78
:10C1D00005F2012B0CD0022B0DD0838A1340090AE3
:10C1E0008E40008830400BB100B10124204670BD64
:10C1F00083891340F3E7038A1340F0E740F66A129D
:10C200000A0A01219140C94301807047003801406A
:10C210000044004000480040004C004000500040F6
:10C22000314870473148704710B531484FF47A7142
:10C230000068B0FBF1F0B0F1807F0CD220F07F41BC
:10C240004FF0E020491E41612A4AF021117000217F
:10C2500081610721016100F05BF900F09CF903F0B6
:10C260001FFC02F066F803F0BCF903F04FFC04F089
:10C270003DFD04F011F805F00DFFFFF7D3FF044674
:10C28000FFF7CEFF2146BDE8104007F0B5B910B565
:10C2900006F0B4FD05F0D0FEBDE8104006F0B9BDD3
:10C2A00070B5044607F0B8FC134D16E00A2809D112
:10C2B0000D212846FFF70AFF80212846FFF773FF6C
:10C2C0000028F9D014F8011B2846FFF7FFFE802153
:10C2D0002846FFF768FF0028F9D020780028E5D12C
:10C2E000BDE8704007F0A3BC0C0A00200C4A0020F7
:10C2F0000000002023ED00E0003801407CB510F084
:10C300005DFC05240326CDE900644FF48063002220
:10C31000124913A007F08CFD144D686010B107F0AE
:10C3200052FD02E012A022F09BF8CDE900644FF428
:10C3300000630022144915A007F07AFD286018B1A7
:10C34000BDE87C4007F03FBDBDE87C4012A022F074
:10C3500087B810B5FFF7D2FF002010BD111E0108ED
:10C360004755495F546F756368000000280000203E
:10C370004755495F546F756368CFDFB3CCC6F4B6D9
:10C38000AFCAA7B0DC0A00001B1F01084755495F70
:10C3900053686F77000000004755495F53686F7717
:10C3A000CFDFB3CCC6F4B6AFCAA7B0DC0A0000003A
:10C3B00010B506F023FD01F042FBBDE8104006F089
:10C3C00028BD70B506F01AFD474D40F225512846AC
:10C3D000FFF7F4FE454CA0B12846FFF77BFEC2B242
:10C3E000B4F86400C0F30E0063280AD234F8640F76
:10C3F000C0F30E012388481C60F30E0324F864394F
:10C40000625440F224412846FFF7D8FE012807D1A4
:10C4100034F8640F40F4004020802846FFF75AFEAD
:10C42000BDE8704006F0F5BC70B506F0E7FC304D95
:10C4300040F225512846FFF7C1FE2E4CA0B12846F8
:10C44000FFF748FEC2B2B4F86400C0F30E006328E0
:10C450000AD234F8640FC0F30E012388481C60F33D
:10C460000E0324F86439625440F224412846FFF751
:10C47000A5FE012811D134F8640F40F4004020805B
:10C480002846FFF727FE1CA11A480BF092FD08B1C1
:10C49000012000E000201B490870BDE8704006F054
:10C4A000B8BC70B506F0AAFC174E3046FFF712FE76
:10C4B000C4B2A4B1154D95F829104A1C85F829205D
:10C4C0006C5421460848FFF701FE0A2C07D10320CF
:10C4D00085F8280040F225513046FFF78FFEBDE871
:10C4E000704006F096BC000000380140C84D0020A6
:10C4F00000480040624D0020434C4F5345440D0A14
:10C5000000000000CC00002000440040FCB20020ED
:10C5100038B501210820FFF7A2F92020ADF800006E
:10C5200010208DF8030003208DF802000F4C69469F
:10C530002046FEF738FF0121ADF80010694620467D
:10C54000FEF731FF0221ADF8001069462046FEF7E4
:10C550002AFF20212046FEF795FF01212046FEF705
:10C5600091FF02212046FEF78DFF38BD000C0140EF
:10C5700008B54FF4A060FEF7B3FA25208DF800004F
:10C5800001208DF801008DF802008DF80300684647
:10C59000FEF7ABFA08BD10B586B001210420FFF705
:10C5A0005EF901218803FFF75AF94FF40070ADF8E6
:10C5B000140018208DF8170003208DF81600514C38
:10C5C00005A92046FEF7EFFE2115ADF81410042151
:10C5D0008DF8171005A92046FEF7E5FE4FF4E1306F
:10C5E00001900020ADF80800ADF80A00ADF80C008D
:10C5F000ADF810000C20ADF80E00434C01A9204608
:10C60000FFF788FCFFF7B4FF012240F225512046D6
:10C61000FFF707FD012240F224412046FFF701FD0C
:10C6200001212046FFF7F1FC06B010BD10B504460D
:10C630002046FFF74BFD80212046FFF7B4FD002880
:10C64000F9D010BD2DE9F04107460D4616460024ED
:10C6500005E0295D3846FFF7E9FF641CE4B2B44207
:10C66000F7D340213846FFF79EFD0028F9D0BDE8FA
:10C67000F08170B506460D4600243046295DFFF76F
:10C68000D5FF641C285D0028F7D140213046FFF714
:10C690008AFD0028F9D070BD70B50546080ACCB2F5
:10C6A00001462846FFF712FD80212846FFF77BFD53
:10C6B0000028F9D021462846FFF708FD80212846AA
:10C6C000FFF771FD0028F9D070BD70B504460E4D1E
:10C6D000E1B22846FFF7FAFC80212846FFF763FD08
:10C6E0000028F9D0204670BD10B5074C2021204607
:10C6F000FFF759FD0028F9D02046BDE81040FFF7AC
:10C70000E9BC0000000801400038014038B50020B5
:10C71000FFF7AFF90020FFF7AFF9FFF781F900212C
:10C720004FF48060FFF790F84FF4F850ADF8000038
:10C7300004248DF803406946FB48FEF734FEADF84B
:10C7400000406946F948FEF72EFE38BD08B54FF4A3
:10C75000C060FEF7C5F931208DF8000000208DF88B
:10C7600001008DF8020001208DF803006846FEF7F5
:10C77000BCF908BDEE48FEF71ABB70B58CB0054693
:10C780000C46EC48FEF722FBEB4E00213046FEF74C
:10C79000F2FAEA480190029500200390A108049162
:10C7A00005908021069189000791890008910990E0
:10C7B00089000A910B9001A93046FEF7B2FA0121D7
:10C7C0003046FEF7D8FA0CB070BD70B58CB0044698
:10C7D0000D46D848FEF7FAFAD74E00213046FEF74C
:10C7E000CAFAD6480190029410200390A808049039
:10C7F0000020059080210691890007918900089109
:10C80000099089000A910B9001A93046FEF789FA38
:10C8100001213046FEF7AFFAD5E708B501213020F7
:10C82000FFF71DF84FF4F850ADF8000003208DF825
:10C83000020018208DF803006946BB48FEF7B3FDDF
:10C840000420ADF800006946B848FEF7ACFD0121B0
:10C850008802FEF7F9FF01210220FEF7F5FF08BD6F
:10C86000B6488038416B11F0450FFBD040F2FF51C4
:10C870008163406900F0080070472DE9FC470E46CF
:10C880000024002700970197AD4D4FF0080AC5F826
:10C8900000A0102068604FF04008C5F80880EF60E5
:10C8A0004FF48069C5F810902846FFF701F9102071
:10C8B000FFF7D6FF002832D1A24800890004286083
:10C8C00037206860C5F80880EF60C5F810902846EA
:10C8D000FFF7EEF83720FFF7C3FF00281FD1411EF6
:10C8E00005F114000160C0F804A03021816002212C
:10C8F000C160076101214161FFF7FEF82F6033201D
:10C900006860C5F80880EF60C5F810902846FFF70A
:10C91000CFF83320FFF7A4FF0546280001D0BDE87B
:10C92000FC87DFF818824FF4001A6F46A8F18008E0
:10C9300040F22A690AE05046FFF72AF930B1FFF7C2
:10C94000FBF847F82400641C012C04D8D8F8340004
:10C9500010EA090FEFD00820FFF71AF920B10820DC
:10C96000FFF71EF90420DAE70220FFF711F920B1E2
:10C970000220FFF715F90220D1E72020FFF708F980
:10C9800020B12020FFF70CF90620C8E74FF400740F
:10C990002046FFF7FDF820B12046FFF701F90720F8
:10C9A000BDE740F2FF50FFF7FBF800980099000642
:10C9B00001F47F4140EA0120009901F47F0140EA3F
:10C9C0001120009940EA11607060019801990006F9
:10C9D00001F47F4140EA0120019901F47F0140EA1E
:10C9E0001120019940EA11603060284697E72DE94F
:10C9F000FC4706460024009401940020FFF774F8D9
:10CA0000800101D50E208AE74E4D6946288980B203
:10CA1000FFF733FF002882D13720494F4FF0060A35
:10CA20004FF040094FF48068012E22D00199C903CC
:10CA300045D52989090439607860C7F80890FC60F9
:10CA4000C7F810803846FFF733F83720FFF708FFA4
:10CA50000028D8D13C60C7F804A0C7F80890FC6053
:10CA6000C7F810803846FFF723F80620FFF7F8FED6
:10CA700055E70199490320D529890904396078606F
:10CA8000C7F80890FC60C7F810802D48FFF710F831
:10CA90003720FFF7E5FE0028B5D102203860C7F83F
:10CAA00004A0C7F80890FC60C7F810802448FEF77F
:10CAB000FFFF0620FFF7D4FE31E725202FE72520D2
:10CAC0002DE72DE9F041014600241E484068032867
:10CAD00005D038B1012805D0022803D044E0272032
:10CAE000BDE8F081B1F5805F0FD0154D4FF40067C0
:10CAF0000026183D4FF00108B94225D10120FFF76B
:10CB000076FF0446200002D02EE02720E8E785F8D3
:10CB100014802E606E60AE60EF602E610848183899
:10CB2000FEF78BFF20E000000010014000140140E0
:10CB30000020001000F000104404024080800140FA
:10CB4000B04A0020300000200020FFF750FF0446CC
:10CB5000200009D185F814802E606E60AE60EE6012
:10CB60002E61FE48FEF769FF2046B9E710B5FB4984
:10CB70001831086007204860402088600020C860A5
:10CB80004FF4806008610846FEF792FFBDE8104050
:10CB9000072065E62DE9F043F1494E6880F85660BC
:10CBA0000989A0F85410DFF8B4C3ACF1880CDCF8A4
:10CBB00000100A0E93090370C2F38303437002F05E
:10CBC000030282700A0CC2700A0A02714171DCF819
:10CBD0000420110E0901C180C2F30741C38843EA52
:10CBE0001113C38001F00F010172C2F30721CB09B9
:10CBF0004372C1F380138372C1F34013C372C1F354
:10CC0000001303730023437364460127D4F808809C
:10CC1000002E4FEA1864C8F30745C8F3072904D06B
:10CC2000012E02D0022E3AD04FE08907090D016192
:10CC3000D1B2026942EA81010161016941EA9411BC
:10CC40000161C4F3C201017504F00701417569096E
:10CC50008175C5F38201C175A907490F017649465F
:10CC6000027E42EAD11202760269521C047EA41CA2
:10CC700007FA04F6A2FB0649F51703FB069602FB2A
:10CC80000565027A07FA02F9C0F85090A4FB09265C
:10CC900005FB096504FB0354C0E9122415E0910665
:10CCA000890A0161016941EA04210161016929439D
:10CCB000016149460269DC04521C44EA5234D20440
:10CCC000C0E912244FF4007202651C30C1F38012D7
:10CCD00000F8032C8906490E00F8021C08F0FF0139
:10CCE00010F8022C42EAD11200F8022C01F07F0168
:10CCF00000F8011CDCF80C20110ECC090470C1F303
:10CD000041144470C1F3820484708907090FC17013
:10CD1000C2F30741C47844EA9114C470C1F34014CB
:10CD20000471437101F001018171C2F30721CC0943
:10CD3000C471C1F380140472C1F340144472C1F38E
:10CD400000148472C1F38104C47201F00301017301
:10CD5000D1B2490841738773804A783A11680C0E42
:10CD600004740C0C24024482C1F30724458A254331
:10CD700045820906416151680C0E456945EA044443
:10CD80004461C1F30744456945EA04244461C1F3A1
:10CD90000724456925434561017691680C0E447668
:10CDA0000C0C2406C461C1F30724C56945EA044498
:10CDB000C461C9B2C46944EA0121C161D1680A0EE3
:10CDC000C4691443C461C1F3074290F8204044EAA7
:10CDD000121480F820401207120D4284C1F307227A
:10CDE000448C14434484C9B2490880F8241080F864
:10CDF00025701846BDE8F08310B50024594A516BE0
:10CE000000E0516B11F0450FFBD0480705D5032416
:10CE10000420FEF7C5FE204610BDC80705D001243A
:10CE20000120FEF7BDFE204610BD40F2FF50FEF788
:10CE3000B7FE204610BD70B506460C460025494A8F
:10CE4000506B00E0506B10F0450FFBD0410705D54B
:10CE500003240420FEF7A4FE204670BDC00705D0C1
:10CE600001240120FEF79CFE204670BDFEF738FE2F
:10CE7000B04201D0102070BD40F2FF50FEF790FE8E
:10CE80000020FEF731FE10F4604F03D0810405D579
:10CE9000132070BD000C2080284670BD410401D5D0
:10CEA000102070BD000401D50F2070BD284670BD54
:10CEB0002DE9F84F002401200090FEF7E6FDE8B1CF
:10CEC000DFF89C80254D0026D8F8040018354FF077
:10CED000C0094FF4806704282AD02E6002206860C1
:10CEE000C5F80890EE602F612846FEF7E1FDFFF7D8
:10CEF00083FF0446200003D0BDE8F88F2520FBE720
:10CF00000020FEF7F1FDDFF854A0AAF1780ACAF874
:10CF100000000420FEF7E8FDCAF804000820FEF730
:10CF2000E3FDCAF808000C20FEF7DEFDCAF80C008D
:10CF3000D8F8040028B1012803D0062801D002281F
:10CF400019D12E60032068604020A860EE602F6138
:10CF500002481830FEF7ACFD694605E0984A00200B
:10CF600030000020008001400320FFF764FF0446EA
:10CF7000200000D0C0E7D8F80400042826D0BDF86F
:10CF80000000C8F808000004286009206860C5F89F
:10CF90000890EE602F61F848FEF78AFDFFF72CFF3E
:10CFA0000446200000D0A7E70020FEF79DFDF24DCB
:10CFB000A03D28600420FEF797FD68600820FEF77A
:10CFC00093FDA8600C20FEF78FFDE860204693E7F4
:10CFD00010B50024E94A516B00E0516B11F0450F88
:10CFE000FBD0480705D503240420FEF7D9FD2046D1
:10CFF00010BD40F2FF50FEF7D3FD204610BD10B526
:10D0000000204FF48031DD4B5A6B01E0491E5A6B12
:10D0100012F0450F01D10029F8D109B1510705D50A
:10D0200003240420FEF7BCFD204610BD5106FCD5AC
:10D0300000244020FEF7B4FD204610BD70B5002549
:10D040004FF4803400E0641E24B18020FEF7A0FD80
:10D050000028F8D02CB140F2FF50FEF7A1FD284681
:10D0600070BD032070BD2DE9F05F4FF0000B002470
:10D07000A2460027C048B221183801754FF00008B9
:10D08000C0F80080C0F80480C0F80880C0F80C80A8
:10D09000C0F81080FEF7D1FC0320FEF7EDFC012064
:10D0A000FEF7E7FCB44EC6F80080C6F80480C6F868
:10D0B0000880C6F80C804FF48069C6F8109030469E
:10D0C000FEF7F6FCFFF7BAFF00285CD14FF4D570ED
:10D0D0003060082070604025B560C6F80C80C6F846
:10D0E00010903046FEF7E4FCFFF789FF10B3C6F856
:10D0F000008037207060B560C6F80C80C6F81090CC
:10D100003046FEF7D5FC3720FFF7AAFBC6F80080B3
:10D11000372070604020B060C6F80C80C6F81090D0
:10D120009548FEF7C5FC3720FFF79AFB0546280017
:10D1300032D044E09248012141608F07E6E7C6F80B
:10D140000080372070604025B560C6F80C80C6F8B6
:10D1500010908948FEF7ACFC3720FFF781FB0028D0
:10D1600011D188483843306029207060B560C6F816
:10D170000C80C6F810908048FEF79AFCFFF728FF55
:10D180000546280001D0BDE8F09F0020FEF7ACFC6A
:10D1900083464FEADB7A641CBAF1000F03D14FF6E5
:10D1A000FF708442CBD34FF6FF70844201D31B2023
:10D1B000E9E71BF0804F02D0714802214160284608
:10D1C000E1E710B5FFF7C2FAFFF727FBFEF728FCEF
:10D1D000FFF749FF002822D1FFF76AFE00281ED181
:10D1E00065480121183801750021016041608160A6
:10D1F000C1600161FEF721FC5F487038FFF7CAFC8F
:10D2000030B95D487038B0F854000004FFF7AEFC48
:10D21000002804D1BDE810404FF4006051E410BD77
:10D2200070B505465648554C00890004A06040F290
:10D230004D40E0600D20FFF713FB002801D161692C
:10D24000296070BD08B5002000906846FFF7E8FF30
:10D2500008B1FF2008BD0098C0F3432008BD10B5F9
:10D26000FFF7F0FF042803D0FF2803D0012010BDF2
:10D27000002010BD022010BD10B500240020FEF7D4
:10D28000FBFB204610BD2DE9F04705460020FEF7C8
:10D290002BFC800102D50E20BDE8F087364C4026DD
:10D2A000266010206060A6600027E7604FF4806869
:10D2B000C4F810802046FEF7FBFB1020FFF7D0FAE1
:10D2C0000028E9D12E4800890004206037206060E2
:10D2D000A660E760C4F810802046FEF7E9FB37201F
:10D2E000FFF7BEFA0028D7D1411E04F114000160F7
:10D2F0004660602181600221C160076101214161B6
:10D30000FEF7FAFB27600D206060A660E760C4F8B6
:10D3100010802046FEF7CCFB0D20FFF7A1FA064651
:10D32000300000D0B8E74FF40049144F40F22A68AB
:10D330000CE04846FEF72CFC40B10024FEF7FCFB55
:10D3400045F82400641C082CF8D32035786B10EACB
:10D35000080FEED00820FEF71BFC20B10820FEF7D6
:10D360001FFC042098E70220FEF712FC60B10220A7
:10D37000FEF716FC02208FE7B04A00200080014033
:10D3800030000020000010802020FEF701FC20B1BA
:10D390002020FEF705FC06207EE74FF400742046AF
:10D3A000FEF7F6FB20B12046FEF7FAFB072073E7F5
:10D3B0004FF4001402E0FEF7BFFB01C52046FEF764
:10D3C000E7FB0028F7D140F2FF50FEF7E9FB3046BB
:10D3D00062E710B50446F948FFF755FF014608001B
:10D3E00000D010BDF5480278920922700278C2F38D
:10D3F00040126270827812026280C278638813439E
:10D4000063800279120662604279636843EA0242ED
:10D4100062608279636843EA02226260C27963686B
:10D4200013436360027A2272427A6272827A12092C
:10D43000A272C27A1202A281027BA3891343A38142
:10D44000427B9208A273407B00F00300E073084621
:10D4500010BD2DE9F0478046089E14461D46D84869
:10D46000002707700761C760D649CF62406802286D
:10D4700003D10602640A44EAC554D04D80352E60BB
:10D48000102068604FF04009C5F80890EF604FF435
:10D49000806AC5F810A02846FEF70AFB1020FFF7A7
:10D4A000DFF900281ED1411E05F11400016046601D
:10D4B000902181600221C160076101214161FEF775
:10D4C0001BFB2C6011206860C5F80890EF60C5F860
:10D4D00010A02846FEF7ECFA1120FFF7C1F9044628
:10D4E0000CB12046D8E601210802FEF7D3FA01204C
:10D4F000FEF7DBFA31464046FFF73FF92046CBE620
:10D500002DE9FF5F1446DDE90E6A1D46AC48002791
:10D51000077007614FF00108C0F80C80A949CF627D
:10D520004068022803D10602640A44EAC554A34DA8
:10D5300080352E60102068604FF04009C5F80890D3
:10D54000EF604FF4806BC5F810B02846FEF7B0FAD4
:10D550001020FFF785F9002821D1411E05F11400A4
:10D5600001600AFB06FAC0F804A090218160022144
:10D57000C1600761C0F81480FEF7BEFA2C6012206B
:10D580006860C5F80890EF60C5F810B02846FEF74F
:10D590008FFA1220FFF764F9044614B1204604B054
:10D5A000F1E501210802FEF775FA0120FEF77DFA88
:10D5B00051460098FFF7E1F82046F0E770B50025E6
:10D5C0007F4CFFF7D7F820B9206910B920780028E0
:10D5D000F7D0207808B1207870BD284670BD2DE9BD
:10D5E000F0478046089E14461D4675480027077080
:10D5F0000761C7607349CF624068022803D1060201
:10D60000640A44EAC5546D4D80352E601020686070
:10D610004FF04009C5F80890EF604FF4806AC5F8F4
:10D6200010A02846FEF744FA1020FFF719F9002849
:10D6300029D12C6018206860C5F80890EF60C5F803
:10D6400010A02846FEF734FA1820FFF709F9002841
:10D6500019D105F11402401E1060566090209060B0
:10D66000D7601761012050611046FEF745FA01218D
:10D670000802FEF70FFA31464046FFF7A6F80120F0
:10D68000FEF713FA384607E62DE9FF5F82B014462D
:10D69000DDE910671D464FF00008CDF80480DFF883
:10D6A000209189F80080C9F810800120C9F80C0089
:10D6B0004448C0F82C80D9F80400022803D106029F
:10D6C000640A44EAC5543D4D80352E6010206860E0
:10D6D0004FF0400AC5F808A0C5F80C804FF4806BE5
:10D6E000C5F810B02846FEF7E3F91020FFF7B8F8A8
:10D6F000002852D1B9F8080000042860372068607B
:10D70000C5F808A0C5F80C80C5F810B02846FEF78B
:10D71000CFF93720FFF7A4F800283ED12F6017205B
:10D720006860C5F808A0C5F80C80C5F810B0284698
:10D73000FEF7BEF91720FFF793F800282DD12C60D3
:10D7400019206860C5F808A0C5F80C80C5F810B0AD
:10D750002846FEF7ADF91920FFF782F800281CD102
:10D7600005F11402401E10607743576090209060CE
:10D77000C2F80C80C2F81080012050611046FEF7FC
:10D78000BBF901210802FEF785F90120FEF78DF9AA
:10D7900039460298FFF719F8404606B0F3E470B531
:10D7A0000025074CFEF7E6FF20B9206910B9207864
:10D7B0000028F7D0207838B1207870BD304A00209A
:10D7C000300000200080014040F2FF50FEF7E8F9F1
:10D7D0002846F2E7AD48406B10F4405F01D00120CD
:10D7E000704700207047A9480021816040F24C41F9
:10D7F000C1600C20FFF734B87CB504460025002238
:10D8000001920092A248A3490089000408600D20FB
:10D81000486040208860CA60000108610846FEF741
:10D8200047F99A49486B009001E04A6B0092009AD0
:10D8300012F0450FF9D00098400705D503240420C5
:10D84000FEF7AEF920467CBD0098C00705D0012444
:10D850000120FEF7A5F920467CBDFEF741F90090B6
:10D8600000980D2801D010207CBD40F2FF50FEF73B
:10D8700097F90020FEF738F901900198C0F3432092
:10D88000207085490198084201D128467CBD019845
:10D89000002801DA1C207CBD0198400001D5092038
:10D8A0007CBD0198800001D50A207CBD0198C00094
:10D8B00001D50B207CBD0198000101D50C207CBD59
:10D8C0000198400101D50D207CBD0198C00101D512
:10D8D0000E207CBD0198000201D50F207CBD01986F
:10D8E000400201D510207CBD0198800201D5112095
:10D8F0007CBD0198C00201D512207CBD01980003B7
:10D9000001D513207CBD0198400301D514207CBDB6
:10D910000198800301D515207CBD0198C00301D575
:10D9200016207CBD0198000401D517207CBD01980C
:10D93000400401D518207CBD0198800401D5192030
:10D940007CBD0198000701D51A207CBD28467CBD0E
:10D950002DE9FC4782460D460024002601960096DC
:10D960004C48A0384068000D800602D42520BDE850
:10D97000FC87464840684949C0B2801CB1FBF0F0C2
:10D9800001900020FEF7B0F8800101D50E20EEE7EF
:10D990003F484068022802D14FEA5A2A6D0A3D4F9B
:10D9A0004FF040084FF4806918B1012801D00228D7
:10D9B00020D1C7F800A020207860C7F80880FE605A
:10D9C000C7F810903348FEF773F82020FEF748FFA1
:10D9D0000028CCD13D6021207860C7F80880FE6027
:10D9E000C7F810902B48FEF763F82120FEF738FFA8
:10D9F0000028BCD13E6026207860C7F80880FE6011
:10DA0000C7F810902348FEF753F82620FEF728FFAA
:10DA10000028ACD100E0641C01988442FBD3684626
:10DA2000FFF7EAFE02E06846FFF7E6FE00289ED117
:10DA30009DF800100729F6D00629F4D097E770B5B5
:10DA4000134CE168002001290DD020704FF480753F
:10DA50002846FEF7B0F800212846FEF71BF8012003
:10DA600020612078A9E60949886040F24C40C860EE
:10DA70000C20FEF7F5FE2070E8E7002102E04008E8
:10DA8000491CC9B20128FAD10846704700800140FC
:10DA900030000020B04A002008E0FFFDC0D40100A3
:10DAA0002DE9F0410122C9A1C94808F076F80146E4
:10DAB000C84F012520263C1F4FF002080D290BD02E
:10DAC00000292AD03E602560C4F80080C2A020F062
:10DAD000C7FC0020BDE8F081CDA020F0C1FC0022F1
:10DAE0001146BAA008F0F9FF40B13E602560C4F8C5
:10DAF0000080D1A020F0B4FC0020EBE7D2A020F001
:10DB0000AFFC0122B1A1002008F047F80122AFA12B
:10DB1000AF4808F042F80120DCE7D3A020F0A0FCD9
:10DB20000220D7E770B51122D3A1D74808F072F8C8
:10DB3000D64C20704FF0FF3528B10146D4A020F01C
:10DB40008FFC284670BDDAA020F08AFCDC4B4FF435
:10DB50009672DC49CC4808F010F92070CA4808F0E9
:10DB60005FFB217821B1D8A020F07AFC284670BD57
:10DB7000D34CDDA0216820F073FC206870BD10B587
:10DB8000E1A020F06DFCE549E5A020F069FCE34947
:10DB9000E7A0143120F064FCE04CEAA0283421789E
:10DBA00020F05EFC6178EDA020F05AFCA178F1A095
:10DBB00020F056FCE178F5A020F052FC2179F9A084
:10DBC00020F04EFC6179BDE81040FDA020F048BC7B
:10DBD00030B50346002B04D0002000226FF02F0444
:10DBE0000AE0FF2030BD9D5C00EB800004EB4000AC
:10DBF0002844C0B2521CD2B28A42F4D330BD2DE9BF
:10DC0000F04F85B08046C54E05202836307014216F
:10DC10007170B0700A20F070642030710120707152
:10DC2000283EEBA130460AF0F8F906F11400EAA10B
:10DC300083460AF0F2F9B8F1000F07D00125002160
:10DC400000270024DFF87C92EA467BE00A228AA1C2
:10DC50008D4807F0DFFF8D4C207038B10146E1A000
:10DC600020F0FEFB002005B0BDE8F08F944B87222A
:10DC7000E549854808F073F9207040B10146E3A0FA
:10DC800020F0EEFB804808F0CBFA0020EBE7E7A09D
:10DC900020F0E6FB7C4808F0C3FA0120E3E719F81E
:10DCA00004003C2805D04CE00A46491CC9B20AF8D9
:10DCB0000200641C19F804003E28F5D100200AF87F
:10DCC000010041B1092D39D2DFE805F0380B1015FC
:10DCD0001B21272D33006D1CEDB2641C7F1CFFB28D
:10DCE00030E069468D480AF098F927E069465846C1
:10DCF0000AF093F922E06846FFF76AFF86F82800E9
:10DD00001CE06846FFF764FF86F8290016E06846C5
:10DD1000FFF75EFF86F82A0010E06846FFF758FF1D
:10DD200086F82B000AE06846FFF752FF86F82C00C1
:10DD300004E06846FFF74CFF86F82D006D1CEDB23D
:10DD40000021641C4445AADB3FB13946BBA020F04A
:10DD500087FBFFF714FF012085E7FFF710FF022084
:10DD600081E710B501F019FF01F06CFF0146B848DA
:10DD70000AF053F9B649B7A020F072FB01F02DFF6D
:10DD8000B349026876394A6642688A660089A1F812
:10DD90006C00AF48BDE81040AFA11E380AF0FDB8D6
:10DDA00010B501F0FAFEAA48ADA11E380AF0F5F848
:10DDB00001F013FF0146A6481E380AF0EEF8A44809
:10DDC000A5A11E380AF0E9F8012010BD303A000084
:10DDD00068920020140C01405344BFA8B9D2D4D893
:10DDE000CEC4BCFECFB5CDB3CAA7B0DC282564290C
:10DDF0002CBFC9C4DCD4ADD2F2A3BA5344BFA8B37C
:10DE0000F5CABCBBAFB2BBB3C9B9A6A1A3000000A1
:10DE10005344BFA8BBB9C3BBD3D0CEC4BCFECFB59F
:10DE2000CDB3A3ACBCB4BDABBDF8D0D0B8F1CABDC6
:10DE3000BBAF2E2E2E0D0A00B8F1CABDBBAFCAA7CC
:10DE4000B0DC0D0A000000005344BFA8D2D1B3C912
:10DE5000B9A6B8F1CABDBBAFCEC4BCFECFB5CDB379
:10DE6000A1A30D0A00000000B4E6D4DACEC4BCFEC3
:10DE7000CFB5CDB30A0000004454555F636F6E66A2
:10DE800069672E696E6900009CA20020F8010020DD
:10DE9000CEC4BCFEB4F2BFAACAA7B0DCA3ACCAA76A
:10DEA000B0DCD4ADD2F2A3BA282564290A00000060
:10DEB000CEC4BCFEB4F2BFAAB3C9B9A60A00000022
:10DEC000FC010020DC4A0020CEC4BCFEB6C1C8A1C3
:10DED000CAA7B0DCA3ACCAA7B0DCD4ADD2F2A3BA57
:10DEE000282564290A000000CEC4BCFEB6C1C8A122
:10DEF000B3C9B9A62CB6C1B5BDD7D6BDDACAFDBE69
:10DF0000DDA3BA25640A0000445455BBF9B1BEC56F
:10DF1000E4D6C3C8E7CFC2A3BA0A0000C0B200204B
:10DF2000776966694E616D653A202573200A0000A5
:10DF30007769666950617373576F72643A2025730D
:10DF4000200A00004D5154547265706F72745F6303
:10DF500079636C653A202564200A00004D515454C1
:10DF600068656172745F6379636C653A202564202B
:10DF70000A0000004D4F4442555361736B5F637953
:10DF8000636C653A202564200A0000004D4F44422E
:10DF900055535F74696D656F75743A202564200A66
:10DFA000000000005468726573686F6C645F436FB3
:10DFB0006E416C61726D3A202564200A00000000F9
:10DFC0004C6F675F6C6576656C3A202564200A00AB
:10DFD0007A68616F000000003132333435363738EB
:10DFE00000000000696E69CEC4BCFEB4F2BFAACACC
:10DFF000A7B0DCA3ACCAA7B0DCD4ADD2F2A3BA28D8
:10E000002564290A0000000044000020696E69D0E0
:10E01000B4C8EBCAA7B0DCA3ACCAA7B0DCD4ADD2FD
:10E02000F2A3BA282564290A00000000696E69D0AD
:10E03000DEB8C4B3C9B9A60A00000000B4E6D4DA59
:10E04000CCF8B9FDC5E4D6C32564CFEE0A000000C4
:10E05000524D002025730A002E74787400000000D1
:10E060004454555F776F726B4C6F675F0000000020
:10E070000FB4F8B507AB4FF4967421463948069AA9
:10E0800020F012FA81B200200090481CA04206D96C
:10E0900035A020F0E5F90020F8BC5DF814FB3E4DFA
:10E0A0004FF0FF31286804F0DDF9FFF75AFE122225
:10E0B0003A493B4807F0AEFD3A4C207028B1014682
:10E0C00039A020F0CDF90020E6E7354E3046F16862
:10E0D00008F0B9F8207040B101463CA020F0C0F92A
:10E0E000304608F09DF80020D6E72C493F4B0F2220
:10E0F0001E312B4807F033FF207040B101463CA091
:10E1000020F0AEF9264808F08BF80020C4E7244838
:10E11000F16808F098F8207040B101462BA020F07B
:10E120009FF91F4808F07CF80020B5E70D4809F07A
:10E1300052FF02462D4B0B49194807F010FF207083
:10E1400040B1014632A020F08BF9154808F068F87C
:10E150000020A1E7124808F063F8286804F0DEF90F
:10E16000012099E7084C0020D2AAD0B4C8EBB5C46E
:10E17000B3A4B6C82564B4F3D3DAB6C1D0B4BBBA7D
:10E18000B3E5C7F8B3A4B6C8A3A1D0B4C8EBCAA777
:10E19000B0DC0A3B00000000F4010020344D0020F8
:10E1A0009CA20020F8010020747874CEC4BCFEB498
:10E1B000F2BFAACAA7B0DCA3ACCAA7B0DCD4ADD268
:10E1C000F2A3BA282564290A00000000747874B606
:10E1D000A8CEBBCAA7B0DCA3ACCAA7B0DCD4ADD272
:10E1E000F2A3BA282564290A00000000FC010020DF
:10E1F000CAB1BCE4D0B4C8EBCAA7B0DCA3ACCAA710
:10E20000B0DCD4ADD2F2A3BA282564290A000000FC
:10E21000747874C4DAC8DDD0B4C8EBCAA7B0DCA384
:10E22000ACCAA7B0DCD4ADD2F2A3BA282564290ABF
:10E230000000000008B54FF4A060FCF751FC272057
:10E240008DF8000000208DF801008DF802000120FB
:10E250008DF803006846FCF748FC08BD10B586B091
:10E2600001218804FDF706FB01210820FDF7F7FADC
:10E270004FF48060ADF8140018208DF817000320CB
:10E280008DF81600F64C05A92046FDF78CF8E11430
:10E29000ADF8141004218DF8171005A92046FDF7DC
:10E2A00082F84FF4E13001900020ADF80800ADF89D
:10E2B0000A00ADF80C00ADF810000C20ADF80E000F
:10E2C000E84C01A92046FDF725FE012240F2255128
:10E2D0002046FDF7A6FE012240F224412046FDF72C
:10E2E000A0FEFFF7A7FF01212046FDF78EFE06B036
:10E2F00010BD38B501210820FDF7B1FA4FF4807048
:10E30000ADF8000010208DF8030003208DF8020006
:10E31000D34C69462046FDF746F801210820FDF759
:10E320009EFA6115ADF8001069462046FDF73BF8EE
:10E3300038BD10B5FFF7DDFFFFF790FFC84C4FF475
:10E3400000712046FDF79EF8A1152046BDE810405B
:10E35000FDF79AB870B5C24D4FF4007421462846B7
:10E36000FDF792F8C04801F0ABFB21462846BDE816
:10E370007040FDF787B8F0B5034600250846002633
:10E380000A2A01D00670F0BD002B1DD005DA4FF02F
:10E390002D0200F8012BC3F1000342F210724FF07E
:10E3A0000A0793FBF2F454EA050C06D004F1300599
:10E3B00000F8015B04FB1233012592FBF7F2002AFF
:10E3C000EFDC06700846F0BD302202704670084649
:10E3D000F0BD0FB430B585B005460AA800900EE038
:10E3E0005C2914D025292CD0521C28460992FDF70F
:10E3F0006DFE80212846FDF7D6FE0028F9D0099A47
:10E4000011780029ECD105B030BC5DF814FB521C2A
:10E41000099210786E280CD0722802D0521C0992F2
:10E42000E7E70D212846FDF751FE0998401C0990A9
:10E43000DFE70A212846FDF749FE0998401C0990AC
:10E44000D7E7521C09921078642819D0732802D09B
:10E45000521C0992CDE7009810C8009009E02846A8
:10E46000FDF734FE80212846FDF79DFE0028F9D0F7
:10E47000641C21780029F2D10998401C0990B8E762
:10E48000009800990068091D00910A2201A9FFF770
:10E4900072FF01AC09E02846FDF718FE80212846EE
:10E4A000FDF781FE0028F9D0641C21780029F2D103
:10E4B0000998401C09909CE72DE9F0410D4616464D
:10E4C0001F466A4CB4F864106FF30E01A4F8641090
:10E4D000024667A16348FFF77CFF55EA06001FD09C
:10E4E0004FF47A70784301F0EBFAB4F8641000202E
:10E4F000C1F30E01605421465FA01FF0B1FF34F854
:10E50000640F6FF30E002080208820F400402080EC
:10E510008DB186B12946554809F04BFD48B902E056
:10E520000120BDE8F0813146504809F042FD002845
:10E53000F7D00120F5E73DB129464C4809F039FDF7
:10E540000028EED00120ECE73146484809F031FDC3
:10E550000028E6D00120E4E700B58BB047A101A870
:10E560001FF08EFF4FF4FA73002249A101A8FFF7B4
:10E57000A3FF0BB000BD70B500244FF40071384804
:10E58000FCF780FF43A01FF06BFF464801F098FAAC
:10E590004FF4FA7514E0214643A01FF061FF2B46AB
:10E5A00000223BA146A0FFF787FF28B1214645A0E6
:10E5B0001FF056FF012070BDFFF7CCFE641CE4B2D3
:10E5C0000A2CE8D3002070BD40F6C413002805D003
:10E5D000012807D0022809D00020704740A22CA1B2
:10E5E00042A069E73EA22AA143A065E73CA228A178
:10E5F00044A061E700B59FB00B46024644A101A8C4
:10E600001FF03EFF41F28833002221A101A8FFF74D
:10E6100053FF1FB000BD00B59FB00B4600920246ED
:10E6200040A101A81FF02CFF4FF47A73002218A11B
:10E6300001A8FFF741FFECE700B585B0002801D045
:10E64000012200E000223DA168461FF019FF4FF4AF
:10E65000FA7300220EA16846FFF72EFF05B000BD39
:10E66000000C01400048004020A10700624D00203E
:10E6700025730D0A000000002573000041542B4350
:10E6800057444843505F4355523D312C3100000000
:10E690004F4B00000D0A4154B2E2CAD42E2E2E2E4A
:10E6A0002E0D0A0080841E000D0A4154B2E2CAD425
:10E6B000B4CECAFD2025642E2E2E2E2E2E0D0A003D
:10E6C000415400000D0A4154B2E2CAD4C6F4B6AFB8
:10E6D000B3C9B9A62025642E2E2E2E2E2E0D0A008B
:10E6E0006E6F206368616E676500000041542B43C4
:10E6F000574D4F44453D310041542B43574D4F44F6
:10E70000453D320041542B43574D4F44453D330066
:10E7100041542B43574A41503D222573222C222538
:10E720007322000041542B43575341503D2225731F
:10E73000222C222573222C312C25640041542B439A
:10E7400049504D55583D256400000000F0B5B9B062
:10E7500004460F4615461E46642120A809F012FC07
:10E7600014B1012C0FD107E03B46A4A2A4A120A81C
:10E7700000951FF085FE06E03B46A5A2A0A120A8BB
:10E7800000951FF07DFE052E06D220AB3246A1A1DA
:10E7900002A81FF075FE04E020AAA3A102A81FF0A2
:10E7A0006FFE4FF47A63A4A2AFF21C1102A8FFF728
:10E7B00083FE39B0F0BD30B5BDB015464FF4FA74E4
:10E7C00000281FD00B4601229FA11FA81FF058FE52
:10E7D0002A46A2A101A81FF053FE23460022AFF251
:10E7E00050111FA8FFF768FE50B123460022AFF278
:10E7F000601101A8FFF760FE10B101203DB030BDEF
:10E800000020FBE70B4600228FA11FA81FF038FE57
:10E8100023460022AFF288111FA8FFF74DFEEDE757
:10E8200010B54FF4FA730022AFF29C118FA0FFF7DE
:10E8300043FEA0B191A1944809F0BBFB08B10220AE
:10E8400010BD92A1904809F0B4FB08B1032010BD9F
:10E8500091A18D4809F0ADFB08B1042010BD002046
:10E8600010BD10B500244FF4FA730022AFF2E0118E
:10E870007EA0FFF721FE00282DD08AA1824809F052
:10E8800098FB00B101248BA17F4809F092FB10B1E5
:10E8900044F0020401E024F002048AA17A4809F05D
:10E8A00088FB10B144F0040401E024F0040489A1C1
:10E8B000754809F07EFB10B144F0080401E024F033
:10E8C000080488A1704809F074FB10B144F01004EA
:10E8D00001E024F01004204610BD70B504460D463A
:10E8E0004FF4FA730022AFF2582182A0FFF7E4FD43
:10E8F00083A1654809F05DFB10B1801D002207E08F
:10E90000002070BD835CA354222B05D0521CD2B2D0
:10E91000AA42F7D3012070BD0020A054FAE710B539
:10E920004FF4FA7423460022AFF29C2176A0FFF741
:10E93000C3FD38B1234678A2AFF2AC21BDE8104048
:10E9400076A0B9E5002010BD10B5774801F0B8F801
:10E9500076A17748FFF73DFDBDE81040754801F00E
:10E96000AFB830B5044685B00D461846002C07D028
:10E970002A4630A16E48FFF72CFD012005B030BDBE
:10E98000052806D2931C02466BA168461FF078FD4D
:10E9900004E0921C6DA168461FF072FD6423002202
:10E9A0006EA16846FFF788FD4FF4FA7300226CA150
:10E9B0002846FFF781FDE1E710B5002432496431B4
:10E9C0000A886FF30E020A800A8822F4004221F8B6
:10E9D0006429B1F864201204FBD5B1F86430002238
:10E9E000C3F30E03CA5408B1274C05E05EA12648C4
:10E9F00009F0DFFA00B1244C204610BD544350000A
:10EA0000222573222C222573222C2573000000005E
:10EA10005544500041542B43495053544152543DA6
:10EA200025642C257300000041542B434950535456
:10EA30004152543D25730000414C524541592043F9
:10EA40004F4E4E454354000041542B4349505345CB
:10EA5000525645523D25642C2573000041542B43EA
:10EA6000495053544F3D25730000000041542B433F
:10EA700049505354415455530000000053544154DD
:10EA800055533A320D0A0000624D00205354415450
:10EA900055533A330D0A00005354415455533A34F8
:10EAA0000D0A00002B4349505354415455533A30FA
:10EAB0002C0000002B4349505354415455533A31D4
:10EAC0002C0000002B4349505354415455533A32C3
:10EAD0002C0000002B4349505354415455533A33B2
:10EAE0002C0000002B4349505354415455533A34A1
:10EAF0002C00000041542B434946535200000000B3
:10EB0000415049502C22000041542B4349504D4F55
:10EB100044453D31000000003E00000041542B43BD
:10EB2000495053454E44000040420F002B2B2B0010
:10EB30000048004020A1070041542B434950534551
:10EB40004E443D25642C25640000000041542B43B5
:10EB5000495053454E443D25640000003E200000CE
:10EB600053454E44204F4B002B49504400000000B9
:10EB700070B506460024FC4D304655F8241009F0C7
:10EB800018FA18B9641CE4B2082CF5D3F74B02202C
:10EB9000012120221D1F082C08D2DFE804F0040800
:10EBA0000C1014181C201A602960286070BD2A609F
:10EBB0001960286070BD2A602960186070BD1A60F5
:10EBC0001960286070BD1A602960186070BD2A60E5
:10EBD0001960186070BD1A601960186070BD2A60F5
:10EBE0002960286070BD10B504460020217A0129F3
:10EBF0000CD103F014FA60602168401A4FF47A7166
:10EC00004843B0FBF1F080B20021217210BDFEB587
:10EC100006460523D6A2D7A10020FFF797FD0028BE
:10EC2000F7D0FFF77CFE0028FBD0D6A1DC48FFF729
:10EC3000D0FB03F0F4F90446DA4D44F6206707E010
:10EC400003F0EDF9001BB04206D8384600F038FF5B
:10EC5000B5F864000004F3D5D34C40F2E770E080CF
:10EC60000A2626711C20E0700F20A07036206070EC
:10EC700014202070B5F8640000046ED5C949CBA0FB
:10EC80001FF0EEFBCFA1C74809F093F9811D1D22AB
:10EC9000C44809F04FF9C349CCA01FF0E1FB287B21
:10ECA000E97B303800EB4002C2EBC01001EBC00240
:10ECB000697B642030394143A87B303800EB800009
:10ECC00001EB400010443038E080C3A1B54809F0A2
:10ECD00070F910B10120207156E0C0A1B14809F0CF
:10ECE00068F910B1022020714EE0BDA1AD4809F0D5
:10ECF00060F910B10320207146E0BAA1A94809F0DB
:10ED000058F910B1042020713EE0B7A1A54809F0E0
:10ED100050F910B10520207136E0B4A1A14809F0E6
:10ED200048F910B1062020712EE0B1A19D4809F0EC
:10ED300040F910B10720207126E0AEA1994809F0F2
:10ED400038F910B1082020711EE0ABA1954809F0F8
:10ED500030F918B10920207116E03CE0A7A19148D4
:10ED600009F027F908B126710EE0A5A18D4809F038
:10ED700020F910B10B20207106E0A2A1894809F00A
:10ED800018F908B10C2020716879AA79303800EBA5
:10ED900080006FF02F0101EB40001044E070687CB0
:10EDA000AA7C303800EB800001EB40001044A070DA
:10EDB000287D6A7D303800EB800001EB4000104474
:10EDC0006070E87D2A7E303800EB800001EB400067
:10EDD0001044207002E08CA01FF042FB00F0C2FE45
:10EDE000FFF7B2FD00F0D9FE60782178A278CDE976
:10EDF00000200291E3782279E1888CA01FF030FB9B
:10EE0000FEBD10B504460120207203F008F9206011
:10EE100010BD3EB56846FFF7F4FF89A01FF020FB48
:10EE200052484FF480711438FCF72CFBFFF7A3FB1A
:10EE30000028FBD0FFF790FB0028FBD086A01FF036
:10EE40000FFB0020FFF7C0FB0028FAD08AA01FF0BC
:10EE500007FB904C8F4821461438FFF7CBFB002866
:10EE6000F8D08DA01FF0FCFA0020FFF7E5FB00288A
:10EE7000FAD042F21070FFF7CAFE8DA01FF0F0FA30
:10EE8000052392A293A10020FFF760FC0028F7D091
:10EE90006846FFF7A8FE014692A01FF0E1FAFFF7CF
:10EEA0003EFD0028FBD098A01FF0DAFA3EBDFEB56B
:10EEB0009E4DB5F86400000420D50024384E0BE0C8
:10EEC000295D3046FDF702F940213046FDF76BF928
:10EED0000028F9D0641CA4B2B5F86400C0F30E0099
:10EEE000A042EDD835F8640F6FF30E002880288813
:10EEF00020F4004028808D48FFF73AFE294DB5F8F0
:10EF00006400000420D50024894E0BE0295D3046C2
:10EF1000FDF7DCF840213046FDF745F90028F9D02F
:10EF2000641CA4B2B5F86400C0F30E00A042EDD892
:10EF300035F8640F6FF30E002880288820F4004015
:10EF400028801848FFF714FE0748001F00780028A3
:10EF500008D0FFF7F9FCFFF763FC0028FBD004287A
:10EF600001D1E7E018E113E1D0000020140C0140CA
:10EF7000383000006367692E696D2E71712E636FE2
:10EF80006D00000047455420687474703A2F2F6359
:10EF900067692E696D2E71712E636F6D0D0A000009
:10EFA00000480040624D002034B30020CAD5B5BDF2
:10EFB000B7FECEF1C6F7CAFDBEDDCEAAA3BA257351
:10EFC0000A0000004461746500000000CAB1BCE49E
:10EFD000CAC7A3BA25730A004A616E00466562007B
:10EFE0004D617200417072004D6179004A756E008A
:10EFF0004A756C0041756700536570004F6374007B
:10F000004E6F760044656300C3BBD3D0CAD5B5BD8F
:10F01000B7FECEF1C6F7CAFDBEDDA3ACCAB9D3C3F5
:10F02000C4ACC8CFCAB1BCE4A1A30A0025642F2593
:10F03000642F25645F25643A25643A25640A00003C
:10F040000D0ACAB9C4DC2045535038323636202E5A
:10F050002E2E2E2E2E0D0A000D0AD5FDD4DAC5E473
:10F06000D6C3B9A4D7F7C4A3CABD20535441202E98
:10F070002E2E2E2E2E0D0A000D0AD5FDD4DAC1AC8F
:10F08000BDD32057694669202E2E2E2E2E2E0D0A16
:10F0900000000000D4B200200D0ABDFBD6B9B6E0D6
:10F0A000C1ACBDD3202E2E2E2E2E2E0D0A00000018
:10F0B0000D0AD5FDD4DAC1ACBDD320536572766597
:10F0C00072202E2E2E2E2E2E0D0A000031383833AF
:10F0D000000000003132312E33362E34322E3130E2
:10F0E000300000000D0ABDF8C8EBCDB8B4ABB7A234
:10F0F000CBCDC4A3CABD202CB9B2D3C3CAB1BCE422
:10F10000A3BA25640D0A00000D0AC5E4D6C3204544
:10F1100053503832363620CDEAB1CF2CBFAACABC04
:10F12000CDB8B4ABC4A3CABD0D0A0000C84D0020C1
:10F130000038014019A01FF093F9204D95F82D00DB
:10F14000032802D81EA0FEF793FF6846FFF759FE7A
:10F150001A4C143421461948FFF74CFA0028F9D00C
:10F160000523AFF29802AFF294010020FFF7EEFA08
:10F170000028F5D06846FFF736FD014618A01FF0BD
:10F180006FF995F82D00032802D81FA0FEF770FF35
:10F19000FFF7C5FB0028FBD0FEBD00000D0AD5FD22
:10F1A000D4DAD6D8C1ACC8C8B5E3BACDB7FECEF173
:10F1B000C6F7202E2E2E2E2E2E0D0A00C0B20020B5
:10F1C000D5FDD4DAD6D8C1ACC8C8B5E3BACDB7FE40
:10F1D000CEF1C6F7202E2E2E2E2E2E0A0000000075
:10F1E0000D0AD6D8C1ACC8C8B5E3BACDB7FECEF1CA
:10F1F000C6F7B3C9B9A62CD3C3CAB1A3BA25642034
:10F200006D730D0A00000000D6D8C1ACC8C8B5E3C4
:10F21000BACDB7FECEF1C6F7B3C9B9A6A3A10D0A00
:10F2200000000000F0B5ADF5037D32208290232070
:10F23000819040208090A520102101246E468DF8F9
:10F240000010C11700EB516222F07F01401AC1B2D9
:10F25000D011002801DD41F08001224604F10104B3
:10F26000B154EEDC4FF0000304F1010033554FF0D0
:10F27000040500F1010235544FF04D0002F1010187
:10F28000B0544FF0510201F1010072544FF054019B
:10F2900000F10102315402F10104B15404F1010002
:10F2A00035554FF0C20100F10102315402F1010461
:10F2B000B3544FF0B40104F1010031559DF8091227
:10F2C00000F1010231549DF8080202F10104B0542A
:10F2D00006EB04009BA1829A08F02CFE829804445D
:10F2E000819800280EDD9DF80512601C31559DF8AF
:10F2F0000412451C315470199FA1819A08F01AFE1E
:10F3000081982C18809800280EDD9DF80112601C51
:10F3100031559DF80012451C315470199F49809A4F
:10F3200008F008FE80982C1800259D4F0AE0715DBA
:10F330003846FCF7CBFE40213846FCF734FF002866
:10F34000F9D06D1CA542F2D30DF5037DF0BD2DE97A
:10F35000F041ADF51A7D04464FF400711AA808F08B
:10F3600011FEC8211AA808F00DFE22468D4901A8F9
:10F370001FF086F84720009001A808F02CFE0546F3
:10F38000002705F14900302101241AAE8DF86810DC
:10F39000C11700EB516222F07F01401AC1B2D011B7
:10F3A000002801DD41F08001224604F10104B1543E
:10F3B000EEDC9DF8011004F1010031559DF80010BC
:10F3C00000F10108315406EB08007749009A08F073
:10F3D000B1FD009808EB00044FB17449601C4A78F5
:10F3E00032550A78441C32540868401C08603019B1
:10F3F0002A4601A908F09EFD25440024684F0BE031
:10F40000315D3846FCF762FE40213846FCF7CBFE02
:10F410000028F9D0641CE4B2AC42F1D30DF51A7D9A
:10F42000BDE8F0812DE9F041ADF53E7D04464FF495
:10F43000007128A808F0A6FD982102A808F0A2FDF6
:10F44000207A012854D000285ED0206809F014F8F2
:10F450006268009202460B46554902A81FF010F858
:10F460004720019002A808F0B6FD0546002705F1E7
:10F4700049003021012428AE8DF8A010C11700EBFF
:10F48000516222F07F01401AC1B2D011002801DD83
:10F4900041F08001224604F10104B154EEDC9DF8F4
:10F4A000051004F1010031559DF8041000F1010828
:10F4B000315406EB08003C49019A08F03BFD0198E5
:10F4C00008EB00045FB13949091D601C4A783255C8
:10F4D0000978441C315435484168491C4160301951
:10F4E0002A4602A908F026FD254400242C4F23E0DB
:10F4F000206808F0C1FF6268009202460B462D4961
:10F5000002A81EF0BDFFABE7206808F0B5FF6268F7
:10F51000009202460B46284902A81EF0B1FF9FE761
:10F52000315D3846FCF7D2FD40213846FCF73BFE02
:10F530000028F9D0641CE4B2AC42F1D30DF53E7D55
:10F540006EE700003634656333343034303637319B
:10F550006265363136303830653133615F44545539
:10F560005F7465737430315F305F305F32303233D7
:10F570003038323830360000363465633334303456
:10F580003036373162653631363038306531336187
:10F590005F4454555F74657374303100505E0608E3
:10F5A00000480040DC5E0608945E0608F00000207B
:10F5B000E05F0608845F0608245F060808B54FF47C
:10F5C000A060FBF78DFA26208DF8000001208DF851
:10F5D00001008DF802008DF803006846FBF785FAFC
:10F5E00008BD30B585B001210420FCF738F90121B0
:10F5F0004804FCF73FF90424ADF8104018208DF8BA
:10F60000130003208DF81200ED4D04A92846FBF7E6
:10F61000CAFE0821ADF810108DF8134004A9284641
:10F62000FBF7C1FE4FF4E13000900020ADF804007C
:10F63000ADF80600ADF80800ADF80C000C20ADF8F0
:10F640000A00E04C69462046FCF764FCFFF7B6FF71
:10F65000012240F225512046FCF7E3FC012120461F
:10F66000FCF7D3FC05B030BD10B504462046FCF7CE
:10F670002DFD80212046FCF796FD0028F9D010BD15
:10F6800070B506460D4600243046295DFFF7ECFFB5
:10F69000641C285D0028F7D140213046FCF783FD2B
:10F6A0000028F9D070BD70B50546080ACCB20146F5
:10F6B0002846FCF70BFD80212846FCF774FD002846
:10F6C000F9D021462846FCF701FD80212846FCF7A9
:10F6D0006AFD0028F9D070BD2DE9F047BA4E002729
:10F6E000307530464FF0020941758275C3750A21A5
:10F6F0000520324686F82A00117602F1140147549B
:10F70000B2A01EF0ADFE0024DFF8B88210E035197B
:10F710004046297DFCF7DAFC80214046FCF743FD9A
:10F720000028F9D0297DADA01EF09AFE641CE4B239
:10F7300096F82A00A042EAD806F8289FB77077709A
:10F74000BDE8F0872DE9F84F9F4C4FF0010B207872
:10F7500031280ED084F828B0A1A01EF081FEA44864
:10F7600090F82D0002281AD8BDE8F84F9CA0FEF7AB
:10F770007FBC6078332817D036287DD0392810D048
:10F7800084F828B09BA01EF06BFE994890F82D00DD
:10F79000022802D897A0FEF76BFC84F828B0BDE8D9
:10F7A000F88F84F828B0FAE787498878C978974AAB
:10F7B000303911710026B146B0460427C01C0090B4
:10F7C0003DE08148C05D2E2828D0303800F0FF0A87
:10F7D000B9F1000F25D008F1010808F0FF084046F4
:10F7E00008F010FE02460B46002089491FF0ECFC91
:10F7F00004460D46504608F005FE22462B4608F00A
:10F8000084FD04460D46304608F036FE22462B465F
:10F8100008F0D4FC08F043FE06460EE04FF0010964
:10F820000BE0504608F0E9FD04467A49304608F0FE
:10F8300055FC214608F0FAFB06467F1CFFB20098F3
:10F840008742BED3714C26607348066021790172ED
:10F85000674D95F82C0008F0D0FD314608F03CFECD
:10F8600001D22079F0B395F82C0008F0C6FD21688C
:10F8700008F03CFE04D200E089E02079012850D055
:10F8800095F82C0008F0B9FD216808F025FE02D299
:10F890002079012861D095F82C0008F0AEFD216890
:10F8A00008F024FEBFF47FAF207900287FF47BAFFF
:10F8B000454880F828B0206808F0DEFD02460B4677
:10F8C00056A01EF0CDFD95F82D0003283FF66BAF36
:10F8D000206808F0D1FD01B00246BDE8F04F0B46AC
:10F8E0004EA000E001E0FEF7C3BB206808F0C4FDB5
:10F8F00002460B464FA01EF0B3FD95F82D000328DD
:10F9000007D8206808F0B8FD02460B4649A0FEF76C
:10F91000AFFB01B03123BDE8F04F3022362118464D
:10F92000DAE6206808F0A8FD02460B4649A01EF062
:10F9300097FD95F82D00032807D8206808F09CFD56
:10F9400002460B4643A0FEF793FB01B03023BDE80F
:10F95000F04F36211A463120BEE61B4880F828B009
:10F96000206808F089FD02460B4640A01EF078FD95
:10F9700095F82D000328A9D8206808F07DFD01B076
:10F980000246BDE8F04F0B4638A0FEF771BB0123DD
:10F9900000202218215C127D914201D0002303E057
:10F9A000401CC0B20428F4D3012B05D034A01EF0B3
:10F9B00057FD84F828B0F2E635A01EF051FDF8E7B7
:10F9C0000008014000440040FCB20020D6F7BBFA1A
:10F9D000B7A2CBCDC2EBCEAAA3BA0A002563000022
:10F9E000BDD3CAD5B5D8D6B7B4EDCEF3000000006C
:10F9F000C0B20020B7B5BBD8B1A8CEC4B5C4B9A6B3
:10FA0000C4DCC2EBCEB4D6AA0A000000000200207B
:10FA10000000244000002041F0B20020C5A8B6C874
:10FA2000CEAA20256620A3ACD7B4CCACD5FDB3A319
:10FA30000A000000C5A8B6C8B3ACB1EAA3A1D6B508
:10FA4000202566202CC1C1BEAFB8E6B5C6A3A10A69
:10FA500000000000C5A8B6C8BBD6B8B4CEAA202501
:10FA60006620A3ACC3F0B5C6A1A30A00C5A8B6C85A
:10FA7000B3ACB1EAA3A1D6B5CEAA202566200A0070
:10FA8000D0DEB8C4BCC4B4E6C6F7CAA7B0DC0A006E
:10FA9000D0DEB8C4BCC4B4E6C6F7B3C9B9A60A0080
:10FAA0001648016841F080710160154800214160ED
:10FAB000016841F0010101607047114840687047DA
:10FAC00001B500210F48104A0068B0FBF2F300981E
:10FAD0004343FFF7F2FF0246FFF7EFFF9042FBD0F0
:10FAE00003D9A0EB0202114403E06FEA02020244D0
:10FAF000114402469942EFD308BD0000FCED00E03E
:10FB0000001000E00000002040420F0010B501216D
:10FB10004FF0C050FBF7AEFE0120FBF733FDFBF7C3
:10FB20003BF80120FBF737FE6120FBF7A7FD00281B
:10FB3000FAD04FF40070FBF731FE0120FBF733FEE3
:10FB4000FBF73EFFFBF736FF01210846FBF7DEFE21
:10FB5000FBF730FF49F63F40FBF707FFBDE81040D9
:10FB6000FBF728BF10B551485149C288A2F26C7208
:10FB70004A610279521E0A61C278CA6082788A603C
:10FB800042784A6000780860084608F07FF9FBF781
:10FB9000DFFEBDE81040FBF70DBF08B5FBF7CFFE59
:10FBA00000F5E1400090684608F0F2FC01462C2286
:10FBB0003F4808F0BFF93E483C49828A02F26C7225
:10FBC000CA80027C521C0A71027BCA70027A8A7057
:10FBD00002794A700078087008BD10B588B0334CBF
:10FBE00034A106A8E2881EF04BFC227931A105A8B9
:10FBF0001EF046FCE2782FA104A81EF041FC9DF8FF
:10FC00001520002030213AB98DF816009DF81420F7
:10FC10008DF815208DF814109DF811203AB98DF843
:10FC200012009DF810008DF811008DF8101004A836
:10FC3000009005AB06AA20A101A81EF021FC01A896
:10FC400008B010BD10B588B0184C1AA107A8A2784A
:10FC50001EF016FC627817A106A81EF011FC22788F
:10FC600014A105A81EF00CFC9DF8192000203021DD
:10FC70003AB98DF81A009DF818208DF819208DF8E2
:10FC800018109DF815203AB98DF816009DF814004B
:10FC90008DF815008DF8141005A8009006AB07AA82
:10FCA00007A102A81EF0ECFB02A8C9E734B30020AC
:10FCB000304E002025640000257325732573000055
:10FCC0002825733A25733A257329000001B502E00F
:10FCD0000098401E009000980028F9D108BD2DE939
:10FCE000F84F01216020FBF7BAFD03248DF8024094
:10FCF00018258DF803504FF48047ADF80070694621
:10FD0000FE48FBF750FB4FF40048ADF80080694611
:10FD1000FA48FBF748FB0120ADF800006946F748B8
:10FD2000FBF741FB0220ADF800006946F348FBF702
:10FD30003AFB8026ADF800606946F148FBF733FBDB
:10FD40004FF48079ADF800906946ED48FBF72BFB46
:10FD50004FF4007AADF800A06946E948FBF723FBB1
:10FD60004FF4806BADF800B06946E548FBF71BFB2C
:10FD70003001ADF800006946E148FBF714FB700163
:10FD8000ADF800006946DE48FBF70DFBB001ADF8A9
:10FD900000006946DA48FBF706FBADF800706946DB
:10FDA000D748FBF700FBADF800806946D448FBF765
:10FDB000FAFAADF800906946D048FBF7F4FAADF8CE
:10FDC00000A06946CD48FBF7EEFAADF800B06946F1
:10FDD000CA48FBF7E8FA8DF802408DF80350102569
:10FDE000ADF800506946C548FBF7DDFA2020ADF8B4
:10FDF00000006946C148FBF7D6FAADF800606946D5
:10FE0000BE48FBF7D0FAE801ADF800006946BB48F0
:10FE1000FBF7C9FA8DF803508DF802400220ADF8C7
:10FE200000006946B648FBF7BEFA8DF803508DF81E
:10FE300002402802ADF800006946B048FBF7B3FA6B
:10FE4000BDE8F88F00B597B03C2108A808F09AF8F3
:10FE50001C2101A808F096F801210802FBF7F4FC28
:10FE6000012001900420039080060790002002905A
:10FE70000490059006900890099008210A9110219D
:10FE80000B910C900E900F9010900902119112900E
:10FE90001390149001A81590169008A8FAF7F5FF92
:10FEA00001210020FBF725F917B000BD10B5042093
:10FEB0004FF0C044208093490888088808884FF68E
:10FEC000FF7303EA002208881043A0F50542523A66
:10FED0000DD0D320208008880888088803EA0022F3
:10FEE00008881043A0F51341413900D0002010BD0F
:10FEF00010B5FFF7DBFF8449C880844A8149A0F52B
:10FF000013434FF0C044413B7ED0A0F50543523B24
:10FF10007BD1CF20208000200880C12008803020A5
:10FF20000880ED20208064200880032008801220B3
:10FF3000088081200880E82020808520088010200B
:10FF4000088078200880CB202080392008802C2051
:10FF50000880002008803420088002200880F720D4
:10FF6000208020200880EA2020800020088008804F
:10FF7000C020208021200880C120208011200880FE
:10FF8000C52020802D200880332008803620208046
:10FF9000002008803A20208055200880B120208051
:10FFA0000020088017200880B62020800A200880C2
:10FFB000A2200880F62020800120088030200880C0
:10FFC000F220208000200880262020800120088048
:10FFD000E0202080D02008800020088002200880B7
:10FFE000072008800B2008801A2008803120088014
:10FFF0005420088040200880292008801220088092
:020000040801F1
:1000000008800880172001E029E027E00880E1202F
:100010002080D0200880002008800220088007204F
:10002000088005200880252008802D200880442095
:100030000880452008801C20088018200880162091
:1000400008801C2008801D20088011202080104678
:10005000FFF73CFE292020802C20208010BDCF20DF
:100060002080002008808120088030200880ED203A
:1000700020806420088003200880122008808120CE
:100080000880E820208085200880102008807820C3
:100090000880CB202080392008802C200880002078
:1000A00008803420088006200880F7202080202047
:1000B0000880EA202080002008800880B12020806D
:1000C000002008801B200880B62020800A2008809D
:1000D000A2200880C020208035200880C1202080F8
:1000E00011200880C5202080452008800880C72076
:1000F0002080A2200880F220208009E00014014026
:100100000018014000000260F8000020FCBF02005F
:10011000002008802620208001200880E020208008
:100120000F20088026200880242008800B200880CB
:100130000E2008800920088054200880A82008800C
:10014000462008800C20088017200880092008809D
:100150000F2008800720088000200880E1202080F0
:1001600000200880192008801B20088004200880B7
:1001700010200880072008802A2008804720088057
:10018000392008800320088006200880088030205D
:100190000880382008800F20088036202080C82062
:1001A00008802A2020800020088008800880EF2016
:1001B00008802B20208000200880088001200880F3
:1001C0003F2008803A202080552008801120208080
:1001D0001046FFF77BFD2920208010BD30B5072891
:1001E0003BD8F84B1870C4074FF0F0014FF4A072E1
:1001F00014D05A80998036210C072180DA88F24980
:10020000A2F51345413D04D0A2F50545523D08D065
:1002100009E0082242EA4010088004E059809A80F0
:10022000E9E7400108802A2020800020088008801B
:100230005888401EC0F307220A80C0B208802B20D5
:1002400020800020088008809888401EC0F3072284
:100250000A80C0B208802C20208030BD70B5DB4CF5
:1002600002212046FBF710F940F6FF252846FFF74C
:100270002DFD02212046FBF705F92846BDE8704018
:1002800024E5D34A4FF48051002802D01046FBF7F2
:10029000FBB81046FBF7F6B810B5FFF720FDFFF7E7
:1002A000D1FD0120FFF7EDFFFFF7D8FFFFF720FE9C
:1002B00006242046FFF792FF0021204601F0ECF8CB
:1002C0002046BDE8104001F05FBA70B52A244FF017
:1002D000C0463480050ABC4C2580C5B22580104438
:1002E000401E020A2280C0B220802B203080080AE3
:1002F0002080C8B22080C818401E010A2180C0B2E8
:10030000208070BD01231A46DFE710B500222C23A0
:10031000DC062380AC4B01E01980521C8242FBD3E7
:1003200010BD30B514461D462B462246FFF7CDFFC3
:10033000A44904FB05F04989BDE83040E5E710B564
:10034000A04C6288904209D2A288914206D2FFF75F
:10035000D9FF2189BDE810400120D6E710BD2E202D
:100360004FF0C0410880984908880888098800F43F
:1003700078424FF4FC6303EAC000024342EAD12012
:10038000704710B5FFF7BEFFBDE81040E7E72DE965
:10039000FE4F00250026171AA3EB010882468B4664
:1003A000681E002F03DD4FF00101019107E003D12A
:1003B0004FF00001019102E00190C7F10007B8F190
:1003C000000F03DD4FF00100009007E003D14FF074
:1003D0000000009002E00090C8F10008474501DDF0
:1003E0003C4600E044464FF00009601C029017E0D4
:1003F00059465046FFF7A3FF3D444644A54204DD5D
:100400002D1B019850441FFA80FAA64204DD361BCA
:10041000009858441FFA80FB09F101091FFA89F975
:1004200002988145E4DDBDE8FE8FF0B506460598EB
:100430000F4614461D4600280CD02B46224639464E
:100440003046FFF742FF5F4904FB05F00989BDE82C
:10045000F0405AE73444641EA2B23B463946304667
:10046000FFF795FF3D446D1EABB2A2B2A9B2304674
:10047000FFF78DFFABB2324639463046FFF787FFB4
:10048000ABB2A2B2A0B23946BDE8F0407FE72DE999
:10049000FF4F85B007468846002416B20320A0EB24
:1004A00042000FFA80F99DE00898E8B3254642E043
:1004B000381908EB050A04901FFA8AF180B2FFF799
:1004C0003EFF1FFA8AF1A7EB040A1FFA8AF0FFF732
:1004D00036FF08EB040081B2A7EB050B03901FFA6F
:1004E0008BF0FFF72CFFA8EB040081B202901FFAFB
:1004F0008BF0FFF724FFA8EB050B1FFA8BF11FFA17
:100500008AF0FFF71CFF04981FFA8BF180B2FFF707
:1005100016FF029807EB050A81B21FFA8AF0FFF76F
:100520000EFF039881B200E008E01FFA8AF0FFF79F
:1005300006FF6D1C2DB2B542BADD37E0381908EB65
:1005400006050190A9B280B2FFF7F9FEA7EB040AF5
:10055000A9B21FFA8AF0FFF7F2FE08EB040081B29D
:10056000A7EB060B00901FFA8BF0FFF7E8FEA8EB55
:100570000405A9B21FFA8BF0FFF7E1FEA8EB060B0A
:100580001FFA8BF11FFA8AF0FFF7D9FE01981FFAC4
:100590008BF180B2FFF7D3FEA9B2BD19A8B2FFF765
:1005A000CEFE009881B2A8B2FFF7C9FE641C24B247
:1005B000B9F1000F0EDA09EB8400801D0FFA80F903
:1005C00010E00000F8000020000002600018014068
:1005D00000140140A01B09EB80000A300FFA80F9DB
:1005E000761E36B2B4427FF75FAF09B0BDE8F08F38
:1005F0002DE9F043203A97B2FB4EF568AA88EB88C4
:1006000002FB03F44FEAE47C04EB5C74C4F3C7041C
:100610002D6807FB0455FFF758FE2C20C106088003
:100620000021DFF8C8C315E00020338972898027D4
:1006300015F8018027FA00F918EA090F02D0ACF882
:10064000003001E0ACF80020401CC0B20828EFD315
:10065000491CC9B2A142E7D3BDE8F083F0B5054615
:100660000E460024E04F19E0F8687B888188214419
:10067000994203D90024C18829448DB2C088B98821
:100680002844884201D90024002529462046FFF746
:10069000AFFF761CF8688088204484B23278002A44
:1006A000E2D1F0BDF0B504460D461646CE4F19E036
:1006B000F8687B8881882144994203D90024C18845
:1006C00029448DB2C088B9882844884201D90024C1
:1006D000002529462046FFF78BFF761CF8688088A6
:1006E000204484B23278002AE2D1F0BDF0B505464C
:1006F0000C461646BC4F19E0F868BB88C1882144F7
:10070000994203D90024818829448DB28088798850
:100710002844884201D90025002421462846FFF7B5
:1007200067FF761CF868C088204484B23278002ABB
:10073000E2D1F0BD2DE9F04389B0144610231A46EA
:10074000FFF7C3FD2C20C3061880214601A800F046
:10075000A7FA0021DFF890C2A44D01AF4FF6FF7851
:100760004FF4004617F8110008EA002007EB410299
:10077000547804430020BCF80820BCF80A3026FA5C
:1007800000F919EA040F01D02A8000E02B80401CF8
:10079000C0B21028F3D3491CC9B21029E2D309B062
:1007A0005AE72DE9F04104460D4616468E4F1AE0F1
:1007B000798804F11000884202D900241035ADB2C6
:1007C000B98805F11000884201D90024002530883D
:1007D000010201EB102082B229462046FFF7AAFF52
:1007E0001034A4B2B61C30780028E1D1BDE8F08105
:1007F0002DE9F04105460E4600247B4F37E07E2A66
:100800001AD8F8687B8881882144994203D900244A
:10081000C18829448DB2C088B9882844884201D94A
:100820000024002529462046FFF7E2FEF86880886C
:10083000204484B2761C1AE0798804F110008842C2
:1008400002D900241035ADB2B98805F110008842F4
:1008500001D9002400253088010201EB102082B26A
:1008600029462046FFF766FF1034A4B2B61C327842
:10087000002AC4D1BAE72DE9F04104460D461646D8
:10088000594F37E07E2A1AD8F8687B88818821443E
:10089000994203D90024C18829448DB2C088B988FF
:1008A0002844884201D90024002529462046FFF724
:1008B0009FFEF8688088204484B2761C1AE079880C
:1008C00004F11000884202D900241035ADB2B98875
:1008D00005F11000884201D900240025308801026A
:1008E00001EB102082B229462046FFF723FF103487
:1008F000A4B2B61C3278002AC4D177E72DE9F041C2
:1009000006460C461546384F24E0B98804F110001D
:10091000884202D900241036B6B2798806F1100058
:10092000884201D9002600247E2A07D82146304675
:10093000FFF75EFE6D1C1034A4B20BE028880102A4
:1009400001EB102082B221463046FFF7F3FE10344F
:10095000A4B2AD1C2A78002AD7D147E72DE9F04F81
:10096000099F0B9D040494FBF2F909F101090C04A1
:1009700094FBF3FA0AF1010A002620286DD200FB4D
:1009800001F4002C69D0B4F5806F66DA02FB03F441
:10099000002C62D0B4F5804F5FDA154C41434FEA2A
:1009A000E17C4FF0800B01EB5C7E0DB1002536E061
:1009B000002514E0002117F805802BFA01FC18EA45
:1009C0000C0F02D04FF0010C01E04FF0000C04F8C6
:1009D00001CB491C89B20829EDD36D1CADB2B5EB32
:1009E000EE0FE7DB1EE00000F800002000000260D0
:1009F0005C8E0020002117F805802BFA01FC18EA14
:100A00000C0F02D04FF0010C01E04FF0000C04F885
:100A100001CB491C89B20829EDD36D1CADB2B5EBF1
:100A2000EE0FE7DBDFF86482A8F58045002712E0CF
:100A30000024310C00FB018C002107E00CEB144B6F
:100A40009BF800B005F801B04C44491C9142F5D325
:100A5000564415447F1C9F42EAD3C7E52DE9F04375
:100A60001746DDE90748994600254B463A46FFF709
:100A70002CFC2C20C1060880854B864A0EE0002005
:100A800059891E8907E014F801CBC44501D11180B2
:100A900000E01680401CB842F5D36D1C4D45EED3E6
:100AA000DAE52DE9F04F8BB00446DDE9145A0F4624
:100AB000904699464646DFF8E0B157E07449A219DE
:100AC0004B889A4203D9002407EB090297B2898820
:100AD00007EB09028A4201D90024002780281FD988
:100AE00046462888010201EB102081B203A800F0DD
:100AF000D7F803AA0121CDE90028029110214B4625
:100B000032460846FFF72AFFCDE900BA4B46324687
:100B100039462046FFF7A2FFA01984B2AD1C25E09C
:100B20004FEA58062038C1B25C480023C288B0F8AA
:100B300004C0006802FB0CF24A43D11702EB51716A
:100B4000CDE9018300EBE10000904B4632461821CD
:100B50001020FFF703FFCDE900BA4B463246394675
:100B60002046FFF77BFFA01984B26D1C287800286F
:100B7000A4D10BB03AE52DE9F04F8BB00746DDE983
:100B800014590C4616469846DFF80CB158E0404917
:100B9000A2194B889A4202D90024BA1997B28988BF
:100BA00007EB08028A4201D900240027802820D9B7
:100BB000B2462888010201EB102081B203A800F0A0
:100BC0006FF803AA0121CDE90026029110214346C6
:100BD00052460846FFF7C2FECDE900B943465246E9
:100BE00021463846FFF73AFF04EB080084B2AD1CFB
:100BF00026E04FEA560A2038C1B228480023C288AE
:100C0000B0F804C0006802FB0CF24A43D11702EBB3
:100C10005171CDE9016300EBE1000090434652467B
:100C200018211020FFF79AFECDE900B9434652463D
:100C300021463846FFF712FF04EB080084B26D1C12
:100C400028780028A3D194E71149C860704710485C
:100C5000C06870470E4A1081518170470C4A138951
:100C60000380508908807047094908817047084906
:100C70004881704700B50146FFF7E9FFC388044883
:100C8000428800205DF804EBFFF74BBB5C8E002030
:100C9000F8000020000002605C4E002010010020DF
:100CA00070B505460C460F4E3078002803D100F091
:100CB0008FFD01203070220AE1B2A13AC2EB02108E
:100CC00000EB421001EB4000A1380102C81701EB14
:100CD0005070C110044820220144284600F0F5FE5F
:100CE000002070BD18010020003018002DE9F843E5
:100CF00001216020FAF7B3FD0124ADF800408DF822
:100D0000024010258DF80350DFF8348469464046D0
:100D1000FAF749FB0420ADF8000069464046FAF7AF
:100D200042FB0820ADF800008DF8024048268DF8FF
:100D3000036069464046FAF736FB6703ADF800707A
:100D40008DF802408DF80350FE4C69462046FAF7B4
:100D50002AFB39462046FAF797FBADF800508DF88C
:100D6000036069464046FAF71EFBBDE8F88301B50B
:100D7000002104E00C20401EC0B2FCD2491C0098A7
:100D80008142F7D308BD70B50646ED4D04212846D3
:100D9000FAF77AFB01212846FAF776FB0024C4F122
:100DA000070126FA01F0C00704D004212846FAF70B
:100DB00069FB03E004212846FAF766FB0520FFF7EC
:100DC000D6FF01212846FAF75DFB0520FFF7CFFF8C
:100DD00001212846FAF758FB641CE4B2082CDED344
:100DE00070BD70B50025D64E04213046FAF74CFB95
:100DF00001213046FAF746FB002401213046FAF77C
:100E000043FB08213046FAF729FBC4F10B01884067
:100E1000284385B201213046FAF734FB641CE4B262
:100E20000C2CEAD3284670BD10B5FFF7ACFFBDE827
:100E30001040D6E770B506460D469020FFF7F4FF48
:100E400004460120FFF793FFD020FFF7EDFF348029
:100E5000288070BD2DE9F0418CB006460024282181
:100E6000684607F08FF8B64F6D460AA90BA8FFF742
:100E7000E1FFBDF82C0025F8140005EB4401BDF896
:100E800028008882641CE4B210213846FAF7E6FA9A
:100E900008B90A2CE9D310213846FAF7DFFA10B165
:100EA000A949002008700A2C03D000200CB0BDE82E
:100EB000F081BDF9000080460446BDF91470BC46BF
:100EC000012135F91130A34201DA1C4602E08342C8
:100ED00000DD1846491CC9B20A29F2D3012105EBED
:100EE0004102B2F91420BA4201DA174602E0624523
:100EF00000DD9446491CC9B20A29F0D3BDF902109D
:100F0000BDF90420BDF9063041441A441144BDF92D
:100F100008201144BDF90A201144BDF90C201144E8
:100F2000BDF90E201144BDF910201144BDF9122065
:100F30001144091B081AC0103080BDF91400BDF916
:100F40001610BDF91A200844BDF9181011440844C0
:100F5000BDF91C100844BDF91E100844BDF920104D
:100F60000844BDF922100844BDF924100844BDF915
:100F700026100844C01BA0EB0C00C010708001209C
:100F800094E72DE9F04705460C4616460127B4F9CB
:100F90000010B4F91000B4F90A300A1AB4F91210AA
:100FA0005B1A5A43B4F90830C01AB4F90230591A1E
:100FB00000FB012007F018FAB06110F0FF4F7CD061
:100FC000B5F90010B5F91000B4F90A300A1AB4F9ED
:100FD00012105B1A5A43B5F90830C01AB4F902303E
:100FE000591A00FB012007F0FFF93060B4F9001036
:100FF000B4F91000B5F908300A1AB5F910105B1AE7
:101000005A43B5F90030C91AB4F90830181A01FB6F
:10101000002007F0E9F97060B4F91000B5F9083064
:10102000B4F90810B5F910C000FB03F201FB1C284D
:10103000B4F9022008FB02F8B4F9002002FB0CF915
:10104000B5F900C000FB1C9001FB0CF1B4F90A904B
:1010500002FB131100FB0980B4F9122001FB02000E
:1010600007F0C2F9B060B5F90210B5F91200B4F991
:101070000A300A1AB4F912105B1A5A43B5F90A3049
:10108000C01AB4F90230591A00FB012007F0ACF97C
:10109000F060B4F90010B4F91000B5F90A300A1A7A
:1010A000B5F912105B1A5A43B5F90230C91AB4F9EE
:1010B0000830181A01FB002000E02BE007F094F93B
:1010C0003061B4F91000B5F90A30B4F90810B5F977
:1010D00012C000FB03F201FB1C28B4F90220B5F991
:1010E000025008FB02F8B4F90020694302FB0CFC33
:1010F00000FB15C0B4F90AC002FB131100FB0C8001
:10110000B4F9122001FB020007F06EF97061384655
:10111000BDE8F0870027FAE770B504460D4604F1F4
:101120000A0082B2143880B22B462946FFF72FF905
:1011300005F10A0083B20A3DA9B22246204605E025
:1011400000180140001401401C010020BDE870405F
:10115000FFF71DB92DE9F14FB4B0FE48FFF774FD5C
:1011600000211F20FFF776FD3498FFF737F8DFF8EE
:10117000E8B3BBF800008108ADF84410F74D2B88A8
:101180009A08ADF84620ADF84C1003EB430141F34B
:101190008F01ADF84E1000EB400040F38F00ADF82A
:1011A0005400ADF85610ADF85C00ADF85E20002498
:1011B000DFF8ACA30DF144080DF12409E74D00213F
:1011C000BBF800202B880846FFF7ABF8E5A6FFF731
:1011D0003EFD8088BBF80010B1FBF0F7304606F00A
:1011E000FAFE381A42082023E4A119A800961DF03F
:1011F00047F9288819A94008FFF730FAFFF727FDBB
:101200008088BBF80010661CB1FBF0F0401E00EBBC
:10121000D07042102023DBA119A800961DF030F9F0
:10122000FFF715FDC0882988C0EB510080B219A9CD
:10123000FFF714FA5046FFF79AFD08EBC400418807
:1012400038F83400FFF768FF09EBC4042046FFF7C5
:1012500001FE0028FAD0F4B2042CAFD302AA09A9E7
:1012600011A8FFF78EFE089810F0FF4F7ED0BDF951
:101270003E0007F0B9F80546039906F02FFF044633
:10128000BDF93C0007F0B0F8029E0746314606F073
:1012900025FF214606F0CAFE049906F0C7FE08990C
:1012A00006F04EFF07F0D4F884B22846069906F0FF
:1012B00015FF05463846059906F010FF294606F049
:1012C000B5FE079906F0B2FE089906F039FF07F05F
:1012D000BFF880B2BDF95C10A14201DA611A00E0EA
:1012E000091B8AB2BDF95E10814201DA401A00E0A2
:1012F000081A80B20F2A39D80F28FCD8089807F0AE
:10130000BBF8CDE9321004460D46304607F0B4F87C
:1013100022462B4606F0F9FF07F0C1F80146349843
:10132000DFF8689200EB400749F83710DDE93254E6
:10133000039807F0A1F822462B4606F0E6FF07F0D7
:10134000AEF809EBC70ACAF80400DDE93254049884
:1013500007F092F822462B4606F0D7FF07F09FF8D9
:10136000CAF80800DDE93276059800E04EE007F0A3
:1013700083F832463B4606F0C8FF07F090F8CAF8FB
:101380000C00DDE93298069807F076F842464B46A5
:1013900006F0BBFF07F083F8CAF81000DDE932540D
:1013A000079807F069F822462B4606F0AEFF07F0D3
:1013B00076F8CAF81400694D0021BBF800202B888C
:1013C0000846FEF7AEFF4FF4FC60FFF74DFC70A43B
:1013D000FFF73DFC8088BBF80010B1FBF0F620461B
:1013E00006F0F9FD301A4208202364A119A80094E0
:1013F0001DF046F8288819A94008FFF72FF9694819
:10140000FFF7B5FC012035B0BDE8F08F534C00214B
:10141000BBF8002023880846FEF783FF4FF478408E
:10142000FFF722FC60A5FFF712FC8088BBF80010D4
:10143000B1FBF0F6284606F0CEFD301A4208202314
:101440004EA119A800951DF01BF8208819A9400885
:10145000FFF704F958A5FFF7FAFB8088BBF80010E6
:10146000B1FBF0F6284606F0B6FD301A42082023FC
:1014700042A119A800951DF003F8FFF7E8FBC0880A
:10148000218800EB510080B219A9FFF7E7F8454821
:10149000FFF76DFC0020B6E7F8B506460C460020C5
:1014A000009000F095F9012295022946684600F067
:1014B0000CFB9DF80000A52801D0012200E00022CD
:1014C000012C07D000231A434FF4006720D0A52831
:1014D00002D008E00123F6E7012C04D1C0223946EE
:1014E0002A4800F0F2FA3046FFF734FE0028FAD01E
:1014F000002000F023FAA52000900122294668462A
:1015000000F07EFAC0223946204800F079FAF8BD92
:10151000C02239461D4800F0D8FAF8BD2DE9FC4735
:1015200006460F464FF001086846FFF793FC78B176
:10153000BDF9020006F058FF02462248007800EB91
:10154000400507EBC5041046616806F0C7FD3BE0A7
:1015500065E0000008010020FA000020FC000020E7
:10156000E0930400546F7563682043616C69627294
:10157000617465202E2E2E2E2E2E0000252A632526
:1015800073000000252A632564000000300100205C
:1015900043616C696272617465205375636365644D
:1015A0000000000040420F0043616C696272617488
:1015B00065206661696C00007472792061676169F9
:1015C0006E000000F80000208146BDF9000006F022
:1015D0000BFF57F8351006F081FD494606F026FD51
:1015E000A16806F023FD06F01AFF3080BDF9020065
:1015F00006F0FAFE216906F071FD0546BDF900000E
:1016000006F0F2FEE16806F069FD294606F00EFDDF
:10161000616906F00BFD06F002FF708001E04FF0FB
:1016200000084046BDE8FC872DE9F0410026644CE7
:101630000025012761786348002908D04FF002088F
:1016400001290CD002291DD0657030462FE41021ED
:10165000F9F704FF08B16570F7E76770F5E7102147
:10166000F9F7FCFE10B1A5606570EEE7A068401CBC
:10167000A060022804D9A56084F801800126E4E76F
:101680006770E2E71021F9F7E9FE08B16570DCE761
:1016900084F801800126D8E77047704770B5FFF7DE
:1016A000C3FF4949464C202201230D1D02260C345C
:1016B00001280BD00A600B602E602046FFF7EDFF7B
:1016C000F01E20806080A080E08070BD0A602B60EA
:1016D0000E603B491431A1F10800FFF71FFF3848A5
:1016E0000C30FFF7D9FF2088A0806088E08070BDB3
:1016F0002DE9FC41064610213248F9F7AFFE10B142
:101700000020BDE8FC8100246D463046FFF73BFB1E
:10171000FFF767FB25F81400641CE4B2042CF4D333
:1017200000221346511C0846C9B208E035F81340A0
:1017300035F81170BC4200D90B46491CC9B20429C6
:10174000F4D335F8121035F8134025F8124025F877
:101750001310C2B2032AE4D3BDF80410BDF802008E
:10176000174A0B1A052B05DD902E01D09088C8E78B
:101770005088C6E7902E03D0084440089080C0E708
:10178000084440085080BCE7F0B51049A522C823A2
:101790009026D02740F67E6540F6E464062808D0FF
:1017A000032805D10B804C808A80CD804F810E812B
:1017B000F0BD0D804A808B80CC804E810F81F0BDC2
:1017C0001C01002000180140100C01405C92002018
:1017D00070B586B001210803FAF741F80121D42041
:1017E000FAF73DF80124ADF8004003208DF802001F
:1017F00010208DF80300FA4D69462846F9F7D3FD0D
:101800002021ADF8001018218DF80310F54E69461F
:101810003046F9F7C8FD4021ADF800106946304662
:10182000F9F7C1FD8021ADF8001069463046F9F79F
:10183000BAFD01212846F9F725FE0020ADF8040085
:101840004FF48271ADF80610ADF808000221ADF832
:101850000A10ADF80C400902ADF80E100821ADF8E1
:101860001010ADF812000720ADF81400DE4C01A9ED
:101870002046FAF7D9F901212046FAF75AFA06B0BC
:1018800070BD10B50146D9A01CF0EAFD002010BDC6
:101890002DE9F0410746E14C4FF480552560D24ECA
:1018A00009E02068411E216005D20020FFF7E9FF12
:1018B000C0B2BDE8F08102213046FAF7B6FA00283E
:1018C000EFD039463046FAF764FA256008E021681F
:1018D0004A1E226004D20120FFF7D3FFC0B2E8E71E
:1018E00001213046FAF7A1FA0028F0D03046FAF785
:1018F00052FAC0B2DDE710B5B94C01212046F9F724
:10190000C3FD0520FFF7C4FFFF20FFF7C1FFC0079D
:10191000FAD12046BDE810400121F9F7B3BD10B55A
:10192000AF4C01212046F9F7AFFD0620FFF7B0FFCD
:101930002046BDE810400121F9F7A4BD70B504466A
:10194000FFF7EDFFFFF7D7FFA54D01212846F9F777
:101950009BFD2020FFF79CFFC4F30740FFF798FF93
:10196000C4F30720FFF794FFE0B2FFF791FF0121D6
:101970002846F9F787FDBDE87040BCE710B5FFF7D2
:10198000CEFF974C01212046F9F77EFDC720FFF7D7
:101990007FFF01212046F9F775FDBDE81040AAE759
:1019A0002DE9F04105460F461446FFF7B8FF8C4E6F
:1019B00001213046F9F768FD0220FFF769FFC7F300
:1019C0000740FFF765FFC7F30720FFF761FFF8B295
:1019D000FFF75EFFB015844208D9044690A01CF0C2
:1019E0003FFD03E02878FFF753FF6D1C641EA4B28F
:1019F000F8D201213046F9F745FDBDE8F0417AE71C
:101A00002DE9F04706460D46E8B24142CFB2140A2E
:101A100002F0FF094FF48078002812D0E8B240426B
:101A2000C0B205EB000A24B3D01B80B2040A00F058
:101A3000FF093A4629463046FFF7B2FF55463E4475
:101A400035E06CB929463046BDE8F047A8E7424684
:101A500029463046FFF7A4FF05F5807506F5807628
:101A6000641EE4B2F3D24A4629463046BDE8F04748
:101A700096E7B9450DD9A9EB0700C4B23A46294605
:101A80003046FFF78DFF5146F0192246BDE8F0477A
:101A900086E729463046BDE8F04781E742462946B9
:101AA0003046FFF77DFF05F5807506F58076641EEC
:101AB000E4B2F3D2B9F1000F05D04A4629463046C8
:101AC000BDE8F0476CE7BDE8F0872DE9F04104463A
:101AD0000F461546424E01213046F9F7D5FC03204A
:101AE000FFF7D6FEC7F30740FFF7D2FEC7F3072084
:101AF000FFF7CEFEF8B2FFF7CBFE04E0FF20FFF7C2
:101B0000C7FE04F8010B6D1EADB2F7D23046BDE83A
:101B1000F0410121F9F7B6BC2DE9F041304F012128
:101B20003846F9F7B1FC9F20FFF7B2FEFF20FFF720
:101B3000AFFE0446FF20FFF7ABFE0546FF20FFF790
:101B4000A7FE064601213846F9F79CFC200440EA2E
:101B500005203043ADE670B5214C01212046F9F750
:101B600093FCAB20FFF794FEFF20FFF791FEFF20D0
:101B7000FFF78EFEFF20FFF78BFEFF20FFF788FEAA
:101B8000054601212046F9F77DFC284670BD10B5B9
:101B9000044601211248F9F777FC0320FFF778FE8D
:101BA000C4F30740FFF774FEC4F30720FFF770FE8D
:101BB000E0B2BDE810406BE6FF2069E62DE9F04198
:101BC0000746164C4FF480552560074E42E02068CA
:101BD000411E21603ED2BDE8F041022051E60000E6
:101BE0000010014000080140003001403C3C2D46FF
:101BF0004C4153482D4552524F522D3E3E2053509A
:101C00004920B5C8B4FDB3ACCAB1216572726F7218
:101C1000436F6465203D2025640A0000F001002028
:101C20003C3C2D464C4153482D4552524F522D3E7F
:101C30003E205350495F464C4153485F50616765B1
:101C4000577269746520746F6F206C6172676521CB
:101C50000A00000002213046FAF7E7F80028B6D063
:101C600039463046FAF795F8256007E021684A1EA4
:101C7000226003D2BDE8F041032002E60121304694
:101C8000FAF7D3F80028F1D03046BDE8F041FAF772
:101C900082B810B50E4C01212046F9F7F5FBB920AA
:101CA000FFF7F6FD2046BDE810400121F9F7EABB39
:101CB00010B5074C01212046F9F7E6FBAB20FFF7F2
:101CC000E7FD2046BDE810400121F9F7DBBB00002D
:101CD0000010014010B5FBF7E3FE30B1FBF722FF27
:101CE000FBF78DFF022804D006E096A01CF0B8FB9D
:101CF00002E099A01CF0B4FBFDF78BF8FCF750F85C
:101D000099A0FCF7B5F9012804D1BDE810409AA0CC
:101D10001CF0A6BB10BDFDF785FA9CA01CF0A0FB33
:101D20009E4890F82D00032802D898A0FCF7A0F94F
:101D30004FF4FA64FDF7BBF8204602F027F998A0AB
:101D40001CF08EFBF6E7954C01253C3484F82850B6
:101D5000924F4FF47A784FF00009A4F10C0694F8F2
:101D60002800012802D003282FD112E097F82A007A
:101D70004FF47A71484302F009F9382330223321B5
:101D80003120FDF7A9FC84F8345000F048F9E062F6
:101D90001BE084F8349000F042F92063E16A401AB5
:101DA0004FF47A714843B0FBF8F171607EA01CF0EB
:101DB00057FBFDF7C7FC8448007830B977483030CE
:101DC000FDF730FB81A01CF04BFB00F028F92063ED
:101DD000E16A401A4FF47A714843B0FBF8F197F882
:101DE0002B0000EB4002C2EBC010B1EBC00FB6D924
:101DF0007AA01CF035FB84F82850C6F800907B4888
:101E000070600220307265483030FDF70BFBA6E7AA
:101E100009F006FE0CF074F9052005F017FFF9E74C
:101E20006FF07F400BF0AEFC4FF47F000BF0B5FC81
:101E300009F03AFE6E480BF0CDFC00231A4605214E
:101E40006CA00BF03BFB6E220F210BF03DFBDC2264
:101E500014216C480AF0EAFA00200BF09EFC1E22C6
:101E60000A2169A00AF038F80A2002F08FF8F3E797
:101E70001CB5016803290AD00F2902D010F0DEF842
:101E80001CBD002211465F480AF0D0FA1CBD68460E
:101E900010F0A6FABDF90630BDF90420BDF9021014
:101EA000BDF9000009F00EFE1CBDFEB56FF07F40CD
:101EB0000BF068FC0020AFF247010222CDE90021BF
:101EC000029050486421438802880A200FF0EEFFF8
:101ED00005460AF0C9FC052002F058F80024A61EA9
:101EE00002221146284610F01BFF0AF0BDFC0A2012
:101EF00002F04CF83B2C0CD131460A46284610F033
:101F00000FFF0AF0B1FC0A2002F040F8641E002C1A
:101F1000F2DC641C3C2CE3DBFEBD05F059FF0A2417
:101F20003D4E64250AF0A0FC21B2306808F082FE24
:101F300094FBF5F005FB104000B9641C052002F08D
:101F400025F8EFE7CEC4BCFECFB5CDB3BDA8C1A286
:101F5000CAA7B0DCA3A10A00C5E4D6C3C9E8B1B8DA
:101F6000B3C9B9A6A3A10A00C8D5D6BEBDA8C1A24F
:101F7000B3C9B9A6A3A10A00C8D5D6BECFB5CDB303
:101F8000BDA8C1A2B3C9B9A6A3A10A00B7A2B3F65E
:101F9000C1ACBDD3B1A8CEC4A3A10A00C0B2002079
:101FA000776966690A000000BDD3CAD5CAFDBEDDE7
:101FB000B3C9B9A6A3ACD1D3CAB1CEAA2025642097
:101FC0006D73200A00000000CC000020B7A2B2BC54
:101FD0004D515454B1A8CEC40A000000BDD3CAD597
:101FE000CAFDBEDDB3ACCAB10A0000007F969800FE
:101FF0000C4F0608C4E3BAC3CED2CAC7C1BAD0F1E7
:102000000000000070260608416E616C6F67206951
:102010006E7075743A0A0000F0020020704718488C
:102020000068704710B5044602F086F914490C6048
:10203000BDE8104002F084B910B511490868401C91
:10204000086001F09FFE816C491E816419B9416CE2
:10205000816401F030FFBDE8104002F00CB90028A7
:1020600002DA4FF0FF30704700EB4001C1EBC010C7
:1020700040F2E73101EBC000491C90FBF1F07047E2
:1020800008020020002070470020704700207047A1
:102090000020704770B5234C234D02E02068804734
:1020A000241DAC42FAD370BD70B51F4C1F4D02E029
:1020B00020688047241DAC42FAD370BD10B5FFF7ED
:1020C000F3FFBDE81040FAF744B91CB50221142013
:1020D000CDE900100B020022AFF21F0114A001F0A5
:1020E000A7FEBDE81C4001F06EBE10B502F024F959
:1020F000FAF79AF801F088F902F0F2F801F0ECFC36
:10210000FFF7E3FF02F0F6F800F054F801F0FAFCF4
:10211000002010BD10B502F00FF9FFF7E6FF002018
:1021200010BD0000B8600608BC600608C060060864
:102130006D61696E0000000070B527E002F0FCF8E8
:10214000064600F051F868B32B480468A4F1140562
:10215000D4E900104860D4E900010860646024609C
:1021600001F05AFDA96F09B128468847284601F0B9
:1021700075FC01280FD001F05AFD304602F0E0F85E
:10218000A86A01F0E9FA284601F057FC00F02CF8A3
:102190000028D3D170BD01F04AFD3046BDE8704043
:1021A00002F0CEB83046BDE8704002F0C9B8FFF783
:1021B000C3FFFCE71FB52020C20007210F4BCDE96C
:1021C0000210CDE900320D4800230D4A0DA18038E0
:1021D00001F0BCFD04B00948BDE81040803801F0B2
:1021E000F2BD06488038704703480168814201D03B
:1021F0000120704700207047B8020020C0B30020C3
:10220000AF2101087469646C650000002DE9F0419C
:1022100005460E461446304601F079FE06F11407D5
:1022200014B1012C1DD104E03946284600F0D0FD40
:1022300017E02C680DE0A4F1140096F8351090F822
:102240003520914204D23946143000F0C1FD02E03D
:102250002468AC42EFD1AC4203D13946284600F0A5
:10226000B7FD0020BDE8F08170B505464FF0FF34A2
:102270000AE002F061F8064628681438046301F0A9
:1022800084FD304602F05CF8284600F0A8FD0028E6
:10229000EFD0002070BD2DE9F041054616461F46DF
:1022A0000A460121284601F077FB2C46143464606D
:1022B0002460AE836F720020D4E710B5044604F1A9
:1022C0001400FFF7D1FF204601F084FB002010BD71
:1022D00070B50C4615460146012001F089FB002827
:1022E00005D000F11401496009608483457270BD16
:1022F00010B5044604F11400FFF7B6FF204601F0C4
:102300009CFB002010BD73B5044602F015F806468C
:10231000A08B28B1401EA083304602F011F821E0C6
:10232000019808B301F02EFD054600202863627A6B
:10233000294604F11400FFF769FF0198002809DD20
:1023400005F14C0001AA0021044601F07AFF204665
:1023500001F0F9FE304601F0F3FF01F0E3FB286BDA
:10236000002800D100207CBD304601F0E9FF6FF06D
:1023700001007CBD0021C6E72DE9F041044600259F
:1023800001F0DAFF064604F11400074600F027FDCD
:1023900040B1A08B401CA083304601F0D1FF012D3D
:1023A00005D006E0384600F021FD0125F4E701F0F4
:1023B000B9FB002056E770B505461446012902D046
:1023C0004FF0FF3070BD01F0B7FF064605F1140075
:1023D000FFF74AFFAC83304601F0B2FF01F0A2FBE9
:1023E000002070BD70B5044615460A4602212046FD
:1023F00001F0D2FA20461430406000600120A08332
:1024000000202062FF21A177E077657270BD10B5D2
:10241000044604F11400FFF727FF204601F0DAFA22
:10242000002010BD10B50C460146022001F0E0FA74
:1024300000280BD000F1140149600960012181835B
:1024400000210162FF228277C177447210BD10B56E
:10245000044604F11400FFF707FF204601F0EDFAEF
:10246000002010BD2DE9F341044601F08BFC054628
:1024700001F062FF064600202863206AA84203D1CB
:10248000E07F401CE07744E0A08B50B1A08B401E61
:10249000A083256295F83500A077E07F401CE077A7
:1024A00037E0019850B3206A95F8351090F8352040
:1024B000914204D205F13502022101F068FD627AF1
:1024C000294604F11400FFF7A1FE0198002809DD58
:1024D00005F14C0001AA0021074601F0B2FE384682
:1024E00001F031FE304601F02BFF01F01BFB286BA1
:1024F00060B10930C8D0286BBDE8FC816FF00104E1
:102500002C63304601F01CFF2046F5E701F014FF74
:102510000646304601F014FF0020EDE72DE9F041BA
:102520000446002501F02EFC064601F005FF074693
:10253000206AB04206D06C1E3463384601F000FFBA
:1025400020468FE6E17F491EC9B2E177B1B9A17F8C
:1025500090F83520914204D004F11E02022101F0CE
:1025600016FD04F11400064600F039FC60B1A08BA2
:10257000401CA08300202062FF20A077384601F095
:10258000DFFE012D0ED00FE060691438206290F854
:102590003500A077E07F401CE077304600F026FC55
:1025A0000125EBE701F0BEFA00205BE64FF0FF30BB
:1025B000704770B5054614460A460321284601F0C7
:1025C000EBF96C722C461434646024600020E861DE
:1025D00070BD10B5044604F11400FFF745FE204617
:1025E00001F0F8F9002010BD10B50C46014603209B
:1025F00001F0FEF9002806D0447200F11401496090
:1026000009600021C16110BD10B5044604F1140039
:10261000FFF72AFE204601F010FA002010BD2DE938
:10262000F04704460D464FF0FF38002D0DD000272F
:1026300001F082FE8246E0692843E06104F1140063
:10264000814600F0CCFB18B128E04046BDE8F08799
:10265000656921E0A5F11400464690F84010CA07CC
:1026600005D0C16BE269914309D1002607E08907D3
:1026700005D5C16BE269114001D0C16300262D6808
:1026800056B990F84010490703D5E169C26B9143F0
:10269000E16101F07AFB01274D45DBD1504601F0A5
:1026A0004FFE012F01D101F03DFA0020CEE72DE9C8
:1026B000FF470546DDF830900E4690464FF0FF305C
:1026C000002E46D0074601F05DFB04460020206343
:1026D00001F032FE82465FEAC87005D0E86936EA4A
:1026E000000008D1002706E05FEA887003D5E8699A
:1026F000304200D0002777B3039868B3E66384F8CC
:1027000040806A7A214605F11400FFF77FFD0398A7
:10271000002809DD04F14C0003AA0021054601F060
:1027200090FD284601F00FFD504601F009FE01F032
:10273000F9F9206B00280CD101F0FEFD8246B9F1B9
:10274000000F02D0E06BC9F80000504601F0F8FD20
:10275000206B04B07AE700E00DE0B9F1000F03D080
:10276000E8693040C9F800005FEA4870EDD5E869D3
:10277000B043E861E9E76FF001002063E5E770B579
:102780000446012902D04FF0FF3070BD01F0D4FDA6
:10279000054604F11400FFF767FD0020E0612846BC
:1027A00001F0CEFD01F0BEF9002070BD2DE9F04131
:1027B0000446069F16461D460A460421204601F09F
:1027C000EBF867722046143040600060E6612584B3
:1027D00000206084A084E08428346460246041E5A3
:1027E00010B5044604F11400FFF73EFD04F1280083
:1027F000FFF73AFD204601F0EDF8002010BD70B55E
:102800000D4616460146042001F0F2F80446200069
:1028100014D06672143040600060A8B2208480003A
:1028200000F01CFFE06158B100206084A084E084C7
:1028300004F1280040600060204670BD204670BD55
:10284000204601F0FAF8002070BD10B5044604F1EE
:102850001400FFF709FD04F12800FFF705FDE0690A
:1028600000F07AFF204601F0E8F8002010BD2DE9C5
:10287000F74F04468B46002601F084FA054601F026
:102880005BFD8046608C218C6FF0020A884201D18A
:10289000029808B100273BE0404601F051FD504648
:1028A000BDE8FE8F2F630298F0B1627A294604F1E9
:1028B0002800FFF7ABFC029800280CDDFFF7AFFB08
:1028C000064605F14C0002AA0021814601F0B9FC40
:1028D000484601F038FC404601F032FD01F022F993
:1028E000286B30B1286BDBE7404601F029FD5046EC
:1028F000D6E701F021FD80460298002808DDFFF7A9
:102900008EFB861B0298801B0290002800DA02973B
:10291000608C218C8842C5D0A18CE06940F821B040
:10292000A08C401C80B2A084218C884200D3A78454
:10293000608C401C608404F11400044600F04FFADF
:1029400020B1404601F0FCFC0020A9E7204600F041
:102950004DFA404601F0F4FC01F0E4F800209FE756
:10296000002284E72DE9F74F04468B46002601F04C
:1029700009FA054601F0E0FC8046608C6FF0010A20
:1029800008B9029808B100273CE0404601F0D8FCA5
:10299000504685E72F630298F0B1627A294604F128
:1029A0001400FFF733FC029800280CDDFFF737FB1B
:1029B000064605F14C0002AA0021814601F041FCC7
:1029C000484601F0C0FB404601F0BAFC01F0AAF80D
:1029D000286B40B1286B63E7404601F0B1FC5046DC
:1029E000C5F830A05CE701F0A7FC804602980028FB
:1029F00008DDFFF714FB861B0298801B029000285D
:102A000000DA0297608C0028C4D0E18CE06950F8AD
:102A10002100CBF80000E08C401C80B2E084218CC7
:102A2000884200D3E784608C401E608404F1280053
:102A3000044600F0D4F920B1404601F081FC0020AA
:102A40002EE7204600F0D2F9404601F079FC01F073
:102A500069F8002024E770B50446012902D04FF040
:102A6000FF3070BD01F068FC054604F11400FFF76B
:102A7000FBFB04F12800FFF7F7FB00206084A08433
:102A8000E084284601F05CFC01F04CF8002070BDA9
:102A90002DE9F0410446DDE9066817461D460A4661
:102AA0000521204600F078FF84F809802046143084
:102AB00040600060E761ED1C4FF6FC700540258426
:102AC0002D1DB6FBF5F060840022A262E262226353
:102AD000002008E0218CE369091D00FB0131236B14
:102AE0000B602163401C618C8142F3DCA2840020D6
:102AF00060E410B5044604F11400FFF7B5FB20466E
:102B000000F068FF002010BD10B5044604F1140069
:102B1000FFF7AAFBE06900F01FFE204600F08DFFE2
:102B2000002010BD2DE9F0410D4616461F46014616
:102B3000052000F05DFF0446200016D067721430B7
:102B400040600060ED1C4FF6FC7005402584B0B27B
:102B500060842D1D684300F081FDE06138B10022E2
:102B6000A262E262226300200FE0204622E42046B7
:102B7000FFF7CAFF00201DE4218CE369091D00FB5B
:102B80000131236B0B602163401C618C8142F3DCBB
:102B9000A28420460EE42DE9F04104460F46164675
:102BA000208CB04202D24FF0FF3003E401F0C4FBAE
:102BB000256BA5B12968216301F0C2FB00202860C4
:102BC00032463946281D00F069F901F0B5FB06468A
:102BD000E06A00B10560E562A06A28B105E001F095
:102BE000AFFB6FF00200ACE4A562A08C401CA08497
:102BF00004F11400044600F0F2F820B1304601F070
:102C00009FFB00209DE4204600F0F0F8304601F0E4
:102C100097FB00F087FF002093E42DE9F041044684
:102C20000F461646208CB04202D24FF0FF3088E4A7
:102C300001F082FB256B8DB12968216301F080FBD7
:102C400032463946281D00F029F901F075FB064689
:102C5000A06A2860A562E06A28B105E001F070FB77
:102C60006FF002006DE4E562A08C401CA08404F1CA
:102C70001400044600F0B3F820B1304601F060FBC8
:102C800000205EE4204600F0B1F8304601F058FB29
:102C900000F048FF002054E42DE9FF5F0446914610
:102CA000002601F06FF8054601F046FB0746A08CB0
:102CB0006FF0010B08B9039810B14FF0000840E025
:102CC000384601F03DFB584604B0BDE8F09FC5F81A
:102CD00030800398F0B1627A294604F11400FFF7BE
:102CE00095FA039800280CDDFFF799F9064605F1DF
:102CF0004C0003AA0021824601F0A3FA504601F0DD
:102D000022FA384601F01CFB00F00CFF286B40B1A2
:102D1000286BD9E7384601F013FB5846C5F830B0A8
:102D2000D2E701F009FB07460398002809DDFFF709
:102D300076F9861B0398801B0390002801DACDF8F2
:102D40000C80A08C0028C2D0A56A2868A062E06A26
:102D5000A84201D1C4F82C80A08C401EA084384623
:102D600001F0EEFA208C484500D281464A46291DE2
:102D7000019800F093F801F0DFFA216B29602563D8
:102D800001F0DEFA00209FE770B50446012902D069
:102D90004FF0FF3070BD01F0CFFA054604F114008A
:102DA000FFF762FA002108E00268A262E26A82424A
:102DB00000D1E162226B02602063A06A0028F3D197
:102DC000A184284601F0BCFA00F0ACFE002070BDE2
:102DD0004268116042684A6041600860704701685B
:102DE000814201D1012070470020704710B5006872
:102DF000143800F0CAFF002010BD000010B501F02B
:102E00009BFA0B4A1178491C1170BDE8104001F083
:102E100097BA10B501F090FA054A1178491E117061
:102E2000BDE8104001F08CBA0148007870470000FE
:102E30000C02002010B5FFF7F7FFF84C08B120682E
:102E400010BD00F09FFF08B1006B10BD206810BDE1
:102E500070B50446FFF7E8FFF04D08B12C6070BD77
:102E600000F090FF08B1046370BD2C6070BD10B518
:102E7000FFF7DAFF08B1E94810BD00F083FF08B1A1
:102E8000303010BDE54810BD10B50346C9B201E0B1
:102E900003F8011B521E541CFAD110BD30B5034675
:102EA00018468B4207D98C189C4204D307E011F8CE
:102EB000014B03F8014B521E541CF8D130BD002ABF
:102EC000FCD08C189D1814F8014C05F8014C521ECA
:102ED000002AF6D130BD10B503461846814210D203
:102EE0008C189C420DD9991803E014F8013D01F8A3
:102EF000013D521E531CF8D110BD11F8014B03F8CF
:102F0000014B521E541CF8D110BD10B5002306E031
:102F100003780C781B1B04D1401C491C521E002A4C
:102F2000F6D1184610BD014600E0491C0A78002A77
:102F3000FBD1081A7047F0B506460F463846FFF732
:102F4000F2FF0546280004D03046FFF7ECFF0446A8
:102F500009E03046F0BD641E2A4639463046FFF788
:102F6000D4FF20B1761CAC42F5DA0020F0BD30462B
:102F7000F0BD10B510F8012B11F8013BA2F141048E
:102F8000192C00D82032A3F14104192C00D8203389
:102F90009A4201D1002AEDD1D01A10BD10B5002AF5
:102FA00007D0034611F8014B03F8014B14B1521E30
:102FB000F8D110BD002101E003F8011B521EFBD126
:102FC00010BD10B5002308E011F8013B0478E31AA6
:102FD0005BB223B9401C14B1521E002AF4D118462A
:102FE00010BD01E0401C491C027812B10B789A42D6
:102FF000F8D000780978401A7047024600E0521C69
:10300000137813B1131A8B42F9D3101A704770B5A5
:1030100006463046FFF787FF451C284600F01EFB9A
:10302000044634B12A4631462046FFF737FF204692
:1030300070BD002070BD70472DE9FF4FDDE90DB672
:103040000F9D6C0602D5DFF8D8A103E0DFF8D0A110
:10305000AAF1110AEC0601D525F00105EC0702D012
:103060004FF0300901E04FF020090027AC070BD5E5
:10307000002A02DA2D27524206E06C0701D52B27E1
:1030800002E02C0700D520270024EE467AB9302232
:1030900001248DF800200CE00A2B15D002F00F0857
:1030A0001209A4461AF80880641C0EF80C80002A45
:1030B000F2D1B44200DD2646ABEB060215F0110F4B
:1030C0004FF0200309D016E04FF00A0CB2FBFCF8D9
:1030D0000CFB1828B2FBFCF2E3E73FB1002A05DD48
:1030E000521E03E0884200D80370401CB2F1000C6D
:1030F000A2F10102F6DC27B1884201D80770521E06
:10310000401CED0605D508E0884201D880F8009003
:10311000401C151EA2F10102F6DC302703E08842B4
:1031200000D80770401C3546761EA542F7DC05E046
:10313000884202D81EF804500570401C251EA4F1D8
:103140000104F5DC03E0884200D80370401C141E23
:10315000A2F10102F7DC04B0BDE8F08F2DE9FF4FCA
:1031600083B082460AEB01077F1E5446A74201D274
:103170004FF0FF374FF020094FF0250B17E12528BE
:1031800004D0BC4200D82070641C0DE100250599D4
:10319000491C059108782D2814D02B2815D02028FB
:1031A00016D0232817D0302818D04FF0FF384646C5
:1031B000059A1278303A0A2A13D205A800F093F93A
:1031C00006461AE045F01005E1E745F00405DEE7A4
:1031D00045F00805DBE745F02005D8E745F0010597
:1031E000D5E72A2809D1491C0591069840C80690C0
:1031F000002E02DA764245F01005059801782E2956
:103200001DD1401C05900178A1F130020A2A09D293
:1032100005A800F068F980460CE0000010020020CC
:10322000BD1403082A2905D1401C0590069850F8C2
:10323000048B0690B8F1000F01DA4FF0000800216E
:10324000059A1078682801D06C2802D10146521CDA
:1032500005920A23059800786F2871D00CDC63284A
:1032600020D004DC25286CD058280DD187E06428B4
:1032700001D0692808D186E0702863D073282FD048
:10328000752871D078287CD0BC4201D884F800B071
:10329000641C05990878002868D0BC4200D82070CA
:1032A000641C81E0E80605D507E0BC4201D884F83B
:1032B0000090641C761E002EF7DC069810F8041BA4
:1032C0000690C8B2BC4200D82070641C04E0BC4226
:1032D00001D884F80090641C761E002EF7DC63E0B1
:1032E000069808C8069003B989A31846FFF71BFE85
:1032F000B8F1000F02DD404500DD4046E90605D586
:1033000008E0BC4201D884F80090641C3146761E67
:103310008142F6DC002106E0BC4201D81A78227016
:10332000641C5B1C491C8142F6DB04E0BC4201D8F2
:1033300084F80090641C3146761E8142F6DC33E04E
:103340001BE014E0701C02D1082645F00105CDE910
:10335000006806980295102304C806903946204656
:10336000FFF76AFE04461FE00FE00AE028E0BC42D7
:1033700001D884F800B0641C16E0082305E045F08D
:103380004005102301E045F002056C291BD0682997
:103390001DD0069804C80690CDE90068394620463D
:1033A0000295FFF749FE04460598401C05900598D4
:1033B000007800287FF4E3AEBC4211D8207010E002
:1033C000491E0591F0E7069804C80690E4E70698C0
:1033D00030F8041B06908AB2A807DDD512B2DBE7ED
:1033E0003870A4EB0A0007B0B6E60FB408B503AB1B
:1033F00000937F214848029AFFF7B0FE4648F8F74D
:103400004FFF01B05DF814FB08B544A0FFF7EDFFD6
:1034100045A0FFF7EAFF4DA00323009000221946C4
:103420004DA0FFF7E2FFBDE8084053A0DDE70FB471
:1034300010B505AB049AFFF791FE10BC5DF814FBC4
:1034400017B40A46029B03B04FF0FF3110BC85E66B
:103450000FB410B504AA0399FFF7F2FFEDE710B51A
:10346000002801D0F8F71CFF10BD10B5C91C21F0D1
:103470000304C01C20F00300204400F0EFF80028F3
:103480000BD0611E084201D1011903E00219521E3E
:1034900022EA010141F8040C084610BD50F8040C62
:1034A00000F05AB9002807D03E4910F0FF0F05D0B0
:1034B000C0B2085C401C70470020704710F47F4F7A
:1034C00004D0C0F30720085C0930704710F47F0F68
:1034D00004D0C0F30740085C1130704701EB106066
:1034E00000781930704710B5024600206FF02F04A5
:1034F00007E04B1C1360097800EB800004EB4000F0
:10350000084411680B78303B0A2BF2D310BD000041
:10351000284E554C4C290000C0B400200A205C20E5
:103520007C202F0A000000002D205254202D202046
:10353000202020546872656164204F706572617448
:10354000696E672053797374656D0A004D6172204E
:103550003235203230323400202F207C205C202075
:1035600020202025642E25642E2564206275696C38
:10357000642025730A0000002032303036202D20D0
:103580003230313820436F70797269676874206215
:10359000792072742D746872656164207465616D40
:1035A0000A000000AC13030830B5CD4C4168226816
:1035B000114402F1080388420DD04D885DB9656859
:1035C000A94208D0A5688D4200D1A0604D68456031
:1035D0004968851ACD508168114481420BD04D88CD
:1035E000002D08D1A568854200D1A16044684C60D7
:1035F0004068891AC15030BD70B505460A46E81CBE
:1036000020F0030122F00303182B21D9A3F11804A1
:103610008C421DD3B24C5A1A183AE26021604FF422
:10362000F5530B800C324A6000208860488048685F
:103630000844606003800121418042608260002371
:103640000122A8A1A948FEF726FE2068A06070BD4F
:103650002946BDE87040A6A0FFF7C7BE2DE9F04798
:10366000002809D0C01C20F003059D4EF06885425B
:1036700004D90020BDE8F0870020FBE70C2D00D224
:103680000C254FF0FF319948FEF73DFEB7683168D1
:10369000781AD6F80CC0ACEB050356E00C1862881B
:1036A0008ABB6268121A0C3AAA424DD3626805F1CD
:1036B0001803121A0C3A4FF001094FF4F5589A42C8
:1036C00022D343190C33CA18A2F800804FF0000A25
:1036D000A2F802A0D4F804A0C2F804A0906063602D
:1036E000A4F8029050680CF10C0C604502D001F176
:1036F00008028350306928440C303061726982427C
:103700000ED270610CE01FE0A4F802906068621AAB
:10371000801A3269104430617269824200D270614D
:10372000A4F80080BC4203D008E040680844B060C0
:10373000B068428812B172689042F6D16B48FEF7C9
:103740001BFE04F10C0095E760688342A6D8674829
:10375000FEF712FE00208DE770B5002833D0604DD3
:10376000296888422FD3696888422CD2A0F10C04C2
:103770004FF0FF315D48FEF7C6FD60884FF4F55607
:1037800010B12088B04208D068A0FFF72EFE238831
:10379000628821466CA0FFF728FE0020608026800A
:1037A000A868844200D2AC6029686068611A401A37
:1037B0002969081A28612046FFF7F6FEBDE8704027
:1037C0004A48FEF7D9BD70BD2DE9F0410646C91C37
:1037D00021F00304424FF868844202D90020BDE87A
:1037E000F08184B1A6B14FF0FF314048FEF78BFD68
:1037F0003A68964202D3786886420DD33B48FEF77A
:10380000BBFD3046EBE73046FFF7A6FF0020E6E7BA
:103810002046BDE8F04121E7A6F10C01A1EB020C26
:103820004868A0EB0C050C3DA54204D12F48FEF7DB
:10383000A3FD3046D3E704F11800A8421FD23B692C
:10384000281B181A38610CEB04030C33D0184FF402
:10385000F5540480002444804C684460C0F808C0DB
:103860004B60FC6841680C34A14201D008328B5097
:10387000FFF79AFE1D48FEF77FFD3046AFE71B4875
:10388000FEF77AFD2046FFF7E9FE074657B1A5424D
:1038900000D22C46224631463846FFF7FFFA304622
:1038A000FFF75AFF38469AE770B548430446FFF7DA
:1038B000D5FE054625B1224600212846FFF7E4FA49
:1038C000284670BD10B5064B002801D0DC680460A6
:1038D00009B118690860002A01D05869106010BD4C
:1038E00014020020686561700000000040B50020EF
:1038F0006D656D20696E69742C206572726F72201F
:10390000626567696E2061646472657373203078E4
:1039100025782C20616E6420656E64206164647279
:1039200065737320307825780A000000746F206674
:103930007265652061206261642064617461206247
:103940006C6F636B3A0A00006D656D3A2030782524
:103950003038782C207573656420666C61673A2076
:1039600025642C206D6167696320636F64653A206C
:103970003078253034780A0070470021554A02EB30
:1039800001131B78834202D102EB01107047491CDE
:103990000829F4DB002070472DE9F04104460D466C
:1039A00017462846FFF7E9FF064645F080002072DB
:1039B000082239462046FFF7F1FA00F0BDFC054623
:1039C00004F10C01301D00F075F82846BDE8F04107
:1039D00000F0B6BC70B5044600F0AEFC054604F13C
:1039E0000C0000F06EF82846BDE8704000F0A8BC5E
:1039F0002DE9F04106460F463046FFF7BEFF05466B
:103A0000E868FFF72BFE0446ACB126720020607216
:103A1000082239462046FFF7C1FA00F08DFC064621
:103A200004F10C01281D00F045F8304600F088FC38
:103A30002046BDE8F0810020FBE770B5044600F0A9
:103A40007BFC054604F10C0000F03BF8284600F032
:103A500077FC2046BDE87040FFF77EBE007A000686
:103A600001D501207047002070472DE9F04107463D
:103A70000C46002F01D00B2C01D90020D9E700F013
:103A8000CBF82046FFF779FF4468051D08E0A4F154
:103A90000C06082239463046FFF793FA30B1246805
:103AA000AC42F4D100F0C3F80020C2E700F0BFF848
:103AB0003046BEE70268516002680A6001604860F3
:103AC0007047D0E900215160D0E9001211604060D8
:103AD000006070472C02002010B5614B00245C8010
:103AE0000020604A02EBC00149600960401C0828C0
:103AF000F8DB072018705C609C6059480C3040600F
:103B0000006010BD10B5564CA068FFF7CBFC401EFE
:103B1000544951F8300014386060BDE810401C3042
:103B200000F03FBC70B500F007FC05464C4C6088C7
:103B300020B12846BDE8704000F002BCA068FFF745
:103B4000B1FC421E474850F8321014396068814277
:103B500016D022706160444A127842B11C311C3088
:103B600000F0F1FB2846BDE8704000F0E9BB1C31D5
:103B70001C3000F0E8FB2846BDE8704000F0E0BBD8
:103B80002846BDE8704000F0DBBB10B5044600F0ED
:103B9000D3FB024614F8340F20F00F00401C2070B5
:103BA00060783049343C01EBC00104F114004B68EB
:103BB00018604B684360486001602948A16B8368C6
:103BC00019438160BDE81040104600F0B9BB70B5E4
:103BD000054600F0B1FB014605F11404D4E90020CC
:103BE0005060D4E9000210606460246095F83500EC
:103BF0001C4A02EBC0000268824201D1012000E0B1
:103C0000002020B11648AB6B82689A438260BDE801
:103C10007040084600F094BB10B500F08DFB104AD0
:103C20005188491C5180BDE8104000F089BB10B597
:103C300000F082FB0A4A5188491E09B251800029CE
:103C400006DC0021518000F07BFBBDE8104069E7F5
:103C5000BDE8104000F074BB0148408880B2704756
:103C6000AC02002060B500200C02002070B5F848BE
:103C7000046800F061FB05462046FFF7A8FF04201A
:103C800084F8340004F14C0000F026FA2046FFF7D7
:103C9000E5FE012801D1A06F58B104F11401ED48EF
:103CA00000F0CFF9284600F04BFBBDE87040FFF76D
:103CB00039BF2046FFF78EFEF4E710B504466FF0DB
:103CC0000100206304F1140000F0C8F92046FFF75A
:103CD0005CFFBDE81040FFF725BF2DE9FC411F4602
:103CE000DDE90A65DDE90831044604F114004060AD
:103CF00000601C346260A760E36021610A462321F2
:103D00001846FFF7C1F8D4E903014218121FAFF2B9
:103D1000A303D4E9010100F087FB2060A676667654
:103D20000020E061A562E56260612076E0652066C2
:103D30001C3C00902346AFF27D020190214604F125
:103D40004C0000F0B4F90020BDE8FC812DE9FF5FD4
:103D50008146DDE90E76DDE91054884692469B46A1
:103D6000424600214846FFF717FECDE90076CDE92F
:103D700002545B46524641464846FFF7AEFF04B048
:103D8000BDE8F09FB2480068704770B5044694F8EB
:103D9000340000F00F00022802D04FF0FF3070BD59
:103DA00000F0CAFA054604F1140000F057F904F1D6
:103DB0004C0000F02FFA284600F0C2FA2046FFF728
:103DC000E4FE002070BD10B53430817841700122CE
:103DD0008A404260022100F83419FFF7D6FFFFF74E
:103DE000D1FF08B1FFF79EFE002010BD70B504465C
:103DF00094F83400000702D02046FFF7E8FE04F1F3
:103E00004C0000F069F9042084F834002046FFF7E4
:103E1000E1FDA06F50B100F08FFA054604F11401E6
:103E20008C4800F00EF9284600F08AFA002070BD98
:103E30002DE9FF478046DDE90C67894692461D461D
:103E400041460020FFF7D4FD044620000FD028464D
:103E5000FFF704FC68B18DE8E10053464A4641464D
:103E60002046FFF73AFF204604B0BDE8F087002067
:103E7000FAE72046FFF7E1FD0020F5E770B50446BC
:103E800094F83400000702D02046FFF7A0FE04F1AA
:103E90004C0000F021F9042084F8340000F04CFAC2
:103EA000054604F114016B4800F0CBF8284600F0F9
:103EB00047FA002070BD70B500F03EFA064664482F
:103EC000046894F8340000F00F0001281AD1D4E9F6
:103ED0000501884216D004F11400054600F0BEF832
:103EE00094F835005C4901EBC00041680D60416801
:103EF000696045602860304600F022FAFFF712FE44
:103F0000002070BD304600F01BFA002070BD70B577
:103F1000044694F8340000F00F00012802D04FF05E
:103F2000FF3070BD00F008FA054694F8340020F028
:103F30000F00801C84F834002046FFF748FE04F18F
:103F40004C0000F067F9284600F0FAF9002070BD37
:103F5000F1B500F0F1F905463D4804682046FFF749
:103F6000D6FF04F14C006A460021064600F069F9CC
:103F7000304600F0E8F8284600F0E2F9FFF7D2FDFD
:103F8000206B801C00D120630020F8BDE0E72DE904
:103F9000F04104461546002924D0012926D00229E3
:103FA00011D100F0C9F9074694F83400012600F059
:103FB0000F0001280AD0287884F835008640A663CF
:103FC000384600F0BDF90020BDE8F0812046FFF73B
:103FD000FEFD287884F835008640A6632046FFF76A
:103FE000D4FDEDE72046BDE8F041ECE62046BDE813
:103FF000F04143E72DE9F0410746FFF7C3FE08B162
:10400000FFF70AFE0020FFF7B8FC4468051D08E032
:10401000A4F10C06082239463046FEF7D2FF48B11B
:104020002468AC42F4D1FFF7ADFE08B1FFF7FFFD05
:104030000020C9E7FFF7A6FE08B1FFF7F8FD3046FC
:10404000C2E70268516002680A6001604860704718
:10405000B0020020B802002060B50020D0E90021A5
:104060005160D0E90012116040600060EFE700008D
:1040700010B5029C24F001044472C1610262002167
:104080008162436200EBC102143252601260491C2B
:104090000129F7DB10BD10B50446204600F032F9C7
:1040A00010B14FF0FF3010BD2068406910BD2DE900
:1040B000F8430746DDE9088415461E460A460921ED
:1040C0003846FFF769FC4346324629463846009495
:1040D000FFF7CEFFBDE8F88370B5054600F02CF978
:1040E0000446284600F015F9204600F029F9284634
:1040F000FFF770FC002070BD2DE9F8430E46089DC7
:104100001746984601460920FFF772FC044644B161
:1041100043463A46314620460095FFF7A9FF204620
:10412000D8E70020D6E770B5054600F005F904464B
:10413000284600F0EEF8204600F002F92846FFF786
:104140007CFC002070BD2DE9F843044600F0F4F833
:104150000546204600F0DDF8607A20F0010060722C
:10416000284600F0EDF8FDF75AFF616A0844A062A6
:1041700000F0E2F80746DFF8BCC1CDF800C000222D
:104180006E460CEBC20045680DE00068A0EBC20172
:10419000A36A4969994204D0C91A6FF00043994251
:1041A00005D346F8220056F82200A842EDD12AB1E4
:1041B00056F822100831531C46F82310521C002ACE
:1041C000DFD05C48001FD0F8008008F10108C0F87B
:1041D000008004F11401009800F08DF802250EE033
:1041E0005FEA88700DD1C5F1010004EBC001143104
:1041F00056F8200000F07FF84FEA98086D1C012D5A
:10420000EED9607A40F001006072384600F098F80C
:1042100000205FE770B50446607AC0070ED000F05A
:104220008BF80546204600F074F8284600F088F820
:10423000607A20F001006072002070BD4FF0FF3006
:1042400070BD002909D0012904D0022908D0032912
:104250000FD10AE0406A10600BE01168416208E08B
:10426000417A21F00201417203E0417A41F00201FA
:1042700041720020704770B5FDF7D1FE064600F090
:104280005BF8054620E02B480468143C6FF00041C1
:10429000A06A301A88421CD2204600F03AF8D4E9CD
:1042A00007108847FDF7BBFE0646607A810708D5F0
:1042B000C10706D020F0010060722046FFF743FFDF
:1042C00002E020F0010060721A4800F01BF800289C
:1042D000D9D02846BDE8704000F032B81548DAE67B
:1042E0000020144A02EBC00149600960401C00280C
:1042F000F8D0704770470268516002680A60016038
:10430000486070470168814201D101207047002058
:10431000704710B5002200EBC2011431D1E900430F
:104320006360D1E90034236049600960521C012AAE
:10433000F1DB10BDC4020020EFF3108072B67047AD
:1043400080F310887047324A1368012B04D04FF075
:10435000010313602F4A10602F4A11602F484FF05D
:10436000805101607047EFF3108272B628480168EF
:1043700091B14FF0000101602648016829B1EFF3C7
:10438000098121E9F00F0068016023490968096883
:10439000B1E8F00F81F3098882F310884EF0040E23
:1043A00070471D4908601B494FF00000086018491C
:1043B0004FF0010008601A484FF47F01D0F8002048
:1043C00041EA0201016015484FF080510160154833
:1043D0000068006880F3088861B662B670471EF016
:1043E000040F14BFEFF30880EFF3098020E9F00F0A
:1043F00040F804ED14BF80F3088880F3098800B505
:1044000000F031F85DF804EB4EF0040E7047000048
:10441000D8020020D0020020D402002004ED00E0E9
:1044200020ED00E008ED00E070B50646121D22F018
:104430000700A0F1400528460022394C40F82240F0
:10444000521C102AFAD30162002141628162C162CA
:104450000163436386634FF08071C163284670BD7A
:1044600030490860704770B505462C1D2D4801681D
:10447000002903D02846884700284DD02AA0E16BA8
:10448000FEF7B3FF2CA0216AFEF7AFFF2EA0616AF2
:10449000FEF7ABFF30A0A16AFEF7A7FF32A0E16AEA
:1044A000FEF7A3FF34A02168FEF79FFF36A06168E6
:1044B000FEF79BFF38A0A168FEF797FF3AA0E168DE
:1044C000FEF793FF3CA02169FEF78FFF3EA06169D4
:1044D000FEF78BFF40A0A169FEF787FF42A0E169CC
:1044E000FEF783FF44A0216BFEF77FFF46A0616BC0
:1044F000FEF77BFF48A0A16BFEF777FF2878400707
:1045000006D5FFF73FFC014647A0FEF76EFF02E02D
:104510004DA0FEF76AFFFEE770BD52A0FEF765BF33
:10452000EFBEADDECC0200207073723A20307825E9
:104530003038780A000000007230303A2030782598
:104540003038780A000000007230313A2030782587
:104550003038780A000000007230323A2030782576
:104560003038780A000000007230333A2030782565
:104570003038780A000000007230343A2030782554
:104580003038780A000000007230353A2030782543
:104590003038780A000000007230363A2030782532
:1045A0003038780A000000007230373A2030782521
:1045B0003038780A000000007230383A2030782510
:1045C0003038780A000000007230393A20307825FF
:1045D0003038780A000000007231303A20307825F7
:1045E0003038780A000000007231313A20307825E6
:1045F0003038780A000000007231323A20307825D5
:104600003038780A00000000206C723A203078259B
:104610003038780A000000002070633A2030782596
:104620003038780A000000006861726420666175A5
:104630006C74206F6E207468726561643A20257313
:104640000D0A0D0A00000000686172642066617541
:104650006C74206F6E2068616E646C65720D0A0D5B
:104660000A00000073687574646F776E2E2E2E0A30
:104670000000000001460120002900D10020704701
:1046800010B50124002803D1F8F79BFD00B90024E0
:10469000204610BD2DE9F041ADF5007D07460E46E0
:1046A00014461D460420002F18D1B0074FF400789F
:1046B00018D00FE02246641C012369460020FFF752
:1046C000E9FF07464FB942466946304603F032FCDF
:1046D00006F500766D1E681CECD138460DF5007DA0
:1046E000BDE8F081CDE90085E30D62023046F8F7C0
:1046F00007FF044634B9F8F761FF0446F8F7AFFD49
:104700000028FBD10CB10420E8E70020E6E7F0B573
:10471000ADF5017D07460E4614461D460420002DCA
:1047200007D0002F06D1B0074FF4007719D0002032
:1047300013E004200DF5017DF0BD3A46314601A895
:1047400003F0F8FB2246641C012301A90020FFF7B7
:10475000DEFF0028EED106F500766D1E691CECD157
:10476000E8E7CDE90075E30D62023046F8F78CFF0B
:10477000044634B9F9F713F80446F8F770FD002839
:10478000FBD10CB10420D5E70020D3E710B50346D8
:1047900014460420002B16D1A1B101290BD0022907
:1047A00002D003290ED103E04FF40070208009E00D
:1047B0000120206006E005490023483107C903F0C5
:1047C00033FB2060002010BD01487047404A0020A4
:1047D0000000214603E011F8013B00F8013B521EA6
:1047E000531CF8D17047C9B201E000F8011B521EFA
:1047F000531CFAD1704710B50023521E541C05D02B
:1048000010F8013B11F8014B1B1BF6D0184610BDE8
:1048100000E0401C02780AB18A42FAD10078704761
:10482000C06802F006BE00280AD00C2908D00B2967
:1048300006D0092904D00F2902D0C06802F003BEB7
:1048400070472DE9F04104460027207900281FD049
:10485000266B04F134016078012332468846FFF765
:1048600056FF08B1012713E000202071606AE1695A
:10487000301A88420CD2E57808E0E0690644607896
:10488000012332464146FFF742FF6D1E022DF4D24E
:104890003846BDE8F08170B504460E460025206B11
:1048A000B04210D02046FFF7CCFF05465DB96078D6
:1048B0000123324604F13401FFF7ECFE10B14FF052
:1048C000FF3601252663284670BD70B50446204694
:1048D000FFF7B7FF054628004FD12078032845D1C0
:1048E0006079012842D104F1340062890021064632
:1048F000FFF779FF552084F83202AA2084F83302AA
:10490000522084F8340084F83500612084F83600A1
:10491000412184F83710722284F8182284F8192271
:1049200084F81A1284F81B02606984F81C02010AD8
:1049300084F81D12010C84F81E12000E84F81F0268
:10494000206984F82002010A84F82112010C84F8FD
:104950002212000E84F82302226A521C226360781D
:1049600001233146FFF7D3FE0020607100226078FA
:104970001146FFF70BFF00B10125284670BD891EC7
:104980008269921E8A4201D800207047C26A8078EC
:1049900001FB002070472DE9F04104460D46022D31
:1049A00002D3A069A84201D8012609E04FF0FF36E2
:1049B0002078012806D0022834D003284AD00126C6
:1049C000304666E705EB55076089616AB7FBF0F092
:1049D00001442046FFF75FFF0028F1D16089394686
:1049E000B1FBF0F200FB121121447F1C91F83480DE
:1049F000B7FBF0F0616A01442046FFF74CFF002846
:104A0000DED16089B7FBF0F100FB1170204490F813
:104A1000340048EA0020E90701D00609D0E7C0F3D6
:104A20000B06CDE76089616A4008B5FBF0F00144F0
:104A30002046FFF730FF0028C2D161896800B0FB33
:104A4000F1F201FB1200204434300178407841EA51
:104A50000026B5E76089616A8008B5FBF0F0014483
:104A60002046FFF718FF0028AAD16189A800B0FBF3
:104A7000F1F201FB1200204434300178C27841EA9F
:104A8000026182784078120442EA0020014321F05A
:104A9000704695E72DE9F04704460D461646022D6F
:104AA00002D3A069A84202D80220BDE8F08720788E
:104AB00006F0FF094FF00108012805D0022842D076
:104AC00003285AD00220F0E705EB55076089616A98
:104AD000B7FBF0F001442046FFF7DDFE0028E4D1EB
:104AE000384661897F1CB0FBF1F201FB12002044C3
:104AF0003430E90703D0017869F31F1100E0314633
:104B0000017084F804806089616AB7FBF0F00144A9
:104B10002046FFF7C0FE0028C7D16189B7FBF1F23C
:104B200001FB127121443431EA0702D0C6F30712A7
:104B300005E00A78C6F3032302F0F0021A430A7074
:104B400084F80480B1E76089616A4008B5FBF0F041
:104B500001442046FFF79FFE0028A6D16289690024
:104B6000B1FBF2F302FB1311214481F83490320AB5
:104B700081F8352084F8048097E76089616A8008AD
:104B8000B5FBF0F001442046FFF785FE00288CD1EC
:104B90006289A900B1FBF2F302FB13112144343105
:104BA0004FF07043CA7803EA026232430A70130A74
:104BB0004B70130C8B70120ECA7084F8048074E76B
:104BC0002DE9F04104460F46022F02D3A069B842F6
:104BD00001D8022624E000261FE039462046FFF7D0
:104BE000DAFE0546E5B1012D09D0681C09D0002286
:104BF00039462046FFF74EFF06468EB903E00226EF
:104C00000EE001260CE06069411C05D0401C60618B
:104C1000607940F0010060712F46A069B842DCD88D
:104C2000304636E62DE9F04106460F46002F07D004
:104C300039463046FFF7AFFE022808D2012028E6A9
:104C4000356915B1B069A84207D8012505E0411CB6
:104C5000F5D0B1698142F2D83D462C46641CB0695A
:104C6000A04204D80224022D01D2002011E62146E0
:104C70003046FFF790FE38B1411CE0D00128DED06D
:104C8000AC42EBD1002004E66FF070422146304682
:104C9000FFF700FF28B927B1224639463046FFF713
:104CA000F9FE20B101280DD001242046F1E5346140
:104CB0007069411CF9D0401E7061707940F00100AC
:104CC0007071F2E74FF0FF34EFE770B504460D4620
:104CD000E580A368012B03D020688169994201D83F
:104CE000022070BD1BB90178032900D1836A23B16A
:104CF000418980784E09464318E00189A94201D8CC
:104D0000022070BD806A17E019462068FFF743FE55
:104D10000346581C07D0022B03D3206880699842B1
:104D200003D8022070BD012070BDAD1BB542EBD28F
:104D300019462068FFF723FEE36098B121684A898D
:104D40005209B5FBF2F21044206148894009B5FBD5
:104D5000F0F200FB1250342202EB40100844606174
:104D6000002070BD022070BD2DE9F04104460E46C2
:104D7000E7887F1C3804000C0AD0216941B1206803
:104D800042895209B7FBF2F302FB137212B165E0DC
:104D900004207EE5491C2161E16871B14289837874
:104DA0005209B7FBF2F25B1E1A4257D1FFF7F3FD2F
:104DB0000546012D06D802206BE50089B8424DD882
:104DC000042066E5681C14D020688169A9423FD898
:104DD0008EB1E168FFF726FF054628000DD0012DB2
:104DE0000DD0681C0DD02068FFF72BFD58B10120B5
:104DF0004FE501204DE504204BE5072049E5022061
:104E000047E5012045E52068002142893430FFF75D
:104E1000EAFC29462068FFF7B2FD216808630026F6
:104E20004FF001080CE080F804802068FFF709FDCE
:104E300008B101202DE52068016B491C0163761C37
:104E400020688178B142EED82168096B891B016323
:104E5000E56029462068FFF792FD2061E780206821
:104E600041894909B7FBF1F201FB1271342202EBCF
:104E700041110844606100200BE570B505460E46FF
:104E800000212846FFF721FF88B9002429692868F6
:104E9000FFF701FD58B969690978E5290BD051B1CF
:104EA000002401212846FFF75FFF0028EED00428E8
:104EB00000D1072070BD641CB442F8D0F1E702466F
:104EC000887ECB7E40EA03201278032A05D10A7D32
:104ED000497D42EA012140EA0140704781760A0A91
:104EE000C2760A0C0275090E417570472DE9F05F14
:104EF00081460E46B07EF17E50EA012002D00020AD
:104F0000BDE8F09F307800F03F00401E00EB8001CC
:104F100001EBC00401200025DFF864A406F10108BC
:104F20001AF80510725C11F8081042EA012788B1DE
:104F3000FF2C0BD2384602F044FA83462046641C0C
:104F400039F8100002F03DFA834501D00020D7E780
:104F5000384605E0A7F57F41FF3901D00020CFE7B3
:104F60006D1C0D2DDCD33178490605D520B139F8FB
:104F7000140008B10020C3E70120C1E72DE9F0418A
:104F80008A7ECB7E52EA032201D0002081E40A7897
:104F900002F03F02521E02EB820303EBC202012524
:104FA0000023F74F4E1C4FF6FF7CFC5C11F8048089
:104FB000A45D48EA04244DB1FF2A01D3002068E42F
:104FC00090462546521C20F8184003E0644501D065
:104FD00000205EE45B1C0D2BE7D30978490606D55B
:104FE000FF2A01D3002054E4002120F812100120F0
:104FF0004FE42DE9F0434B730F23CB7200230B7367
:105000008B76CB76531E03EB830404EBC30500239E
:105010001C46DB4E01F1010C4FF6FF77BB4203D07B
:105020002B466D1C30F8133016F8048001F8083058
:1050300016F804904FEA132809F80C8003B93B4690
:10504000641C0D2CEAD3BB4202D030F8150008B91D
:1050500042F040020A70BDE8F0837CB50546164672
:105060001C460B222846FFF7B5FB052C11D9C54875
:105070000CE0B61C002322460C4662F35F0449088C
:10508000E20300D544405B1C102BF4D33188002987
:10509000EFD107226B4604F00F013031392901D9D5
:1050A000C91DC9B21046521E19542409002CF2D150
:1050B0007E2098540021541E06E081387D2802D8B5
:1050C000A14206D0491C491C914202D2685C2028AA
:1050D000F3D1082A03D21046521C185C00E02020AD
:1050E0000C46491C28550829F3D37CBD01460020F5
:1050F0000B22430803EBC01011F8013B1844C0B267
:10510000521EF6D170472DE9F04704460021204693
:10511000FFF7DBFD002857D1FF26B1464FF6FF7A97
:10512000A4F820A021692068FFF7B5FB80465FEA5C
:10513000080048D167693D7865B1F87A00F03F0012
:10514000E52D03D0010708D50F2806D0FF26A4F8C7
:1051500020A030E04FF0040835E00F2801D0CEB198
:105160001DE0E06938B3690606D597F80D9025F083
:1051700040052E46E1882184B54208D1797B494516
:1051800005D13946FFF7B2FE08B1761E00E0FF26D2
:10519000F6B210E03846FFF7A9FF484513D0A169E1
:1051A000C87AC00704D10B223846FFF724FB50B160
:1051B000FF26A4F820A000212046FFF7D5FD804659
:1051C0005FEA0800AED040466FE42DE9F04705469F
:1051D0008946FF26B046042748E02868FFF75BFBB6
:1051E0000746380045D1686904787CB1C17A01F07E
:1051F0003F01E52C08D02E2C06D021F02002082AF1
:1052000006D000224A4505D0FF261FE0042730E0E3
:105210000122F7E70F2901D026BB1FE0610606D562
:1052200090F80D8024F040042646E9882984B44291
:105230000AD1417B414507D1EA6901461046FFF793
:105240009DFE08B1761E00E0FF26F6B2002128463A
:10525000FFF78AFD0746380008D00AE0FFF746FF4F
:10526000404506D04FF6FF70288402E029690029E6
:10527000B3D10FB100202861384616E42DE9FE4372
:105280000446A769E6690C2239466846FFF7A2FA88
:105290009DF80B00C00718D00020F872E0610125CE
:1052A0002B46324669463846FFF7D7FE2046FFF7C1
:1052B0002AFF10B96D1C642DF2D3642D0BD0042885
:1052C0000AD19DF80B00F872E6619DF80B0080078B
:1052D0000ED5002003E00720BDE8FE83401C36F811
:1052E00010100029FAD119300D21B0FBF1F600E0C1
:1052F000012631462046FFF7C0FD054601271DBBAC
:10530000761E21D0E088811B2046FFF7DEFC054693
:10531000280019D1A069FFF7E9FE804621692068BD
:10532000FFF7B9FA05467DB9F2B243466169E06913
:10533000FFF75FFE2068077100212046FFF714FD8C
:1053400005460DB9761EE9D1C5B921692068FFF778
:10535000A2FA0546280011D1202200216069FFF73A
:1053600042FAD4E905010B22FFF734FAA06961691A
:10537000C07A00F018000873206807712846ABE770
:10538000CE1403082110010070B50446E688218C74
:10539000A1F57F40FF3800D131462046FFF795FC4C
:1053A000054628001DD121692068FFF774FA0546DB
:1053B000A5B9202200216069FFF715FA6169E5208F
:1053C0000870216801200871E088B04206D20021EF
:1053D0002046FFF7C9FC0546002DE4D0042D00D17E
:1053E0000225284670BD2DE9F0410E4606F109055B
:1053F0000169002937D0436900242146641C5A5CA6
:10540000202A17D0052A00D1E522092C02D12E210D
:1054100005F8011BA2F14101192909D81F7B092CAC
:1054200001D3102100E008210F4201D02032D2B276
:1054300005F8012B0B2CE0D3D97A3172197FDA7F72
:105440005C7F41EA02619A7F120442EA042211431E
:105450003160197E5A7E41EA0221B180997DDA7D60
:1054600041EA0221F1804FF0000885F80080B76919
:10547000002F26D00024016909B3F169F9B1018C2C
:10548000A1F57F42FF3A1AD0C56914E0002101F06E
:1054900071FF58B1FF2803D9020A2146641C7A54CF
:1054A000F169491EA14203D8002408E0002406E067
:1054B0002146641C785435F8020B0028E6D107F821
:1054C000048066E42DE9F35F8846D8F8006000E0C8
:1054D000761C30782F28FBD05C28F9D00098D0F8C3
:1054E0001CA00024254628466D1C305C202808D3CB
:1054F0002F2806D05C2804D0FF2C09D30620BDE855
:10550000FC9F7119C8F8001020282AD2042532E027
:10551000C0B2A0F181017D290ED829466D1C715CB5
:1055200001EB002080B2A1F140023F2A04D3803970
:105530007F2901D30620E2E7012101F01BFF074686
:1055400047B1802F08D23946FEA0FFF761F918B1A4
:105550000620D4E70620D2E72046641C2AF8107003
:10556000C1E7002507E0601E3AF81000202801D0AE
:105570002E2802D1641E002CF5D154B100202AF847
:10558000140000980B2220218069FFF72CF90027D6
:1055900002E00620B3E77F1C3AF817002028FAD073
:1055A0002E28F8D01FB145F0030500E0641E24B199
:1055B000601E3AF810002E28F8D14FF00008C146BE
:1055C0004FF0080B38467F1C3AF8106006B3202EC7
:1055D00003D02E2E04D1A74202D045F00305F1E7F7
:1055E000D84501D2A74219D1BBF10B0F0ED0A7426B
:1055F00001D045F003050BD827464FF008084FF0BF
:105600000B0B4FEA89604FEA1069DBE745F00305B1
:10561000009880690178E5293DD03EE0802E08D3CE
:10562000304601F0CEFE002101F0A4FE064645F012
:105630000205FF2E0FD9ABF10100804503D345F0E1
:105640000305D846BEE70098310A8269404608F152
:105650000108115418E026B13146BDA0FFF7D8F873
:1056600018B15F2645F003050EE0A6F141001928A8
:1056700002D849F0020907E0A6F16100192803D811
:1056800049F00109203EB6B200988169404608F110
:1056900001080E5496E705210170BBF1080F03D1F4
:1056A0004FEA89604FEA1069C9F38100032803D0EB
:1056B0006FEA0901890701D145F00205A90709D45C
:1056C00009F00301012901D145F01005012801D19C
:1056D00045F0080500988069C57200200FE773B592
:1056E0000446019908782F2801D05C2801D1491C73
:1056F00001910025A56001980078202805D200219D
:105700002046FFF7E2FA65617CBD01A92046FFF75C
:10571000D9FE0028F8D12046FFF7F5FCA169C97A27
:1057200028B10428F0D14907EED405207CBD4907F3
:10573000FCD46169C87AC00601D405207CBD20680C
:10574000FFF7BDFBA060E0E710B504464FF0FF3067
:105750002368002B0BD0194600E0491C0A78202A48
:1057600001D33A2AF9D10A783A2A01D0002010BD93
:1057700013F8012B303A0A2AF9D28B42F7D1022AC8
:10578000F5D21046491C216010BD10B5044600201A
:105790002071401E20632046FFF77DF808B10320EA
:1057A00010BD94F8320294F8331240EA0120A0F5BB
:1057B0002A41553901D0022010BD14F86A0FE17852
:1057C000627840EA0161A0786A3C000440EA022065
:1057D00001436148B0EB012F01D1002010BD14F846
:1057E000861FE278637841EA0261A278120442EAF5
:1057F00003221143B0EB012F01D1002010BD012085
:1058000010BD2DE9FF478046084616460027C8F818
:105810000070FFF799FF0546280002D50B2004B061
:10582000D2E44E4850F82540ACB12046FEF7F8FFD0
:1058300098B1C8F80040207820B16078FEF71AFFD0
:10584000C1070CD02770E8B26070FEF719FFC107DE
:105850000CD00320E3E70C20E1E70F20DFE71EB1C7
:10586000400701D50A20DAE70020D8E71EB140073B
:1058700001D50A20D3E7607804F10A020221FEF77D
:1058800085FF30B96089B0F5007F02D3B0F5805F45
:1058900001D90120C3E7002529462046FFF775FFFF
:1058A000012826D10021E84604EB011000F5F9702B
:1058B000027952B1027AC37A42EA0362837A407A69
:1058C0001B0443EA0020024300E0002248F82120A4
:1058D000491C0429E8D3002658F8265025B129464A
:1058E0002046FFF752FF00E0022010B1761C042E84
:1058F000F2D3032802D018B10D2090E701208EE7E3
:1059000094F83F0094F84010B4F80AC040EA01202F
:10591000604501D00D2082E794F84A0094F84B10BE
:1059200040EA012058B914F8580FE178627840EA4B
:105930000160A1780904583C41EA02210843E06172
:105940000EE00000222A3A3C3E3F7C7F000000002F
:105950002B2C3B3D5B5D000000464154E0020020E3
:1059600094F844A084F803A0BAF1010F04D0BAF16E
:10597000020F01D00D2052E70AFB00FA94F84120F3
:10598000A27012B1511E0A4201D00D2047E794F8CF
:10599000451094F8463041EA032323814FEA5C1610
:1059A000B3FBF6F106FB113109B10D2037E794F88E
:1059B000471094F8488041EA082179B994F85410C6
:1059C00094F8578094F8559041EA086194F856800D
:1059D0004FEA084848EA092841EA080194F8428059
:1059E00094F8439048EA0929B9F1000F08D0B3FBB5
:1059F000F6F609EB0A08B044414503D20D200EE744
:105A00000D200CE7A1EB0801B1FBF2F141B3012637
:105A100040F6F672914200D302264FF6F67291429A
:105A200000D30326891CA161256205EB090262628D
:105A3000A844C4F82C80032E14D03BB35244A26275
:105A4000022E25D001F0010201EB410102EB5101D0
:105A5000491E6144B1FBFCF181421BD90D20DEE6F9
:105A60000D20DCE60BB10D20D9E694F8602094F807
:105A7000633094F8618042EA036294F862301B0458
:105A800043EA08231A43A2628900E1E70D20C6E633
:105A90004900DDE74FF0FF306061206180206071D8
:105AA000032E57D194F8640094F8651040EA012061
:105AB00001284FD1691C2046FEF7EDFEF0BB67714F
:105AC00094F8320294F8331240EA0120A0F52A41FA
:105AD00055393FD114F8340FE178627840EA01601B
:105AE000A178343C090441EA02210843F94988427B
:105AF00030D194F8180294F81B1294F8192240EA55
:105B0000016094F81A12090441EA02210843F2499B
:105B100088421FD194F81C0294F81F1294F81D2299
:105B200040EA016094F81E12090441EA0221084388
:105B3000606194F8200294F8231200E00AE040EA41
:105B4000016094F8221294F82122090441EA02210A
:105B5000084320612670E1490888401C0880E080E5
:105B600000205CE610B50446002C0CD0206850B133
:105B7000017841B1C188A288914204D14078FEF7F2
:105B800079FDC00701D0092010BD2068FEF748FE4E
:105B900008B1002010BD0F2010BD2DE9F74181B0E4
:105BA0001746029800906846FFF7CEFD0446200095
:105BB00002D50B2004B084E4C84E361D56F824509C
:105BC0004FF000082DB1E86801F031FC90B185F884
:105BD0000080019931B181F80080E0B20C3101F010
:105BE0001BFC48B1019846F8240008B1012F05D0EC
:105BF0000020DFE70220DDE70220DBE7002202A928
:105C000001A8FFF7FEFD044621460198FEF70BFEB2
:105C10002046CFE72DE9F747ADF50D7D0646002E6E
:105C20000FD04FF00008C6F8008002F01F0727F0E1
:105C300001028EA984A8FFF7E4FD0546280005D0DF
:105C400095E009200DF5107DBDE8F08781A88A90C8
:105C500001A88B9084A88E99FFF741FD0546899C89
:105C60000DB904B9062517F01C0F50D04DB1042D05
:105C700003D184A8FFF702FB054647F00807899C7B
:105C800008E0E07A10F0110F01D0072502E0780754
:105C900000D50825D5BB380744D5FEF795FDA07380
:105CA000010AE173020C2274030E6374A075E1759E
:105CB0002276637684F80B8084F81C8084F81D803B
:105CC00084F81E8084F81F8021468498FFF7F7F837
:105CD000814600212046FFF701F9849901200871CF
:105CE000B9F1000F1ED08498D0F830A04946FEF7D5
:105CF00067FF0546280015D18498A9F10109C0F86D
:105D0000109051468498FEF7C6FD05460AE04DB94D
:105D1000E07AC10601D5042504E0B90702D5C00721
:105D200000D007253DB9380701D547F020078498F2
:105D3000006BF0613462D5B9B77186F807802146EF
:105D40008498FFF7BCF83061207FE17F627F40EAF2
:105D50000160A17F090441EA02210843F060C6F80E
:105D60000880C6F8188084983060C088B0802946C2
:105D70008498FEF758FD284664E72DE9F84F04465D
:105D80008846164699460020C9F800002046FFF7CD
:105D9000E9FE054635B129462068FEF744FD284650
:105DA000BDE8F88FE17921B12068FEF73CFDE0798C
:105DB000F6E7A079C0070BD0D4E90210401A86425A
:105DC00000D9064604F124004FF0010A0090BDE01E
:105DD00007212068FEF727FD0720E1E72268A16878
:105DE0005089B1FBF0F300FB1313002B78D1B1FB0A
:105DF000F0F093785B1E1840C5B29DB969B11046AA
:105E00006169FEF7C8FD022809D20220E071022173
:105E10002068FEF708FD0220C2E72069F3E7411C75
:105E200020D0606161692068FEF7A9FD10B300EB26
:105E3000050B20684189B6FBF1F7B7B38178EA1901
:105E40008A4200D94F1B40783B465A464146FEF7EE
:105E500021FCB8B184F807A001212068FEF7E3FC1B
:105E600001209DE784F807A001212068FEF7DBFCF4
:105E7000012095E70220E07102212068FEF7D3FCA3
:105E800002208DE7A07940060BD5A069A0EB0B009E
:105E9000B84206D221684A89009900FB0280FEF7C9
:105EA00099FC206845897D4346E0FFE7A2695A4591
:105EB0002BD0A179490618D5407801230099FEF727
:105EC00026FC70B184F807A001212068FEF7ABFC26
:105ED000012065E75252614172724161DC0200208B
:105EE00015E0A07920F04000A071206801235A46F7
:105EF00040780099FEF7CEFB38B184F807A0012165
:105F00002068FEF790FC01204AE7C4F818B020682A
:105F1000A1684089B1FBF0F200FB1212851AB5426C
:105F200000D93546B1FBF0F200FB12100119243103
:105F30002A464046FEF74EFCA844A0682844A060CC
:105F4000D9F800002844C9F80000761B002E7FF421
:105F500045AF00212068FEF766FC002020E72DE910
:105F6000F84F04468846164699460020C9F80000B6
:105F70002046FFF7F7FD05462DB129462068FEF7BC
:105F800052FC28460CE7E17921B12068FEF74BFC72
:105F9000E07905E7A079800705D407212068FEF79E
:105FA00042FC0720FCE6A068811900D3002604F11A
:105FB00024004FF0010A0090C9E02268A0685189CE
:105FC000B0FBF1F301FB1303002B7DD1B0FBF1F12A
:105FD00093785B1E1940CDB23DBB68B11046616934
:105FE000FEF720FE002870D001280DD0411C13D0F0
:105FF00060612169C1B118E020690028F2D1002157
:106000001046FEF70FFEEDE70220E0710221206846
:10601000FEF709FC0220C3E684F807A001212068EE
:10602000FEF701FC0120BBE62061A079400613D5F4
:1060300020680123A26940780099FEF768FB38B117
:1060400084F807A001212068FEF7EDFB0120A7E6F8
:10605000A07920F04000A07161692068FEF78FFCF4
:10606000D0B100EB050B20684189B6FBF1F76FB3A7
:106070008178EA198A4200D94F1B40783B465A463C
:106080004146FEF744FB78B184F807A0012120685F
:10609000FEF7C9FB012083E60220E071022120689F
:1060A000FEF7C1FB02207BE6A069A0EB0B00B84223
:1060B0000ED221684A8900FB02810098FEF78AFB14
:1060C000A07920F0400002E01EE043E004E0A0716F
:1060D000206845897D4330E0A169594512D0D4E953
:1060E000021291420ED2407801235A460099FEF7DF
:1060F000D1FA38B184F807A001212068FEF793FB9C
:1061000001204DE6C4F818B02068A1684089B1FBB1
:10611000F0F200FB1212851AB54200D93546B1FBE8
:10612000F0F200FB1210204424302A464146FEF7CC
:1061300051FBA07940F04000A071A844A068284419
:10614000A060D9F800002844C9F80000761B002E92
:106150007FF433AFD4E90201884200D9E060A0792E
:1061600040F02000A07100212068FEF75CFB0020B9
:1061700016E670B504462046FFF7F4FC0546002DF0
:1061800048D1A079810645D5400612D52068012363
:1061900004F124014078A269FEF7B9FA28B101217F
:1061A0002068FEF740FB012070BDA07920F0400080
:1061B000A071E1692068FEF76EFB054655BB256AB4
:1061C000E87A40F02000E872207B2877A089000A56
:1061D0006877E068000CA877E068000EE87728464A
:1061E0002169FEF77BFEFEF7EFFAA875010AE97553
:1061F000010C2976000E68760020A874E874A07956
:1062000020F02000A0712168012008712068FEF7AD
:106210005CFB054629462068FEF705FB284670BD55
:1062200070B505462846FFF7A4FF04464CB928463A
:10623000FFF798FC044624B9286800212960FEF77E
:10624000F2FA204670BD2DE9F04704460D4620467F
:10625000FFF788FC80465FEA080005D041462068C9
:10626000FEF7E1FA4046EFE4E17921B12068FEF75C
:10627000DAFAE079E8E4E068A84203D2A179890774
:1062800000D40546A1680027A7604FF00109002D42
:1062900072D020688678428956434FF0020A69B16D
:1062A0006A1E491EB2FBF6F2B1FBF6F39A4205D321
:1062B000701E8143A1606D1A61690BE0216941B9CB
:1062C0000021FEF7AFFC0146012905D0481C0BD088
:1062D00021616161B1BB4FE084F807A00221206811
:1062E000FEF7A1FA0220AFE484F8079001212068AC
:1062F000FEF799FA0120A7E4A079800706D5206867
:10630000FEF790FC014629B9354623E02068FEF7E8
:1063100042FB0146481C0DD0012903D92068806941
:10632000884210D884F807A002212068FEF77BFA83
:10633000022089E484F8079001212068FEF773FAAF
:10634000012081E404E06161A0683044A060AD1BDD
:10635000B542D1D8A0682844A06020684289B5FB26
:10636000F2F302FB13523AB1FEF709FB10B32168B6
:106370004989B5FBF1F10F182068A1684289B1FB8A
:10638000F2F302FB131189B3A269BA4230D0A179AA
:1063900004F12405490619D5407801232946FEF762
:1063A000B6F978B184F8079001212068FEF73BFA2E
:1063B000012049E484F807A002212068FEF733FA9F
:1063C000022041E4A07920F04000A0712068012360
:1063D0003A4640782946FEF75DF940B184F80790C7
:1063E00001212068FEF71FFA01202DE400E0A761DB
:1063F000D4E90201884204D9E060A07940F020008D
:10640000A07141462068FEF70EFA40461CE433B501
:10641000ADF5057D0546002D07D0002286A984A88C
:10642000FFF7EFF9044624B126E009200DF5077DBA
:1064300030BD8498286081A8A86101A8E861284639
:106440008699FFF74CF904469CB9696941B1C87A4D
:10645000C00604D58498FEF732FDA86000E005244C
:106460003CB98498C088A88000212846FEF72DFCFE
:106470000446042C00D105240CB1002028602146DC
:106480008498FEF7D0F92046D0E770B50446204640
:10649000FFF768FB054625B9206800212160FEF75B
:1064A000C2F9284670BDF0B5ADF5037D05460F462F
:1064B0002846FFF757FB04461CBB67B180A8A861BC
:1064C000C5F81CD000212846FEF77FFE04460026B2
:1064D000042C06D007E000212846FEF7F6FB044610
:1064E0000FE02E61002464B939462846FEF77BFF91
:1064F00000212846FEF738FC0446042C01D12E6109
:10650000002421462868FEF78EF90DF5037D20460C
:10651000F0BD33B5ADF50D7D0D4600228DA984A8E3
:10652000FFF76FF9044694B981A88A9001A88B906F
:1065300084A88D99FFF7D3F8044644B9899828B107
:106540002DB1294684A8FEF74EFF00E0062421461F
:106550008498FEF768F920460DF50F7D30BD2DE9D2
:10656000F74F8B461446002269462046FFF749F94B
:10657000804626685FEA08005CD1D6E90509A9F1E2
:106580000201884202D8CBF8000053E096F800A040
:106590000025BAF1010F04D0776A00200024B8B1B9
:1065A00022E0022421463046FEF7F5F9411C03D0D3
:1065B000012804D030B106E04FF0010833E04FF07D
:1065C000020830E06D1CB069641C8442EAD32AE002
:1065D00039467F1C3046FEF75EF980465FEA0800C8
:1065E00021D106F134047089BAF1020F0CD0217860
:1065F000E278637841EA0261A278120442EA032257
:106600001143090109D009E02178627851EA022199
:1066100000D16D1CA41C801E02E06D1C241D001FF7
:10662000B9F10109BBD17561707940F00100707159
:10663000CBF8005041463046FEF7F5F84046BDE83D
:10664000FE8F70B504462046FFF78CFA05462800F9
:1066500007D1E07908B1054603E0A079800700D4AE
:106660000725EDBBD4E90201814240D9E060A17960
:1066700041F02001A17138B161692068FEF78BF902
:106680000646701C08D008E021692068FEF798FAD9
:1066900005460020206115E00125012E00D10225CC
:1066A00085B920688169B1420CD96FF07042616987
:1066B000FEF7F0F90546280004D131462068FEF7C0
:1066C0007FFA05469DB9A079400610D520680123C0
:1066D00004F124014078A269FEF719F818B100E02E
:1066E00007E0012503E0A07920F04000A07105B18A
:1066F000E57129462068FEF796F8284670BD71B509
:10670000ADF5157D0025012295A98CA8FFF779F834
:106710000446E4BB80A89290CDF84CD28CA8959901
:10672000FEF7DDFF044694BB919E2EB1F07AC007C0
:1067300000D0072414B120E00624FBE731468C98F2
:10674000FEF7BDFB0546C5B1F07AC00615D524227B
:106750008CA983A8FEF73EF88595022183A8FEF751
:10676000B4FA04464CB9002183A8FEF72EFD044676
:1067700004B90724042C00D1002444B98CA8FEF7E6
:1067800003FE04463CB935B129468C9800E007E089
:10679000FEF716FA04461CB98C98FEF796F80446E4
:1067A00021468C98FEF73FF80DF5167D204670BD0A
:1067B0002DE9F14FADF50E7DFEF706F806460122F4
:1067C0008EA984A8FFF71DF8044620007DD181A87A
:1067D0008A9001A88B9084A88E99FEF780FF0446CA
:1067E000200000D10824042C6FD100218498FEF7EA
:1067F00019FA80460024B8F1000F00D10724B8F13F
:10680000010F00D10224B8F1FF3F00D101241CB9CF
:106810008498FEF716F804464FF0100A4FF001096D
:10682000C4BB41468498FEF7AAF88346849800F1D9
:106830003405428900212846FDF7D5FF0B2220218F
:106840002846FDF7D0FF2E272F7085F80BA0AE75D8
:10685000300AE875300C2876300E687641462846B6
:10686000FEF73CFB05F12000202229468D90FDF724
:10687000B1FF85F82170869984980278032A03D1A4
:10688000806A884200D100218D98FEF727FB84980A
:10689000877815E016E08498C0F830B00BF1010B52
:1068A00080F804908498FDF7CCFF0446200009D1BD
:1068B0008498002142892846FDF795FF7F1EFFB28C
:1068C000002FE8D12CB984A800E01CE0FEF7D6FC2C
:1068D000044624B141468498FEF772F913E0899882
:1068E00080F80BA08675310AC175310C0176310E26
:1068F00041764146FEF7F2FA849880F80490849835
:10690000FDF7E3FF044621468498FDF78CFF0DF563
:106910000F7D2046BDE8F08F77B5ADF50D7D0D46B6
:10692000164601228DA984A8FEF76BFF0446CCB958
:1069300081A88A9001A88B9084A88D99FEF7CFFE3C
:1069400004467CB98998A8B106F02701C27A0D40A7
:106950008A431543C5728499012008718498FDF714
:10696000B4FF044621468498FDF75DFF0DF5107DC8
:10697000204670BD0624F5E773B5ADF51C7D0122F8
:106980009CA993A8FEF73DFF0446002C6DD1939877
:106990008A9081A8999001A89A9093A89C99FEF753
:1069A0009EFE0446002C60D19898A8B198991522B3
:1069B0000B3184A8FDF70EFF242293A98AA8FDF7C6
:1069C00009FF9DA8FEF7C0FE002807DB8AA89D9955
:1069D000FEF785FE044602E0042446E00B2404B9D9
:1069E0000824042C41D18AA8FEF748FC0446E4BBE5
:1069F0008F9D13220DF2122105F10D00FDF7EAFE25
:106A00009DF8100240F02000E8729398012606716C
:106A1000E87AC0061FD58C99959888421BD02946E4
:106A20009398FEF74CFA01469398FDF7A8FF0146AC
:106A300039B19398FDF72FFF04469398543014B161
:106A400009E0022407E041782E2904D18C99FEF751
:106A500045FA9398067144B993A8FEF795FC04464D
:106A60001CB99398FDF731FF044621469398FDF732
:106A7000DAFE0DF51E7D204670BD33B5ADF50D7DFA
:106A80000D4601228DA984A8FEF7BBFE0446E4B999
:106A900081A88A9001A88B9084A88D99FEF71FFE8B
:106AA000044694B98998B0B1A9798175E988090A31
:106AB000C17529790176A988090A4176849901204E
:106AC00008718498FDF701FF044621468498FDF77C
:106AD000AAFE204640E50624F7E72DE9F74F88B0E7
:106AE00090460998012802D913200BB012E708A894
:106AF000FEF72AFE002801DA0B20F6E7FE4951F8DE
:106B0000206056B100213170C0B205900598FDF7A4
:106B1000B7FDC10703D00320E7E70C20E5E74007F6
:106B200001D50A20E1E706F10A0202210598FDF7E6
:106B30002DFE30B97089B0F5805F02D8B0F5007FC6
:106B400001D20120D1E702AA01210598FDF71EFE1E
:106B500010B90298802801D20120C6E7099911B125
:106B60004FF0000A01E04FF03F0AA0EB0A0102914A
:106B7000A8F1010018EA000F01D04FF00008B8F1A9
:106B8000000F13D170894FF4FA62400AB2FBF0F0A3
:106B9000B1FBF0F20020D94B00E0401C33F810505C
:106BA0009542FAD8D54A163232F81080B8F5007FEF
:106BB00002D37089B8FBF0F8B8F1000F01D14FF0A3
:106BC0000108B8F1800F01D94FF08008B1FBF8F04F
:106BD000012740F6F672904200D302274FF6F67274
:106BE000904200D30327032F1BD0012F24D0420053
:106BF000121D7089521E0244B2FBF0F90125AA034E
:106C0000B2FBF0F001900AEB050B0BEB0900019AC7
:106C1000841804EB0800A0EB0A00884212D90E2069
:106C200063E77289072303EB80001044B0FBF2F99D
:106C3000202500200190E6E700EB4000401C4208C0
:106C4000D21CD6E703AA03210598FDF79FFD20B9C2
:106C5000039810B1B0F5004F01D9012003900398BB
:106C60002118491E401E8143081B0390032F0CD09E
:106C700081440298411BA1EB09020199511AB1FB11
:106C8000F8F10491022F03D007E005448344F0E7B4
:106C9000049940F6F672914206D3032F06D1049967
:106CA0004FF6F672914201D20E201EE7032F02D05A
:106CB000012F02D006E00C240AE0B0F5803F01D29B
:106CC000012405E0B0F5803F01D2042400E0062451
:106CD000099810B1F020069039E0728906F134006D
:106CE00000210790FDF77FFD06F5F9700121417045
:106CF00081700022C2700471FE214171029943F635
:106D0000C1635144B1FBF3F103913F2343EA910482
:106D10008471C171037242728272C27202990173EC
:106D20000A0A42730A0C8273090EC173552086F851
:106D30003202AA2086F8330201230022079905981F
:106D4000FDF7E5FC08B10120CFE6F820069006F13A
:106D50003404728900212046FDF745FD0B2268A10D
:106D60002046FDF737FD7089E072000A207384F831
:106D70000D80A573280AE07301202074032F0BD027
:106D800040026074000AA0740298B0F5803F05D2FA
:106D9000E074000A20750AE00020F2E704F8200FF2
:106DA000010A6170010CA170000EE070203C069891
:106DB00060753F20207600206076FF21A176E07686
:106DC00084F81CA04FEA1A2060774FEA1A40A07797
:106DD0004FEA1A60E077FDF7F7FC03908022292143
:106DE000032F24D016346074030AA374030CE374D5
:106DF000000E207584F800904FEA19206070A2738D
:106E00002174163C132241A104F12B00FDF7E2FC92
:106E1000552084F8FE01AA2084F8FF010123524680
:106E200021460598FDF773FC60B301205DE625342B
:106E3000A077030AE377030C84F82030000E84F86F
:106E4000210004F8019C4FEA192020704FEA1940F4
:106E500060704FEA1960A0700220E071002020727B
:106E60006072A0720123E372207306236373A07320
:106E7000E2766177253C132229A104F14700FDF752
:106E8000A9FCC5E7032F06D101230AF1060221461A
:106E90000598FDF73CFC5D464FF0000B7289002120
:106EA0002046FDF7A0FC06980390032F12D0012F77
:106EB0000ED06FF0FF010143039121700398000A87
:106EC00060700398000CA0700398000EE07039E029
:106ED0001849F0E760F0FF00039020700398000A63
:106EE00060700398000CA0700398000EE070FF2003
:106EF00020716071A0711FE0E0020020DC14030823
:106F0000EBFE904D53444F53352E30004E4F204EE4
:106F1000414D4520202020464154202020202000A3
:106F20004E4F204E414D45202020204641543332C3
:106F30002020200000FFFF00E07120726072A0722C
:106F40000F20E0722A466D1C012321460598FDF7AB
:106F5000DEFB08B10120C8E5728900212046FDF75B
:106F600042FC012003900CE02A466D1C01232146BF
:106F70000598FDF7CCFB08B10120B6E50398401C4D
:106F8000039003984845EFD30BF1010BBBF1000FC1
:106F900084D0032F01D0DDF804802A466D1C012324
:106FA00021460598FDF7B3FB08B101209DE5B8F136
:106FB0000108F2D1032F3AD1522020706070612075
:106FC000A0704121E170722284F8E42184F8E52167
:106FD00084F8E61184F8E7010498401E84F8E8017B
:106FE000010A84F8E911010C84F8EA11000E84F812
:106FF000EB01022084F8EC01002084F8ED0184F814
:10700000EE0184F8EF01552084F8FE01AA2084F8EF
:10701000FF0101230AF1010221460598FDF777FBE4
:1070200001230AF1070221460598FDF770FB0022B3
:1070300011460598FDF7AAFB08B1012055E500208F
:1070400053E52DE9FC410746904600253C464E1E7F
:107050000FE06B46012201A94046FEF78EFE009824
:10706000012808D19DF8040004F8010B6D1C0A28C2
:1070700001D0B542EDDB0020207015B13846BDE8E7
:10708000FC810020FBE738B504466068002816DB69
:10709000451C204401733D2D0DDB6B462A4604F14F
:1070A0000C012068FEF75BFF0098A84201D1002583
:1070B00001E04FF0FF356560A068401CA06038BD5E
:1070C00000B595B00291002103910491014602A8F8
:1070D000FFF7D9FF039800280DDBDDE9020201ABC1
:1070E00005A9FEF73CFF30B901990398884202D107
:1070F000049815B000BD4FF0FF30FAE710B594B01A
:107100000446019100200290039003E0641C01A852
:10711000FFF7B9FF21780029F8D1029800280DDB8C
:10712000DDE901026B4604A9FEF719FF30B90099A9
:107130000298884202D1039814B010BD4FF0FF307E
:10714000FAE70FB42DE9F0479AB001904FF000082C
:10715000CDF80880CDF80C8024A8199014AF23989E
:1071600010F8011B2390002977D0252903D001A80E
:10717000FFF789FFF3E700252E4610F8011B239047
:10718000302902D02D2905D012E0012510F8011B6D
:1071900023900DE0022510F8011B239008E006EB78
:1071A000860001EB4006303E239810F8011B239027
:1071B000A1F130000928F2D96C2901D04C2905D160
:1071C00045F00405239810F8011B2390002944D0B2
:1071D0000A46A2F16100192801D8203AD2B24F2AFA
:1071E00046D006DC422A41D0432A37D0442A06D171
:1071F00040E0532A07D0552A3CD0582A3CD001A859
:10720000FFF741FFABE7199850F8049B1990002451
:1072100000E0641C19F804000028FAD1A80704D57E
:107220000DE0202101A8FFF72EFF2046641CB0428C
:10723000F7D304E009F1010901A8FFF724FF99F849
:1072400000100029F6D103E0202101A8FFF71BFF61
:107250002046641CB04282D2F6E772E0199810F81A
:10726000041B199001A8FFF70EFF78E7022304E042
:10727000082302E00A2300E01023680705D51998C7
:10728000199C0068241D199406E0442A07D0199817
:10729000199C0068241D1994442A06D00AE0199804
:1072A000199C0068241D1994F6E7002802DA404270
:1072B00045F008050024B0FBF3F203FB1202D2B242
:1072C000B0FBF3F0092A05D9782917D04FF0070C45
:1072D0006244D2B23032A446641C07F80C2008B1D4
:1072E000102CE8D3280703D52D222046641C3A54DD
:1072F000A146E80705D04FF0300A09E04FF0270C0F
:10730000E6E74FF0200A03E0514601A8FFF7BBFE75
:10731000A80704D4484609F10109B042F4D3641E19
:1073200001A8395DFFF7AFFE002CF8D103E051460C
:1073300001A8FFF7A8FE484609F10109B04294D21E
:10734000F5E7CDF864800298002810DBDDE9010242
:1073500018AB04A9FEF703FE48B9189902988842B1
:1073600005D103981AB0BDE8F0075DF814FB4FF0A3
:10737000FF30F7E770B580281FD345F2205409B1DC
:10738000214D00E0214D00231022E11A01EBD171C3
:1073900003EB610135F82160864207D001D20B462C
:1073A00000E00C46A2F10102002AEED132B14FF00A
:1073B000010000EB410035F8100070BD4FF00000F7
:1073C00070BD70B5802806D2A0F16101192901D8DD
:1073D000203880B270BD0C2300224FF4F7740C4D9E
:1073E000A11A02EB510135F81160864205D001D295
:1073F0000A4600E00C465B1EF2D1002BEAD005489D
:1074000030F8110070BD00008C69040808150308ED
:1074100010BE0508ECC1050810B50C4601210BA0F3
:10742000FBF700F82060002800D0012010BDFBF71A
:107430000EB810B54FF47A71FBF714F808B10020BC
:1074400010BD012010BDFBF769B8000074657374AE
:107450005F6D757800000000704770470348007A40
:10746000FAF746B90148807AFAF742B95C920020EF
:1074700010B54FF42051044803F0C6FFBDE810409A
:10748000024806F095B90000A0B50020003C0608AF
:1074900070B50C46154699B298B2F9F7DBFBA9B264
:1074A000A0B2BDE87040F8F74ABF084691B280B27A
:1074B000F8F767BF2DE9F04104460E4617463A46F5
:1074C00031462046FFF7F1FF054620698068804776
:1074D00085EA00033A4631462046BDE8F041D7E749
:1074E0002DE9F0478146DDF820800F4614461E4600
:1074F000F8480068C16BD1F800A0007CC0070BD130
:107500001AE03D4605E0224629464846FFF7D2FFED
:107510006D1CB542F7DD641C4445F2DDBDE8F08723
:107520003D4606E05346224629464846FFF7B0FF4F
:107530006D1CB542F6DD641C4445F1DDEEE708B58F
:107540000092FFF7CDFF08BD08B500930B46FFF78B
:10755000C7FF08BD2DE9FF5F8346DDE90E471098A0
:107560001D46D0F80090D0F804800E19D9484FF08D
:10757000800A0068007C10F0030020D0012803D0AE
:10758000022833D003282FD1DBF810008068804711
:10759000804628782AFA04F108420BD03146584632
:1075A000029AFFF782FF80EA080331465846029AA2
:1075B000FFF76EFF761C641C082C2BD02CE028787B
:1075C0002AFA04F1084201D0434600E04B46314616
:1075D000761C5846029AFFF75BFF641C082C01D109
:1075E00000246D1C7F1EEAD1BDE8FF9F28782AFA8F
:1075F00004F1084205D0434631465846029AFFF747
:1076000047FF761C641C082C01D100246D1C7F1ED2
:10761000ECD1E9E700246D1C7F1EBAD1E4E72DE927
:10762000FF5F8346DDE90F890E9C1E4637780D19F2
:10763000A8484FF0C00A0068007C10F003001AD080
:107640000228D1D1B9F1000F53D0C4F10300410099
:10765000C1F106022AFA02F03840C84030B159F8A8
:10766000203029465846029AFFF712FF6D1C641C11
:10767000042C37D039E0B9F1000F1AD0C4F103005F
:107680004000C0F106022AFA02F13940C14059F81F
:10769000213029466D1C5846029AFFF7F9FE641CFA
:1076A000042C02D1002416F8017FB8F10108E5D1BD
:1076B0009AE7C4F103004000C0F106012AFA01F381
:1076C0003B40C34029466D1C5846029AFFF7E0FE36
:1076D000641C042C02D1002416F8017FB8F10108C3
:1076E000E7D181E7002416F8017FB8F10108ACD199
:1076F0007AE7C4F103004000C0F106012AFA01F361
:107700003B40C34023B129465846029AFFF7C0FECA
:107710006D1C641C042C02D1002416F8017FB8F102
:107720000108E6D160E72DE9FF5F8346DDE90F89B7
:107730000E9C1E4637780D1966484FF0F00A006817
:10774000007C10F003001AD0022835D1B9F1000FE7
:1077500053D0C4F101008100C1F104022AFA02F001
:107760003840C84030B159F8203029465846029A6E
:10777000FFF78EFE6D1C641C022C37D039E0B9F186
:10778000000F1AD0C4F101008000C0F104022AFAEF
:1077900002F13940C14059F8213029466D1C584644
:1077A000029AFFF775FE641C022C02D1002416F821
:1077B000017FB8F10108E5D116E7C4F101008000AE
:1077C000C0F104012AFA01F33B40C34029466D1C75
:1077D0005846029AFFF75CFE641C022C02D100247A
:1077E00016F8017FB8F10108E7D1FDE6002416F88C
:1077F000017FB8F10108ACD1F6E6C4F101008000C8
:10780000C0F104012AFA01F33B40C34023B12946E9
:107810005846029AFFF73CFE6D1C641C022C02D1F4
:10782000002416F8017FB8F10108E6D1DCE62DE965
:10783000F0478046DDE908570E4691461C4625482C
:107840000068007C10F0030003D0022810D147BB71
:1078500034E05FB916E020784A46314657F82030C8
:107860004046FFF715FE6D1E761C641C002DF2DCF1
:1078700054E623784A4631464046FFF709FE6D1E1E
:10788000761C641C002DF4DC48E6217831B157F8F1
:1078900021304A4631464046FFF7FAFD6D1E761C00
:1078A000641C002DF1DC39E6237823B14A463146C9
:1078B0004046FFF7EDFD6D1E761C641C002DF3DCC9
:1078C0002CE62DE9F04107460E4690461C46069DE3
:1078D0000BE000000C030020238842463146384666
:1078E000FFF7D6FD6D1E761CA41C002DF4DCBDE850
:1078F000F0812DE9F04107460E4690461C46069D54
:1079000008E04246314638462368FFF7C1FD6D1E48
:10791000761C241D002DF4DCE9E72DE9FF4F83B030
:107920001546DDE914BADDE91284DDE910701E4662
:1079300008284BD008DC01280DD0022821D00428CB
:107940001CD14FF000093EE0102851D0202815D15D
:107950004FF0000968E04FF000090DE0CDE900B6F6
:10796000CDF808A0DDE9030109EB05022346FFF786
:10797000F1FD444409F10109B945EFDB07B0BDE869
:10798000F08F4FF000090DE0CDE900B6CDF808A06A
:10799000DDE9030109EB05022346FFF740FE4444FD
:1079A00009F10109B945EFDBE8E7CDE900B6CDF80B
:1079B00008A0DDE9030109EB05022346FFF7B3FE4A
:1079C000444409F10109B945EFDBD7E74FF000095D
:1079D0000BE0CDE9006ADDE9030109EB050223466E
:1079E000FFF725FF444409F10109B945F1DBC5E77B
:1079F0004FF000090AE00096DDE9030109EB0502FA
:107A00002346FFF75EFF444409F10109B945F2DB63
:107A1000B4E70096DDE9030109EB05022346FFF711
:107A200068FF444409F10109B945F2DBA6E770B5E6
:107A30000446A06800280AD11C2003F02FFDA06096
:107A4000054620698068804708F088FDA861A06825
:107A500008B1002070BD012070BD80680F291FD2C1
:107A6000DFE801F01E080A0C0E1E1E1E101214166E
:107A7000181A1C004068704780687047C0687047DB
:107A80000069704780697047002070470120704787
:107A90000120704700207047002070470020704789
:107AA0004FF0FF30704700207047806800220A8046
:107AB0004A808289521E8A80008A401EC880704790
:107AC0001CB50091019280696A46032100F0AFF86D
:107AD0001CBD38B504460D46002000902046FFF737
:107AE000A6FFA268002A06D0156000956A4602210A
:107AF000A06900F09CF838BD70B506460C461546E6
:107B00003046FFF794FFB068002802D0C4600561DA
:107B1000446170BD7CB505460C46164600210091B7
:107B200001912846FFF783FFAB68002B0CD0596901
:107B300001B9214659615C609E60009401966A46D5
:107B40000721A86900F073F87CBD70B5054628468A
:107B5000FFF76DFF044600220121A86900F067F8D5
:107B6000204370BD00228069052100F060B800222A
:107B70008069062100F05BB81CB5002301938DF8E5
:107B80000410009280696A46042100F050F81CBD80
:107B90000939082913D2DFE801F00406080A120C9B
:107BA0000E10084870470848704708487047084852
:107BB00070470848704708487047084870470020D9
:107BC00070470000D37A0108F97A0108157B010893
:107BD0004B7B0108657B01086F7B0108797B0108FD
:107BE000F8B500231A461349134804F01DF8134D45
:107BF000134E00202A88318808F084FB2A883188B7
:107C0000002008F095FB0F4C0021E088009032889E
:107C1000A388521E084606F0F7F9608800902A886B
:107C20002388521E0021012006F0EEF9F8BD002045
:107C300070470000E4340608C8C50508FC000020B1
:107C4000FA0000205C920020FAF7E9B9FCF79EB92F
:107C500070470AF0B7BA70477047704710B5FF21F8
:107C60000CA0FAF7DFFB0E490860002804D1BDE83C
:107C700010400CA016F0F4BB10BD09484FF0FF31C6
:107C80000068FAF7EFBB06480068FAF747BCFCF754
:107C900079B800004755495F4C6F636B00000000E6
:107CA000E8020020475549CBF8BDA8CAA7B0DCA31D
:107CB000A10A000038B5044620681D2806D02628F1
:107CC0007DD02046BDE838400AF0B8B9656847491C
:107CD000284602F00FFA46A1284602F041FA40F683
:107CE000030160680AF008FB43A101F0D5FA40F6F1
:107CF000040160680AF000FB40A101F053FA40F66D
:107D0000060160680AF0F8FA3EA101F04BFA40F66D
:107D1000070160680AF0F0FA3CA101F043FA40F66E
:107D20000D0160680AF0E8FA3AA101F0B5FA40F6F0
:107D3000090160680AF0E0FA054600226FF07F4111
:107D4000284603F03CF803220021284603F037F8C8
:107D50000A200346024600901E21284603F00EF832
:107D60003221284603F04AF83221284603F060F811
:107D70000221284603F092F80221284603F0AAF8CF
:107D80000121284603F06EF83223012202210F2040
:107D900002F0B0FF204C20600146284602F080FE31
:107DA0001E49206802F0D2FF00231A464FF41671D4
:107DB000FF2002F05DFF60600146284600E003E01E
:107DC000BDE8384002F04ABEA0680AF0FCFA38BDAF
:107DD0001CB50AF07BFA0346002000900190104A7F
:107DE0000B21104803F0A2FE1CBD00006C440608E5
:107DF0004454555F57494E003630730044656275F0
:107E0000670000004572726F720000005772616E69
:107E1000696E670031307300EC02002000002041E1
:107E2000B57C0108842606082DE9F05F0546002090
:107E300092469B4688460646814640241BE02846DB
:107E400041464746224600F080FB53465A46C01A38
:107E5000914110D311461846224600F067FB2D1AB7
:107E600067EB01084F4622460120002100F05EFB2F
:107E700017EB00094E41201EA4F10104DFDC484647
:107E800031462A464346BDE8F09F000038B5D0E9A8
:107E90000221491E01EB410102EBC1014268C1EB25
:107EA000011102EB81010268C1EB011102EB8102B9
:107EB000D0E9043101EB410103EB81013023A1F54D
:107EC000527191FBF3F4174D6C4302EBC41291FB1A
:107ED000F3F403FB141100921A2902DB124B1A442B
:107EE00000920C2291FBF2F3104C6343009C04EBD4
:107EF000C313009391FBF2F302FB13110C4A08E049
:107F0000491E40F2A324535C6343009C04EBC3135B
:107F100000930029F4DC0146684600F03FFB00981E
:107F200038BD00003F0C0F008051010067C2030004
:107F3000D05D060810B5441A0346944209D284184D
:107F4000114403E011F8013D04F8013D521EF9D23D
:107F500010BD40EA0104A40703D009E010C9121FB4
:107F600010C3042AFAD203E011F8014B03F8014BC5
:107F7000521EF9D210BDD2B201E000F8012B491E09
:107F8000FBD270470022F6E710B513460A460446B6
:107F90001946FFF7F0FF204610BD421E12F8013FC0
:107FA000002BFBD111F8013B02F8013B002BF9D16A
:107FB000704730B505462A460B4612F8010B13F8F8
:107FC000014B08B1A042F8D01CB1002802D06D1CB2
:107FD000F1E7284630BD421C10F8011B0029FBD1F7
:107FE000801A704710B5002200E0521C835C8C5C44
:107FF000A34201D1002BF8D1D8B2E1B2401A10BD92
:1080000030B504460020034600E05B1C934203D2D7
:10801000E05CCD5C401BF8D030BD034611F8012B6D
:1080200000F8012B002AF9D118467047F0B480EA15
:108030000102D40F4200B2EB410F02D202460846C1
:1080400011464A0042D0C30DDDB2C1F3C752AD1A8A
:10805000202D35DAC1F3160141F4000204B1524279
:10806000C5F1200602FA06F12A411044B3EBD05FB5
:1080700023D0C4B1012DA0EBC35009DCF0BC4FF0FC
:10808000004202EAC352DBB200F5000000F0D5BAAC
:10809000400000F1807000EBC350A0F1807040EA16
:1080A000D170490009E0490841EAC071A0EBC35012
:1080B00000F50000400800EBC350F0BC00F0B4BA7B
:1080C0006142012202EB4101001BF6E7F0BC704760
:1080D00081F00041AAE780F00040A7E780EA0102B2
:1080E00010B502F00043400022D04A001FD0010E1C
:1080F00001EB1261C0F35600C2F3560240F40000D7
:1081000042F40002A0FB022000047F39140400D0D6
:10811000401C50EA124001D44000491EC2B20C0675
:1081200004EBD010401C4008802A02D003E000205D
:1081300010BD20F00100002900DA0020184310BD16
:1081400030B480EA010202F0004530F0004221F034
:10815000004013D090B1C30DD40DC2F31601C0F38B
:108160001600E41A41F4000140F400027D3491420B
:1081700001D3641C00E04900002C02DA30BC00206E
:1081800070474FF400000023914201D3891A034342
:1081900040084FEA4101F7D151B1914202D14FF06D
:1081A000004105E002D24FF0010101E06FF0010152
:1081B00003EBC450284430BC00F036BA2DE9FE4F22
:1081C000804681EA0300C00F0C46009021F0004178
:1081D00023F00045B8EB0200A94105D240462146F4
:1081E00090461C460B46024623F00040104347D001
:1081F000270DC7F30A00C3F30A510290401A0190F9
:1082000040286BDAC3F3130040F4801B00989246B9
:1082100020B10023D2EB030A63EB0B0B0198594604
:10822000C0F14002504600F081F906460D46504626
:108230005946019A00F099F910EB080061410024B9
:1082400087EA115284EAE7731A4340D0009A62B376
:10825000019A012A4FEA075215DC001B61EB02016B
:108260004FF0004202EA0752CDE90042001C41F5FE
:10827000801132462B4600F01DFA03B0BDE8F08FA6
:1082800040462146F9E7001B61EB0201001C41F565
:10829000801300185B412018A2F5001747EB03017B
:1082A00040EAD570B6196D4111E06D084FEA360607
:1082B00045EAC0754FEA0752001B61EB0201001C42
:1082C00041F5801149084FEA30000019514132460A
:1082D0002B4603B0BDE8F04F00F0DDB90098012255
:1082E00040000023D0EB020263EBE07300982146CC
:1082F0004FEAE074B8EB000061EB0401E9E783F0BA
:1083000000435BE781F0004158E72DE9F04D81EA39
:10831000030404F0004B21F0004514464FF0000A1E
:1083200023F0004150EA050220D054EA01021DD09A
:10833000C5F30A570246C5F31303C1F31300C1F393
:108340000A5640F4801543F48013A7EB0608101B6F
:10835000D64608F2FD3873EB050002D308F1010898
:1083600001E092185B41B8F1000F03DA00200146EA
:10837000BDE8F08D00204FF48011064684460EE0E3
:10838000171B73EB050705D3121B63EB05030643AD
:108390004CEA010C49084FEA300092185B4150EA60
:1083A0000107EDD152EA030012D082EA040083EA09
:1083B0000501084305D0101BAB4106D20122002362
:1083C00006E000224FF0004302E06FF0010253107C
:1083D0001AEB06004CEB085110EB0A0041EB0B01C5
:1083E000BDE8F04D00F057B9C10F80EAE0700844D5
:1083F000CA079623002100F020B9962300221146D7
:1084000000F01BB90EB540F2334102910021CDE9D5
:1084100000110A460B4600F04DF903B000BD00F014
:10842000004220F00040C10DC0F3160040F40000EF
:108430007F2901DA00207047962903DCC1F19601FB
:10844000C84001E096398840002AF4D04042704785
:1084500020F00040C10DC0F3160040F400007F2959
:1084600001DA00207047962903DCC1F19601C8406B
:10847000704796398840704700F0004230F0004065
:108480000AD0C10D01F56071C0F3160042EA015136
:10849000C20840071143704700200146704701F0B1
:1084A000004330B421F0004150EA010206D00A0D29
:1084B000A2F56072C1F31301002A02DC30BC002077
:1084C0007047440F44EAC104C100E01830BC00EB1F
:1084D000C25000F0A9B80000002801DBC0F1004044
:1084E000002901DBC1F1004181427047002801DB16
:1084F000C0F10040002901DBC1F100418842704712
:1085000030B50B46014600202022012409E021FA63
:1085100002F59D4205D303FA02F5491B04FA02F560
:108520002844151EA2F10102F1DC30BD202A04DB33
:10853000203A00FA02F1002070479140C2F1200376
:1085400020FA03F3194390407047202A04DB203AB5
:1085500021FA02F00021704721FA02F3D040C2F163
:1085600020029140084319467047202A06DBCB17AA
:10857000203A41FA02F043EAE07306E041FA02F3DE
:10858000D040C2F1200291400843194670470000D4
:10859000014900F003B8000030E1002010B5006888
:1085A0003C22B0FBF2F302FB1303B0FBF2F00B60D2
:1085B000B0FBF2F302FB1303B0FBF2F018224B60A6
:1085C000B0FBF2F302FB1303B0FBF2F0021D8B6071
:1085D0000723B2FBF3F403FB1422800040F2B553EF
:1085E00000F66C308A61B0FBF3F2B0FBF3F403FBEE
:1085F0001400443280084A61C8613B2802D39207C4
:1086000000D0401C0022074C13460A61E25C824203
:1086100003D8801A5B1C0B61F8E7401CC860084651
:1086200010BD0000E85D06080029A8BF7047401C87
:10863000490008BF20F00100704710B4B0FA80FC78
:1086400000FA0CF050EA010404BF10BC704749B1B5
:10865000CCF1200421FA04F411FA0CF118BF012125
:1086600021430843A3EB0C01CB1D4FEA00614FEA05
:10867000102042BF002010BC704700EBC3501044D4
:108680000029A4BF10BC7047401C490008BF20F05F
:10869000010010BC704710B5141E73F1000408DA15
:1086A000401C41F1000192185B411A4301D120F0B6
:1086B000010010BD2DE9F04D92469B4611B1B1FA73
:1086C00081F202E0B0FA80F220329046FFF72EFFEE
:1086D00004460F4640EA0A0041EA0B0153465A4657
:1086E000084313D0114653EA010019D0C8F14002E3
:1086F0005046FFF72AFF05460E4650465946424669
:10870000FFF714FF084305D0012004E02046394656
:10871000BDE8F08D0020054346EAE0762C43374360
:108720000A986305E40AA0EB08000022FD0A44EA67
:1087300047540A3002D500200146E9E70105101927
:108740006941DDE9084500196941BDE8F04DA2E73E
:108750002DE9FE4F81EA030404F0004421F00041BA
:1087600000944FF0000B23F0004350EA01045ED068
:1087700052EA03045BD0C3F30A54C1F30A552C44F4
:10878000A4F2F3340194A0FB0254C1F3130141F4A9
:108790008011C3F3130343F4801301FB024400FB75
:1087A000034E840A970A44EA815447EA8357A4FB9C
:1087B000076802958D0A05FB07854FEA932C04FB99
:1087C0000C542705029D4FEA065847EA1637B5EBC9
:1087D00008056EEB070C870E920E47EA811742EAF6
:1087E0008312A7FB0201B6EB0B0164EB00042B0D17
:1087F00043EA0C335E1844EB1C50DA465146E7FB63
:108800000201C5F313044FEA0B3343EA14534FEA52
:108810000432019C43EA0603A4F10C040294009C78
:10882000CDE900B4FFF746FF03B0BDE8F08F0020AC
:108830000146F9E770B521F0004303430CD0C1F3C2
:108840000A550024D5EB040564EB0403D617AD1AD2
:10885000B34102DB0020014670BD201841EB0251FC
:1088600070BD0EB5C10F80EAE0700844CA07002150
:1088700040F233438DE80E000A460B46FFF71AFF1D
:1088800003B000BDC1F30A52C1F3130140F2FF333C
:1088900041F480119A4202DA00200146704740F20A
:1088A00033439A42A2F2334202DC5242FFF74DBEFA
:1088B000FFF73CBE30B5041E71F1000404DB4FF03D
:1088C0000044404264EB0101141E73F1000405DB17
:1088D0001C464FF00043524263EB0403994208BF29
:1088E000904230BD064C074D06E0E06840F00103C1
:1088F00094E8070098471034AC42F6D3F2F71CF81E
:10890000C4600608E46006082DE9F04D00231A460D
:108910001B1A8A4103DB00200146BDE8F08DC1F33C
:108920000A52C1F3130141F480154FF0000BD10737
:1089300002D100186D41521E0027044640F2FF117B
:10894000384601EB620A3E468046024600204FF45C
:108950008011FFF7FAFDC2197141BB1846EB010007
:10896000B4EB030C75EB000C04D3E41A65EB0005C3
:1089700017460E46241908F101006D41804634283F
:10898000E3DDF91946EB0600091BA84103D24FF0BD
:10899000FF32134601E0002213461BEB070046EBB3
:1089A0000A51BDE8F04DFFF776BE70B58C1810F88F
:1089B000015B15F0070301D110F8013B2A1106D124
:1089C00010F8012B03E010F8016B01F8016B5B1E3E
:1089D000F9D12B0705D40023521E0DD401F8013B19
:1089E000FAE710F8013BCB1A921C03E013F8015B85
:1089F00001F8015B521EF9D5A142D8D3002070BD09
:108A0000002800DC40427047FEB545680446014638
:108A1000284609F016F8002817D02068364A112891
:108A20000DD006DC0B2823D00E2831D00F285ED1C4
:108A300010E0282855D0B0F5107F58D106E0926894
:108A4000002A02D0214628469047FEBD21462846EE
:108A50005268F9E7284602F0AFFD0290406E0468C4
:108A600002A802F007FE002CEFD02846A047FEBD6A
:108A7000284602F0A1FD0090683002F0F3FC009857
:108A800003216C3002F0FCFC684602F0F3FD2EE09E
:108A9000E06841C80D2802D0202822D105E0002E30
:108AA0001FDD284611F095F916E0284602F084FDF6
:108AB0000190408E00F4007401A802F0DBFD2CB19F
:108AC000002ED4DD284600F0CBF9FEBD002E03DDDC
:108AD000284611F07EF9FEBD0221284611F08FF9DB
:108AE000FEBDE06818B90021284600F083F9204651
:108AF00009F0A4FAFEBD00000C040020F0B5044605
:108B000085B08069B4F90850668A0027CDE902650E
:108B1000CDE900170490B4F90C00B4F91060C11845
:108B2000B4F90A00B4F90E50104433462A4600F056
:108B300007F80546616800F066F905B02846F0BD03
:108B40002DE9F04F85B01F46DDE911B4DDE90E5681
:108B500090468946824604F06FF816484C34CDE9B9
:108B60000204CDE900563B4642464946504609F0CC
:108B7000ADF9040018D002F01FFD102259460490F0
:108B800009F0B2F8049830220B493430FFF7D2F9DB
:108B9000094D04990C3D2868486604A802F06AFD56
:108BA000286841682046884705F096FC05B02046B5
:108BB000BDE8F08F098A010818040020F0B50446CA
:108BC00080688B4989B051F82050606800287DD0BA
:108BD000052804D006287AD0122879D1AEE0E869B9
:108BE00000284FD095E80E008DE80F0004F1100129
:108BF0000FC906F0A5F8002655F8260004F0CDFDB3
:108C0000A169E8690A1A216901446069304403F0E6
:108C100031FDA169E8690A1A21690144E069801BF4
:108C200003F028FDE169E8690A1A616901442069D5
:108C3000304403F0F1FDE169E8690A1A6169014411
:108C4000A069801B03F0E8FD761C022ED4DBA86827
:108C500004F0A3FDE069E9696669431A20694218D6
:108C60003144801C521E03F027FEE169E869A269C5
:108C70000B1A61690144101A401C921E03F01CFE7D
:108C8000EE6913E05FF0000655F8260004F085FD5C
:108C9000E069831BA069821B6069811920693044E7
:108CA00003F05EFD761C022EEEDB0226D5E9030101
:108CB000CDE900016169E06908444310A069891C9D
:108CC000821B2069304403F06FFC02E089E012E06F
:108CD0008AE0D5E90501CDE90001E3696069012178
:108CE000184401EB6001A0699B1E821B206930447F
:108CF00003F05AFC78E0206802F05EFC04902068E3
:108D00000AF044FE40B1A06808B1002008E00498D1
:108D1000006F28B1012003E00498406F00B10220E9
:108D2000049901EB8000C56E04A802F0A3FC0023A7
:108D30001A462846216803F013F855E0206802F02F
:108D40003BFC0490866EEEB3B0F95C70A168D1B3C1
:108D5000032942D05FF0000100EB8101406D0C6CF3
:108D600004F038FD204604F018FD05A803F066FE67
:108D7000BDF81410A88B0144ADF81410BDF81810FC
:108D8000081AADF81800BDF81600801CADF81600E2
:108D9000BDF81A00801EADF81A000498B0F96020E2
:108DA000B0F95E1005A804F016FB04A802F062FCFE
:108DB000022004F099FD304602F0FEFB3A4605A978
:108DC000079001E00BE006E003F09AF80DF11C00BB
:108DD00002F050FC08E00121BEE70221BCE704A834
:108DE000F6E720680AF004FA09B00020F0BD0000A0
:108DF000D85A06084FF480720029114601D008F0B5
:108E0000B5BE08F005BE2DE9FF410E4605004FF046
:108E1000010421D003F010FF284602F0CDFB0190A1
:108E2000876E01A8009702F025FC3146684606F0DF
:108E300031FB78B100980024B84208D0284602F0EF
:108E4000BBFB01900099816601A802F013FC284643
:108E500009F0C4FE05F040FB04B02046BDE8F081F7
:108E600038B505464FF0FF3403F0E6FE284602F021
:108E7000A3FB009078B1408EC00504D4284610F0C2
:108E8000A8FF012404E00221284610F0B8FF0024C6
:108E9000684602F0EFFB05F01FFB204638BDF8B531
:108EA000446805460146204608F0CBFD002836D030
:108EB00028680B2839D00E2805D00F2821D0B0F50E
:108EC000107F3CD12CE0204602F076FB009010F899
:108ED000746F4778684602F0CDFB20460AF056FDD5
:108EE00010B3E8684168002929DD0068202826D1F0
:108EF0007F1CB7FBF6F006FB1071204600F031F93D
:108F00001DE02546204602F057FB0090006F0468E4
:108F1000684602F0AFFB002C01D02846A047F8BD00
:108F20002946204611F081FC09E0204602F044FB6E
:108F30000090783002F096FA684602F09BFB2846D3
:108F4000BDE8F84009F07AB8F0B585B0B0F908503E
:108F5000468A84690296CDE903540027CDE90017BB
:108F6000B0F90C10B0F91050B0F90E40B0F90A0089
:108F7000194410442B46224600F002F805B0F0BD1B
:108F80002DE9F04F85B01D46DDE90E9716468A465D
:108F90008346DDF8488003F04FFE244C0EB135B116
:108FA0000AE020688068006880470646F7E7206886
:108FB00080680068804705461C481D49001DC06840
:108FC000884201D147F0010708F15400194ACDE960
:108FD0000220CDE900972B4632465146584608F00C
:108FE00075FF05001CD002F0E7FA102204901199D9
:108FF00008F07AFE0D4904983C22091D3430FEF732
:1090000099FF049821680167022180F874100F21EC
:10901000C16704A802F02EFB2068416828468847F3
:1090200005F05AFA05B02846BDE8F08F4804002044
:10903000EFCDABFF9F8E01082DE9FF470446006886
:1090400010B10AF0A3FC68B10022314850F8221098
:1090500060680A2841D007DCF0B306280DD0072845
:1090600054D106E00122F0E712280AD019284DD188
:1090700037E020460BF0FEFE48E020460DF036F8C3
:1090800044E0206802F098FA0290B0F9548090F819
:109090005650476C466B02A802F0ECFA206800F0CC
:1090A00050F88146684609F0E3F8BDF8001009EB76
:1090B00005000844ADF80000646A304604F08AFBFD
:1090C000022004F011FC384604F067FB4246694672
:1090D000204602F015FF19E007E020460DF04AFD9A
:1090E00014E0886904B0BDE8F08720680AF080F8D1
:1090F000206802F061FA0390B0F90610B0F902207E
:10910000891A491CC16703A802F0B4FA0020E9E7F4
:10911000505B060838B505004FF000040FD003F08F
:109120008BFD284602F048FA009018B1046C2846DE
:1091300009F054FD684602F09DFA05F0CDF920468D
:1091400038BD38B5044603F077FD204602F034FA06
:109150000090C46F684602F08DFA05F0BDF9204614
:1091600038BD38B50C4605001BD003F065FD284618
:1091700002F022FA009090F87410A1420CD980F805
:109180007540684602F076FA284609F027FD052169
:10919000284609F0D4FD02E0684602F06BFA05F0BB
:1091A0009BF938BDFEB50D46040022D0002D20D01D
:1091B00003F042FD204602F0FFF90190866F01A8FE
:1091C000009602F057FA2946684606F063F970B136
:1091D0000098B04208D0204602F0EEF901900099C4
:1091E000816701A802F046FA204609F0F7FC05F075
:1091F00073F9FEBD00B58BB028216846FEF7C2FEAC
:1092000019200190034800688068416868468847D3
:109210000BB000BD480400202DE9FC410C460500C0
:1092200038D003F009FD112C14D0132C28460ED091
:1092300002F0C2F9009000F0EBFB0646684602F02F
:1092400019FA204614F0D1F9074600241CE000F07A
:109250007CFB1BE0284600F08DF917E021462846EC
:1092600000F0D9FB019070B1007814F0BEF900F065
:10927000FF0801A802F0FEF9B84504D121462846AE
:1092800000F07DFB02E0641CB442E7DBBDE8FC417A
:1092900005F022B9BDE8FC81F8B50C46050019D0EF
:1092A000002C17D003F0C8FC284602F085F9009086
:1092B000C66B684602F0DEF9074920460968884710
:1092C000421C2146304602F0FAF9284609F086FC95
:1092D00005F002F9F8BD0000080600202DE9FF4165
:1092E00045680446284602F067F90390D0F8886084
:1092F00003A802F0BFF90EB1012700E000272146C4
:10930000284608F09EFB002858D02068112846D037
:1093100006DC0B2865D00E287AD00F282BD151E01F
:10932000212805D026281AD0B0F5107F23D13BE0A4
:10933000E068416800291EDD00680D281BD1304619
:1093400007F033FC002806DB304607F02EFC014610
:10935000284600F014FB284600F080F877E0E0682B
:10936000012809D00A2802D0142873D113E00A2159
:10937000284609F0E4FC6DE0304607F016FC0100D9
:1093800068D4284600F0FBFA08F0FCFFB04202D196
:10939000284609F083FE284600F060F85AE0FFB93D
:1093A000E068007A98BB55E0E06848B1007A08B1FF
:1093B000012100E00221284609F0C1FCBDE8FF813F
:1093C0000321F8E72E46284602F0F6F80190D0F87F
:1093D0008400056801A802F04DF90DB13046A84798
:1093E00038E0284602F0E8F80090C06B02F0A7F9D8
:1093F0000098D0F8880008F05BFE0098D0F8940040
:1094000002F00AF8684602F035F923E000E016E0C1
:10941000E068416800291DDD016815291AD006DCC5
:10942000092910D00A2915D0142904D112E01B29CA
:1094300010D0202903D02846FFF7EEFEBEE72846CD
:1094400000F006F906E008F09DFFB04202D1284680
:1094500009F024FE204608F0F1FDAFE738B504001E
:1094600016D003F0E9FB204602F0A6F80090D0F8F1
:10947000880040B108F01CFE00990020C1F8880067
:10948000204609F0ABFB684602F0F4F805F024F83A
:1094900038BDF0B585B0B0F90850468A84690296A7
:1094A000CDE903540027CDE90017B0F90C10B0F94D
:1094B0001050B0F90E40B0F90A00194410442B4680
:1094C000224600F003F805B0F0BD00002DE9FF5F73
:1094D0001D46DDE90F8691468A4683460E9F129C03
:1094E00003F0AAFB21496C34CDE90214CDE90078E0
:1094F0004FF0FF334A465146584608F0E7FC040057
:109500002DD002F059F810220090119908F0ECFBD0
:1095100000983822164980F88C604C30FEF70AFD1E
:10952000134E0098361F3168C0F88410002180F86F
:109530009010C586204600F04AFA684602F09AF874
:1095400002F0FAF80546204602F036F80090C563AE
:10955000684602F08FF8306841682046884704F07A
:10956000BBFF04B02046BDE8F09F0000DD9201087B
:109570008C04002070B5054600F0D3F9040004D037
:10958000441E02E0002C0CD0641E2146284600F048
:1095900079F90028F6D121462846BDE8704000F050
:1095A000EEB970BDF8B50546006802F005F8009008
:1095B000448ED0F88860684602F05CF806B1012657
:1095C00004F0010428680AF0E1F90EB1002006E079
:1095D0000CB1012003E008B1022000E003201B4988
:1095E00051F82010686858B302280CD0052802D022
:1095F000122828D103E028460BF072FC23E028460D
:109600000EF0ACF81FE06A69E8694FF0FF33801A8A
:10961000A0F1080203EB6204421CAB69001B451079
:10962000A3EB6206C86904F0B8F806E03219311BF2
:10963000284603F01FF8641E6D1C002CF6DA02E0C9
:10964000286809F0D5FD0020F8BD0000585B060829
:109650002DE9F14F9EB01E9800287DD003F0ECFA62
:109660001E9801F0A9FF0A901E9808F0D1FF039000
:109670000A98B0F9367090F890101891C16B179154
:1096800090F88C90B0F934100B9100F0C1F982463B
:109690000A9804ACB0F88E101491B0F982101391AE
:1096A000C16C1291D0E90012CDE90C12D0F894B03F
:1096B000002100BF00EB8102126D44F82120491CFB
:1096C0000329F7D3002107AD00EB8102D26D45F8E5
:1096D0002120491C0329F7D300210EAE00EB8102A3
:1096E000126F46F82120491C0329F7D30AA801F07C
:1096F000C1FF1E9808F0F4FE01F05EFF1190D0F853
:10970000008011A801F0B6FF4FEA284042420FFA4C
:1097100088F041420CA803F05EFE5FEA897003D531
:10972000BDF83200C01B01E0BDF83600ADF83200D4
:109730001E9808F0D5FE014603980222CDE90007E5
:109740000292BDF93230BDF93020002007F0BAF99D
:1097500080465FEAC97000E08FE007D04046189964
:1097600007F08BFC0121404607F0ACFB002708E026
:109770003946179802F017F80146404606F0BEFF3A
:109780007F1C5745F4D3DFF8F890002754F82710D2
:10979000494502D1404609F02BFD54F827203946AF
:1097A000404607F0B9FB7F1C032FEFD35FF00004A6
:1097B000214655F82420404607F0B0FC641C032CD9
:1097C000F6D30024214656F82420404607F035FC05
:1097D000641C032CF6D3BBF100001FD001F0ECFE9B
:1097E000159030F8025B00240646012711E000BF07
:1097F00006EBD40004F00701007807FA01F10842F3
:1098000001D0012200E000222146404607F0B6FBCD
:10981000641CAC42ECDB15A801F02CFF4046149907
:1098200007F0DFFB4046129907F08FFB4046139983
:1098300007F05EFC1E9809F01DFA18B1404609F0C9
:109840002DFC03E00021404608F0A9F940461E998E
:1098500007F0DEFB40460B9907F02CFC01211E9817
:1098600009F06DFA1E9801F0A7FE0A90C0F88880F2
:109870000AA801F0FFFE04F02FFE1FB0BDE8F08F34
:10988000EFCDABFFFEB50C4605004FF0000631D022
:1098900003F0D2F9284601F08FFE0090C06B01F072
:1098A00076FF87B20098D0F89450684601F0E2FE47
:1098B000BC421DD2E5B1284601F07EFE019007882A
:1098C00001A801F0D7FEBC4212D2284601F074FE76
:1098D000029000EBD40004F007028078012191404F
:1098E000084201D0012600E0002602A801F0C2FED5
:1098F00004F0F2FD3046FEBD38B505004FF000041F
:109900000DD003F099F9284601F056FE009000F0C2
:109910007FF80446684601F0ADFE04F0DDFD204608
:1099200038BD38B505004FF000040CD003F084F9C1
:10993000284601F041FE0090B0F93440684601F03D
:1099400099FE04F0C9FD204638BD70B50646FFF704
:10995000E8FF441C3046FFF7CFFF451E02E0AC4253
:109960000CD0641C21463046FFF78CFF0028F6D14E
:1099700021463046BDE8704000F001B870BD38B5F2
:109980000C46050022D003F057F9284601F014FEDA
:10999000009000F03DF800B1401E844200DD044616
:1099A0000098B0F93410A1420BD08486684601F0CB
:1099B00061FE284609F012F90421284609F0BFF992
:1099C00002E0684601F056FE04F086FD38BDF8B5A9
:1099D000044601F0F1FD01460090B0F9380010B9DD
:1099E000C86C03F0C5F80099CA6AB1F980301268F2
:1099F00000EB43001618084609F042FE054668468B
:109A000001F038FE32462946204609F046FCF8BDF2
:109A1000C06B01F0BCBE38B50D46002401F0CCFD92
:109A20000090C06B294601F0BEFE0546684601F075
:109A300021FE1DB1284601F0BFFD0446204638BD79
:109A40002DE9F047044640688EB00027804601F0BB
:109A5000B3FD0090B0F87CA0D0F86890D0F880609A
:109A6000D0F88850C06D00B10768684601F002FE6A
:109A700005E0696820468847002843D12D68002DFD
:109A8000F7D12068172853D00CDC0F283DD004DC18
:109A90000B2877D00D2825D18BE0112810D0142861
:109AA00020D13BE0262846D004DC1E2851D02028B7
:109AB00018D18AE02A2816D0B0F5107F12D128E0FC
:109AC0004046E56801F078FD0290697A39B9297A53
:109AD000012904D130F87C1F41F48071018002A873
:109AE00001F0C8FD75E0404601F066FD0090E168B8
:109AF00011B1C0F8841002E0D0F88400E06068463C
:109B000001F0B8FD0EB0BDE8F087D7B34046B847C6
:109B10005FE02146404610F0BFFEF3E705A940464E
:109B200000F041FBE0680699016007994160E9E7B0
:109B3000C4F80C90E6E7E0680228E3D1CDF8308065
:109B4000E0680D9027200A900AA9A0680AF018F989
:109B5000D8E7E068012804D00021404600F0BBFAB5
:109B6000D0E7304609F0A3F868B1304609F096FA1C
:109B7000304608F05BFF98B10121304607F0F6FF50
:109B80000EE026E02FE0484609F0DAFA06464046A5
:109B900001F012FD0090C0F88060684601F06AFD97
:109BA0000121404600F097FA002EABD10020E06082
:109BB000A8E75FEA0A700CD4E068C06848B1007A90
:109BC00038B1404609F06AFA03E02146404610F0F9
:109BD00033F92146404607F034FF002892D0204652
:109BE00008F02CFA8EE7404601F0E6FC0090703059
:109BF00001F038FC684673E7F0B587B0B0F908406B
:109C00000DF10C0C0C9E876945688CE8F000448AC5
:109C10000025CDE900150294B0F90C10B0F91050F0
:109C2000B0F90E40B0F90A00194410442B46224600
:109C300000F002F807B0F0BD2DE9F04F8BB0984668
:109C4000DDE9155691468A468346149F1A9C02F018
:109C5000F3FF3348603445F48055CDE90204CDE983
:109C6000007543464A465146584608F02FF904000D
:109C70004FD001F0A1FC30220490179908F034F87D
:109C80000498282227493430FEF754F9049819998A
:109C9000244F4166A0F87C600026C0F88060C6664C
:109CA000083FC0F888607968C16504A801F0E2FC4B
:109CB00005A9204600F077FA1B4841F2827103960D
:109CC0000094CDE90110BDF91E00BDF91A10BDF9CF
:109CD0001C20431ABDF918005B1C121A521C08F014
:109CE000F5F806467868416820468847204601F026
:109CF00063FC0490866604A801F0BCFC42F20400F8
:109D0000054202D1204608F04BFA2046189900F08F
:109D100027FA04F0E1FB0BB02046BDE8F08F00000D
:109D2000419A0108CC040020ADA401082DE9F041BE
:109D3000044696B0006800F0B7F908B1D94D01E0CB
:109D4000D84D2C35606815281ED00CDC0B281FD090
:109D500004DC00287ED005287DD12FE10E287BD0A1
:109D60001228F9D141E1162806D0172808D0182862
:109D700008D01C28F0D109E0E86916B0BDE8F081F0
:109D8000286AFAE7686AF8E7A86AF6E76869F4E714
:109D900020680B901C200C90206801F00DFC0390B3
:109DA000016D0BA88847064603A801F063FC022E4C
:109DB0000FDB95E807008DE80700D4E9040233467D
:109DC000A16904F083FF20698719A069A0EB060848
:109DD0002CE0286803F0E1FC2169E8690A18521EAA
:109DE000606902F047FCA269E869111A491C6069C0
:109DF00002F040FCD4E904077F1C394602F08AFCDB
:109E00003946A06902F086FC686803F0C6FC206948
:109E10003946401C02F07EFCA0693946401E02F023
:109E200079FCA0692769A0F10208BF1C286803F02B
:109E3000B4FC42463946606902F01CFC686803F0D5
:109E4000ACFC606942463946401C02F013FC686A6B
:109E5000022802E015E1B0E000E10BDDA86803F0A4
:109E60009CFC61696A6A881C8B1801464246384628
:109E70005B1E27E0296AB14226DD6069022E074693
:109E800000F1020801DB374401E007F10207206915
:109E900001DB304401E000F1020022693B460A4444
:109EA0004146A2F1010202F007FD022E02DBA06989
:109EB000821B01E0A269921EA069E9693B46401A33
:109EC0004146401C02F0F8FC022E02DB60690644A9
:109ED00001E06669B61CE76928687F1E03F05DFC37
:109EE0003A463146206902F097FC3A463146A0696D
:109EF00002F092FCE7696868BF1E03F04EFC20691F
:109F00003A463146401C02F087FCA0693A46314689
:109F1000401E02F081FCE869022802DC286A02285F
:109F200023DDA86A022802DDE1690F1A01E0E76972
:109F3000BF1EA86803F031FCE969022909DD206928
:109F40003B46421800F1020C31466046521E02F0B8
:109F5000B3FC286A022808DDA269E8693B46101AAA
:109F60003146401C921E02F0A7FC286803F015FC45
:109F7000D4E90620216902F07DFB686803F00DFC3E
:109F8000D4E906202169401E491C521E02F072FBD2
:109F9000A86A022811DDA1692669E469A1F1020815
:109FA000271AA41EB61C7F1CA86803F0F6FB2346E4
:109FB00042463946304602F07FFC71E0208A00B20A
:109FC000ADF81400A18A09B2ADF81610228B12B2B6
:109FD000ADF81820A38B1BB2ADF81A302C69ED68D0
:109FE000CDE9005402F0E0FA5AE0208A298B0844B7
:109FF000ADF81400A08AADF81600208B298B401A0A
:10A00000ADF81800A08BADF81A00206801F0D4FA62
:10A010000390006FF0B1022003F066FC039890F803
:10A020007C10C1F3C00100EB8100006C03F0B5FBB4
:10A030000398406B03F0CEFB0398006F01F0BCFA6D
:10A0400003990990B1F95A2005A901F059FF09A80F
:10A0500001F010FB03A801F00DFB21E0208AADF810
:10A060001400A08AADF81600208BADF81800A08B64
:10A07000ADF81A00A86803F090FB05A802F048FCB0
:10A080000EE0206801F098FA039030F85A1F41F072
:10A090000C01018003A801F0EDFA206809F0A8F88E
:10A0A00000206AE69408002038B505004FF000044F
:10A0B0000FD002F0C1FD284601F07EFA009090F822
:10A0C0007C00000700D50124684601F0D3FA04F0B3
:10A0D00003FA204638BD70B50D46040009D002F0E1
:10A0E000ABFD2946204612F04DFCBDE8704004F05F
:10A0F000F3B970BD2DE9FC410D46804602F09CFD90
:10A10000B8F1000028D001F057FA0190C16D8C68B9
:10A1100000F0B0F807460198456301A801F0AAFADB
:10A1200022680121404690470646226803214046A6
:10A130009047054622680021404690470446404625
:10A1400000F07DF92B46324639464046009400F037
:10A1500006F9404608F042FD04F0BEF9BDE8FC8176
:10A160007CB50D4604001DD002F066FD204601F0CE
:10A1700023FA0090006F0190684601F07BFA2946AF
:10A1800001A805F087F958B1204601F015FA0090B2
:10A1900001990167684601F06DFA204608F01EFD3E
:10A1A00004F09AF97CBD2DE9F34F85B000270C46E9
:10A1B000B846059801F000FA0090C06D012185684D
:10A1C00005982A68904782462A6803210598904797
:10A1D00004902A6802210598904703902A6800217C
:10A1E000059890470646009809F04AFA8346009879
:10A1F00009F04DFA8146009890F83210890601D591
:10A20000B0F9588000F036F805460098C06E10B1DD
:10A2100008F015FA074625806780A4F804A0049A80
:10A22000ABEB020006EB0802401E2A4420813A44B0
:10A23000E280039BA9EB0302521E6281A4F80CA0EA
:10A2400020827019E681401E6082684601F012FA91
:10A25000B4F90C000190B4F91000029002AA01A90F
:10A26000059800F039F80198A0810298208207B083
:10A27000BDE8F08F10B50146002091F8322092061B
:10A2800007D5B1F95400002803D1486B02F072FCE5
:10A29000801C10BD70B58CB00C46054601F08CF9E1
:10A2A0000A90C06D86680AA801F0E4F9009534B1FF
:10A2B000012C06D0022C0BD0032C04D10AE018206C
:10A2C00000E0162001907168684688470CB070BDA8
:10A2D0001520F7E71720F5E72DE9FC4117468846DA
:10A2E000044601F069F90090C16D056868468E6802
:10A2F00001F0C0F93268002120469047064620460A
:10A3000008F022F827E000BF01F056F90190B0F9FB
:10A3100000102AB2B0F90430891A9A1AB0F9023042
:10A32000A3EB2543B34210D190F82800000605D5D1
:10A330003868884209DB491E396006E0D8F8000019
:10A34000904202DC521CC8F8002001A801F092F9EA
:10A35000204608F0A7F80400D6D1BDE8FC812DE91D
:10A36000FF4F83B00E460746DDF8409001F024F918
:10A370000190C16D8D68FFF77DFF044601A801F0D3
:10A3800079F92A6801213846904783462A680321D3
:10A390003846904782462A6800213846904705464D
:10A3A000B44207D105998B4504D106998A4501D15C
:10A3B0004D4541D0A41B0026B046384607F0C4FFE7
:10A3C00038E001F0F9F80090806A010601D58005B7
:10A3D00002E0810528D50006002825DB24B12246AD
:10A3E0001146384608F0E9FC009890F8280000066D
:10A3F0000AD50698A5EB0902A0EB0A0004FB16019A
:10A400003846761C08F08CFC0098008D80050BD532
:10A410000599A5EB0902ABEB010004FB080108F16B
:10A420000108384608F07CFC684601F023F93846FC
:10A4300008F038F80700C4D107B0BDE8F08F70B558
:10A4400086B0064601F0B8F80590D0E91A4505A88F
:10A4500001F010F954EA050026D069463046FFF7AE
:10A46000A2FEACB1BDF90620BDF90410204608F0EB
:10A470002AFCBDF90A00BDF90610421ABDF9080010
:10A48000BDF90410521C411A2046491C08F005FF72
:10A49000002D09D0BDF90600BDF90210421ABDF920
:10A4A0000410284608F00FFC06B070BD2DE9F043FB
:10A4B0000446406889B0054608F012F8814601F06C
:10A4C0007BF80290D0F84880D0F88070466E02A8E1
:10A4D00001F0D0F82068172852D008DC0E2839D0B7
:10A4E0000F2811D014284BD015283CD148E01E2845
:10A4F0001DD01F2829D022283FD0312833D1002059
:10A50000E06009B0BDE8F0831F494046884503D0AC
:10A5100005F05AFD01F0C8FA002EF2D0D4E902127B
:10A520002068CDE90405CDE9061204A81FE0E06823
:10A530000028E6D02FB1AF4203D0384608F0AEFD78
:10A54000DFE7284608F0FCFDDBE72146484607F038
:10A5500078FAD6E7E0684168002904DD0068092838
:10A56000EFD00A2805D05EB12046C4F80490B04769
:10A57000C7E7284608F018FEC3E7C4F80C80C0E718
:10A58000204607F05BFDBCE7EFCDABFF2DE9F043C4
:10A590000446C56887B090468946002003F00EF94E
:10A5A000064625B1287910B146F0020001E026F0F8
:10A5B000020003F003F92069012558B1D4E9021221
:10A5C0008DE8260003956388228804684146484642
:10A5D000A0471EE0124F134B214638681B68427C8F
:10A5E000E068984730B9E088012801D0002001E0F8
:10A5F0003868806BA288E388A1680095CDE90410D3
:10A60000CDE902320195638822884146484605F02B
:10A6100065F807B03046BDE8F04303F0CFB800005E
:10A620000C030020FC0200201CB50024019401ACA6
:10A63000009400F001F81CBD2DE9F0478046444825
:10A6400086B0164600680E9C1D46027E0F46012A03
:10A650001CD0A8EB0600791B50EA010323D0A2F11D
:10A66000010913F0DBFF00F58060824604F0BCFFB7
:10A6700000FB09F4504604F0BBFF00FB09F1002C7D
:10A6800014DAC4F500708012404212E0012004F098
:10A69000C1FD2B4632463946404600940CF0CEFEB2
:10A6A000002004F0B7FD06B0BDE8F08704F50074A3
:10A6B000A012002904DAC1F5007189124C4202E0AF
:10A6C00001F500718C12002804DD411C01EBD171F1
:10A6D000491003E000EBD0714910401E00EBD07030
:10A6E0004210002C04DD601C00EBD070401003E031
:10A6F00004EBD4704010641E04EBD47308EB010427
:10A70000ADF804403C18ADF80640A8EB02045B101D
:10A71000B21AADF80840ADF80C203144FC1AEA1A20
:10A72000ADF810102844ADF80E20ADF8120000234B
:10A73000ADF80A401A46042101A800F079F839461C
:10A7400040460CF061FF294630460CF05DFFAAE759
:10A750000C030020064A13681A7E012A05D0521EF7
:10A7600002EBD272521000F005B81A6E5268104710
:10A770000C0300202DE9F05F0646884640F2C32016
:10A7800002FB00F14FF47A7091FBF0F702FB02F14B
:10A7900002EBD27001EB600B1446B118234A301B58
:10A7A0007F1C1268126E13680A46414698470125BD
:10A7B00038E000BF05FB05F004FB040159451CDD32
:10A7C000BC4219DD194B06EB050AA6EB05091B680F
:10A7D000AAF1010208EB04011B6E09F101001B68DC
:10A7E0009847124BAAF10102A8EB04011B6809F17A
:10A7F00001001B6E1B689847641E0C4B3219301BFE
:10A800001B68924608EB05011B6E81461B68984742
:10A81000064B5246A8EB05011B6848461B6E1B6899
:10A8200098476D1CBD42C5DDBDE8F09F0C030020BC
:10A830002DE9FF4F43F6FF740F46664283B09B46F7
:10A84000814600210BE000BF09EB8100B0F9020056
:10A85000A04200DA0446B04200DD0646491CB94277
:10A86000F2DB67480068406900280DD0B0F9061097
:10A870001A46A1EB0B01B14200DA0E46B0F9020014
:10A88000801AA04200DD0446B4E0DFF878A1002081
:10A890000546CAF8000088E0781E854201DA6B1C84
:10A8A00000E0002309EB850C09EB8302BCF90200F0
:10A8B000B2F90210A04244D1A14215D139F9233096
:10A8C000059A39F9251003EB020C4D4A05981268D8
:10A8D000084404EB0B01126E6045136801DA62460E
:10A8E0002AE00246604627E02846A4464FF00008CA
:10A8F0007A1E0BE008B1401E00E0781E09EB8003D1
:10A90000B3F90230634504D108F101089045F1DB49
:10A910002346A34248D01A1B39F92500A1EB040CA9
:10A92000059B92EA0C0F09D4354A184404EB0B013D
:10A930001268126E13680246984735E009F016FB5C
:10A9400032E0A14230D001DBA04203DDA0422BDB8C
:10A95000A14229DCE04688420ADC0346A04223DC0F
:10A960000846A14220DBB8F900C0B2F9001008E0A7
:10A970000B46A14218DCA04216DBB2F900C0B8F9C0
:10A980000010E21AA1EB0C0151430029A0EB0302D5
:10A9900002DD01EB620102E0A1EB6201491CC01A79
:10A9A00091FBF0F06044C9E76D1CBD42FFF674AF47
:10A9B0000598009004EB0B000190002080460546AE
:10A9C00013E01149B8F1000F31F915A009D0009931
:10A9D00001EB0A0208440A490968096E0B680199EB
:10A9E000984788F0010850466D1C064909688D4259
:10A9F000E7DB641CB4427FF748AF07B0BDE8F08FD7
:10AA00000C03002064090020B8E00020104810B5B5
:10AA1000006802F0B7FE0F48006802F0BEFE012099
:10AA200002F044FF002002F04FFF002002F05CFF24
:10AA30000021084602F0B2F8002002F0BFFE0648EE
:10AA4000006802F0C7FEBDE81040002002F000BF21
:10AA500008030020040300200003002033B583B066
:10AA600004001BD002F0E8F8204600F0A5FD01909C
:10AA7000456E01A800F0FEFD049800F09DFD0090D9
:10AA80008460684600F0F6FD042204A9284600F020
:10AA900016FE204608F0A2F803F01EFD05B030BDFA
:10AAA00033B583B004001BD002F0C6F8204600F096
:10AAB00083FD0190856E01A800F0DCFD049800F094
:10AAC0007BFD00908460684600F0D4FD042204A958
:10AAD000284600F0F4FD204608F080F803F0FCFC66
:10AAE00005B030BD2DE9F04104460025D4E900074A
:10AAF000B0F5407F00D101252146384606F0A1FF80
:10AB0000064615B138460FF04BF8002E2FD02068BE
:10AB1000052806D00B280ED00F2806D0262821D1D4
:10AB20000EE038460FF03CF81CE03846E168BDE81E
:10AB3000F0410FF0B9BA3846BDE8F0410FF0ABB9BB
:10AB4000E06805280ED1384607F004FDA168884268
:10AB500005D0384607F0EEFCA168884202D1606853
:10AB60000FF004FE2046BDE8F04107F067BABDE8EB
:10AB7000F081F0B585B0B0F90850468A8469029634
:10AB8000CDE903540027CDE90017B0F90C10B0F956
:10AB90001050B0F90E40B0F90A00194410442B4689
:10ABA000224600F003F805B0F0BD00002DE9F04F9B
:10ABB00085B09846DDE90E5691468A468346109F39
:10ABC000129C02F039F819487034CDE90204CDE93D
:10ABD000005643464A465146584607F077F9040066
:10ABE0001ED000F0A9FD054600F0A6FD0646204651
:10ABF00000F0E2FC0490C0E919560022119907F018
:10AC000073F8049830220A493430FDF793F9049818
:10AC1000002120F8787F4177017704A800F02AFD11
:10AC200003F05AFC05B02046BDE8F08FE5AA010804
:10AC3000F404002013B582B0044601F0FDFF204665
:10AC400000F0BAFC009060B1406A00F0B5FC01462B
:10AC50000190022303AA009800F058F901A800F01F
:10AC600009FD684600F006FD03F036FC1FBD00003C
:10AC70002DE9F04385B01D4690460F46814601F010
:10AC8000DBFF2C2000F0A6FB060025D0780000F0AA
:10AC9000A1FB04000FD0B8F1000F0CD05DB120462D
:10ACA00000F08AFC0F4B00906A001B6841469847F1
:10ACB000684600F0DFFC304600F07EFC0A49029056
:10ACC00000F10C02446282E8A202084901600849CE
:10ACD000416002A800F0CEFC03F0FEFB05B0304658
:10ACE000BDE8F083000600202599020881A2020831
:10ACF000279F02082DE9F843984615460E46074659
:10AD000001F09AFF302000F065FB040014D000F041
:10AD100053FC0090C0E9057685840A4A4FF07E51C5
:10AD2000C0F81C808162D2E90012C0E90312064912
:10AD30000160684600F09EFC03F0CEFB2046BDE8B3
:10AD4000F88300002405002059A30208F8B50D4639
:10AD500006004FF000040FD001F06EFF304600F007
:10AD60002BFC0090846A8562806807F037FF684694
:10AD700000F080FC03F0B0FB2046F8BD2DE9F8435D
:10AD80001D46DDF8208016460F46040015D001F060
:10AD900053FF204600F010FC0090C0F8608047652B
:10ADA000C0E91665684600F065FC20460EF0F8FE26
:10ADB000204607F013FF03F08FFBBDE8F883F8B5DA
:10ADC00015460E4607004FF0000415D001F034FF81
:10ADD000384600F0F1FB0090042D08D200EB85000E
:10ADE000446BB44203D04663384607F0F7FE68462A
:10ADF00000F040FC03F070FB2046F8BDF8B50D46AE
:10AE000006004FF0000411D001F016FF304600F0AC
:10AE1000D3FB0090446CAC4203D04564304607F04D
:10AE2000DDFE684600F026FC03F056FB2046F8BD28
:10AE3000F8B50D4606004FF0000411D001F0FCFEFD
:10AE4000304600F0B9FB0090846CAC4203D08564BE
:10AE5000304607F0C3FE684600F00CFC03F03CFBF4
:10AE60002046F8BDF8B50D4606004FF0000413D09B
:10AE700001F0E2FE304600F09FFB009090F86C403D
:10AE8000AC4204D080F86C50304607F0A7FE68460C
:10AE900000F0F0FB03F020FB2046F8BDF8B50D46AE
:10AEA00006004FF0000413D001F0C6FE304600F05B
:10AEB00083FB009090F87B40AC4204D080F87B503C
:10AEC000304607F08BFE684600F0D4FB03F004FB2D
:10AED0002046F8BDF8B50D4606004FF0000413D02B
:10AEE00001F0AAFE304600F067FB009090F87A402F
:10AEF000AC4204D080F87A50304607F06FFE6846C6
:10AF000000F0B8FB03F0E8FA2046F8BDF8B50446B7
:10AF100080681D4617460E4600282BD0D4E904024F
:10AF200090420ED1521E6A4371193046FDF702F865
:10AF300020692A46401E05FB00603946FCF7FAFFEF
:10AF40001BE005FB0013401C20612A4639461846C9
:10AF5000FCF7F0FFA06800F02FFB0090D0F89800FD
:10AF600048B10025684600F085FBE16829B125B1AC
:10AF700020468847F8BD0125F4E7A06800F001F8F5
:10AF8000F8BD10B58AB0044600F016FB09A904AA62
:10AF9000CDE9002105AB089006AA07A90EF095F9A6
:10AFA00008A800F067FB02A9204607F029FABDF8BF
:10AFB000080007990844ADF80800BDF80A00069992
:10AFC0000844ADF80A00BDF80C000599401AADF828
:10AFD0000C00BDF80E000499401AADF80E0002A94D
:10AFE000204607F0BBFD0AB010BD00002DE9F04F70
:10AFF000DFF828B191B04FF0FF35DBF80030B3F93E
:10B0000022100691DE69B3F924A0F469A189814276
:10B0100006D8E289824203D3471AD4F8008012E0AE
:10B02000D4E90181002970D00A8882426DD84D8808
:10B0300085426AD3801A82B2486800EB8200B0F978
:10B040000070B0F90250781C5FD0307EA27C0146BF
:10B0500000FB02F9207CCDE90710B3F92A603046E5
:10B0600005F002F8C0B20E90DBF8001007FB098073
:10B07000A37C8A6B0127CDE90402CDE90273C8697C
:10B08000089AC17E807ECDE90001DDE906035146C4
:10B0900004F024FB681C18D046F0020004F0E4FF22
:10B0A000DBF80000A37C05FB0981826BCDE902730C
:10B0B000CDE90412C069089AC17E807ECDE9000105
:10B0C000DDE90603514604F009FBDBF800005D46AC
:10B0D000C069417E007E814214D9022E12D086F0D2
:10B0E000040004F0C1FF2868C069027EC37E857E2B
:10B0F00002FB03A1437E089A0698534402FB050213
:10B1000004F078FC0E9804F0AFFFDBF80000627CDE
:10B11000418C1144418411B0BDE8F08F0C03002034
:10B1200004480068C069C06909B1027C0A60407CBB
:10B13000704700000C030020022008807047C0699F
:10B1400082898A4202D8C2898A4210D2806880B13C
:10B1500002888A420DD843888B420AD3406800EBAC
:10B160008100A0EB8200B0F90000002801DB012083
:10B1700070470020704700002DE9F043324C034631
:10B1800087B020681946B0F92A80C069C06900F00C
:10B190008CF8002851D041680088181A01EBC005CE
:10B1A0004046AE7804F060FF814620686A6801235B
:10B1B000816BCDE90236CDE90421C169CB7E8A7E5F
:10B1C000CDE900230B7EB0F924102A78B0F92200D3
:10B1D00004F084FA2068C069477E067EB7421DD914
:10B1E000C07E47434643B8F1020F17D001F02BFC55
:10B1F000804601F0F1FB02F0D0FA21682A78CB6991
:10B20000B1F92200B1F92410DB7E02FB0302CB1955
:10B21000314404F0EFFB404602F0BFFA484604F028
:10B2200023FF20686A78C369B0F922109B7E02FB75
:10B230000311418407B0BDE8F08307B04046BDE884
:10B24000F04303F03DBD00000C03002070B5104C2E
:10B2500005460B4620682946C069C06900F025F8FC
:10B2600088B14168008824682A1A0120E46900EB4B
:10B27000C200085CA47E6043002B03D011F832109A
:10B280006143196070BDBDE8704003F03DBF000030
:10B290000C03002001200880704700B5C06900F051
:10B2A00004F8002800D0012000BD06E002888A4290
:10B2B00002D842888A4202D280680028F6D17047BC
:10B2C0002DE9F0410025144E144C17E02069C5EB20
:10B2D000051700EBC7007022001D3168FCF72AFE3D
:10B2E0002069002140F8371000EBC70000F10C0185
:10B2F0008161011DC163091D6D1C0164A068854247
:10B30000E4DB0EF06BF82169C0EB001001EBC0002C
:10B31000001D3060BDE8F0810C03002048060020CD
:10B3200070B510490E480860084604F0ABF80D4CA3
:10B33000143CA068C0EB0010C500284600F0AEF831
:10B34000094B20612A461B68002198474FF0FF30C7
:10B350002060FCF783FCBDE870400EF03FB80000B1
:10B3600055A002085C060020FC050020F8B50C0082
:10B3700005460ED001F060FC204600F01BF80600E8
:10B3800010D000F019F92246009025B12946074B4C
:10B3900003E00020F8BD064B00211B689847684673
:10B3A00000F068F903F098F83046F8BD0006002078
:10B3B000FC05002010B5040009D001F03DFC20463A
:10B3C00008F0B0FE044603F087F8204610BD0020C8
:10B3D00010BD000038B5054601F02EFC2846FFF7E9
:10B3E000E9FF04000AD000F0E7F8064B00902A4677
:10B3F0001B6800219847684600F03CF903F06CF8A0
:10B40000204638BDFC050020024A106021F00300F0
:10B410005060704760DE002010B5040011D001F0CC
:10B420000BFC0848042101EBC401406B41584868FB
:10B4300008F0BAFD20460FF059FEBDE8104003F0B9
:10B440004BB810BDA0DD0020002808D00449CA6B0D
:10B45000026000224260026802B15060C863704717
:10B46000A0DD002010B5044601F0E6FB2068FFF7E0
:10B47000D3FF00202060BDE8104003F02DB800008D
:10B4800070B50D460646002405E000BF06EB8400BB
:10B49000FFF7E8FF641CAC42F8DB70BD2DE9F0411A
:10B4A00004460EF0BFF82848E41C24F00305016CA4
:10B4B0002D1DA94200D90D46C46B13E054F8042C8D
:10B4C000AA420ED184B1216809B162684A606168FC
:10B4D00009B122680A60C26BA24231D12168C163FE
:10B4E0002EE02468002CE9D18046816BC0680F18DB
:10B4F00057F8040C3E1A306838B1002011F09AF960
:10B5000057F8040C3E1A3068D0B97068A84217DBAF
:10B510003044441B3046241D11F044F9D8F80C1077
:10B52000491BC8F80C10D8F814102944C8F8141096
:10B530007068401B02D0314608F036FD44F8045CC8
:10B540002046BDE8F0810000A0DD002010B50024F9
:10B550000EF068F80C490F2001EBC002526C1AB1D2
:10B5600001EBC000406C08E0401EF5D508E04168E2
:10B57000A14200D90C46806810B180680028F6D13D
:10B58000A4F10C0010BD0000A0DD0020002138B1A6
:10B590000449042202EBC000496B085841680C3989
:10B5A00008467047A0DD002002488169491C81617E
:10B5B00070470000A0DD00200549CA69521CCA611D
:10B5C000496B01EBC0010A78521C0A7000F06AB89E
:10B5D000A0DD00207CB506460C460846FFF7EAFED3
:10B5E000050021D006B33046FFF7D0FFA04200DAB5
:10B5F000044601F021FB2846FFF7DEFF00903046AD
:10B60000FFF7DAFF094B019001461B6822460098BC
:10B610009847684600F02EF801A800F02BF8304655
:10B62000FFF7FAFE02F058FF28467CBD0006002016
:10B6300010B501F001FBFFF789FF64220849B0F55E
:10B64000800F04D990FBF2F4086A444303E0096ACE
:10B650004143B1FBF2F402F03FFF204610BD000071
:10B66000A0DD002002488169491E81617047000009
:10B67000A0DD00200A4902684B6B52F8082C03EB4E
:10B68000C2021378022B03D3CB690BB15B1ECB61D3
:10B690001178491E117000210160084670470000B2
:10B6A000A0DD00200349042202EBC000496B0858CA
:10B6B00008307047A0DD002050F8080C70472DE9D5
:10B6C000FC414FF000060B465FEA000834462BD0E1
:10B6D00032B111461846FFF749FE060000D1012499
:10B6E0004046FFF769FF0090078845686846FFF706
:10B6F000C1FFCCB9B9002846091DFFF76BFF050053
:10B7000015D0FFF759FF019040F8276001A8FFF717
:10B71000B1FF4046FFF750FF009045600188491C8B
:10B7200001806846FFF7A6FF2046BDE8FC81304651
:10B73000FFF772FE0124F7E70820FFF74BBE7CB548
:10B74000050023D0FFF738FF00904068C0B1FFF735
:10B7500033FF0024019005E0019800EB8400FFF71F
:10B7600081FE641C00980088A042F5DC01A8FFF768
:10B7700081FF0098001DFFF775FE009900200880EA
:10B780006846FFF777FF2846FFF746FE7CBD38B5D1
:10B79000002430B1FFF710FF009004886846FFF7DF
:10B7A00069FF204638BD38B50D46002448B1FFF783
:10B7B00003FF2946009000F016F804466846FFF79C
:10B7C00059FF204638BD38B50D46002448B1FFF773
:10B7D000F3FE2946009000F018F804466846FFF78B
:10B7E00049FF204638BD38B50D4601880024A942DE
:10B7F00009D9406838B1FFF7DFFE009050F82540C6
:10B800006846FFF737FF204638BD10B50024FFF724
:10B81000EAFF10B1FFF7D0FE0446204610BD00003D
:10B82000F0B52D271C68B0F1004F08D00026002885
:10B830000DDA651C1D6027704042012408E0651C7C
:10B8400001261D606FF000402770491E01E00024B2
:10B85000091BC9B22AB3491EC9B222E00C46491ECF
:10B86000C9B2944205D1124C27781C68651C1D6032
:10B870002770104C54F8215090FBF5F4E4B20A2CD8
:10B8800011D804FB150011B90EB1641CE4B20A2CE6
:10B8900002D10124491CC9B21D686F1C30341F60DD
:10B8A0002C700029DAD1196800200870F0BD000062
:10B8B000F8020020C8270608524203F0D6BD10B592
:10B8C000002807DD0A682B24531C0B6014700968DC
:10B8D00000220A7010BD00002DE9FC5F8946044675
:10B8E00001F0AAF9484601F0BBF82C4E09EB890794
:10B8F000824656F82700019029484FF00108016858
:10B9000041B92749C0F80080091D2648086008464B
:10B9100003F0B8FD214A09EB8901BAF1000002EBFE
:10B9200081051BD001F012FF83464FF07F4001F0EC
:10B9300029FF00F0B9F800221146206800F076FDDA
:10B94000206842880188504601F064FF46F827408D
:10B9500085F80480584601F0F9FE17E046F82740C4
:10B9600085F804802869464618B101F01FFE0020C2
:10B97000286174B10096E868A1684B46421AA8682D
:10B980006168411A206801F06BFE2861484611F099
:10B9900061FC02F0A1FD0198BDE8FC9FDCDE002007
:10B9A00078030020859F020870B514460D460646B0
:10B9B00001F042F9204601F053F80300174804EB68
:10B9C000840109D050F8210041688068711A2A1A50
:10B9D000184601F00FFF1CE000EB8104A268B242A0
:10B9E00001D0012200E00022E368AB4201D0012334
:10B9F00000E000231A430CD0236943B150F8210022
:10BA0000816840686A1A311A184601F0F4FDC4E9E9
:10BA10000265BDE8704002F05FBD0000DCDE002082
:10BA200002480068407C00F003B800000C030020CE
:10BA300010B5044601F000F90A4804EB840100EB5C
:10BA4000810301221A7150F8210030B1204611F013
:10BA500001FCBDE8104002F03FBD21460248FFF75F
:10BA60003BFFF6E7DCDE00200852060810B5C2B244
:10BA7000CBB2D21A00D5524293B25B43C0F3072235
:10BA8000C1F30724121B00D55242000C92B2A0EB66
:10BA9000114002FB023200B2002801DA404200B23B
:10BAA00080B200FB002010BD10B50021084601F057
:10BAB00075F843F6FF725042BDE810401346014648
:10BAC000AFF300802DE9FC411C4615460E460746A3
:10BAD00001F0B2F8042004F0C7FA80461248406929
:10BAE000816CC06C0F4406440D440444ADF80070F2
:10BAF000ADF80450ADF80260ADF80640684607F0B6
:10BB0000CDFD07E023462A463146384603F072FF52
:10BB100007F078FD0028F5D1404604F0A5FA02F0C0
:10BB2000DBFCBDE8FC810000F80200202DE9F843B1
:10BB30001C00DDE9089816460F46054602D106F0BE
:10BB4000C5FB044600962E6843464A4621462846D1
:10BB5000B047061E39D006F0AEFB8146698A3046F2
:10BB600006F004F8304607F017FC484607F014FCCE
:10BB70004FF000080CE000BFCDF8008055F81CCF56
:10BB800000231A4649462846E04700B307F004FC64
:10BB90007F1E002FF0DC1D21484607F0E2F9601CF3
:10BBA00012D001F049F806F0EDFB30B1FFF77AFD55
:10BBB0008469B44201D02000F8D1B44202D03046AA
:10BBC00007F0BEFA02F088FC3046BDE8F883304644
:10BBD00006F06EFA0020F8E72DE9F0411C46164603
:10BBE0000D460746022B02DB0020BDE8F0811C2039
:10BBF000FFF754FC0028F8D00DB105610AE0094AAE
:10BC000052F8241009B905E011460A68002AFBD150
:10BC10000969016184618682002101604160C0E997
:10BC20000217E2E74403002070B51D46FFF7D4FF7A
:10BC3000040009D000F00EF8E068006820B903485D
:10BC4000006800EB85004465204670BD0C030020B1
:10BC5000FFF7FABB70B5C0B38269022A36DA214910
:10BC6000531C0C789C4200DA0B701F4C54F82210C5
:10BC700019B944F8220032E019464B68002BFBD179
:10BC800006E0CB68C5681B682D68AB4203DD096818
:10BC90000029F6D11AE0C1B1CB68C6681B683668C6
:10BCA000B3420CD1838A012B05D008E01946DB682A
:10BCB0001B68AB4203DB0B68002BF7D129B14B6843
:10BCC00033B118604A68426004E0FFE7012070BDAC
:10BCD00044F822004860884200D100210160002021
:10BCE00070BD00006A0300204403002010B503E08B
:10BCF0000468FFF7AFFF20460028F9D110BD00000F
:10BD000010B50C4B8269002153F82240844205D1C2
:10BD1000046843F82240026802B1516042680AB1E7
:10BD20000368136002680AB14368536001604160B0
:10BD300010BD00004403002000207047022801DBF2
:10BD400000207047054951F8200004E0C1680968E7
:10BD50000029F6D000680028F8D17047440300207D
:10BD60002DE9F8431D461646884604000CD0FFF71F
:10BD700023FC0090006807686846FFF77BFC2B46B1
:10BD8000324641462046B847BDE8F8831FB503ABAD
:10BD9000CDF80CD0FFF744FD684600F019F81FBD40
:10BDA000002208F071BF7FB50C461546CDF80CD0C7
:10BDB00003A9FFF784FD002801DD641EE4B203AB94
:10BDC0002A462146FFF72CFD684600F001F87FBDAA
:10BDD0002DE9FC4706005FD000F02EFF00F04AFE80
:10BDE0003C4C81462068B0F9228000F0A3FE216817
:10BDF00007468A8CD01B888441E000BF47F6FF715C
:10BE0000304603F065F982460146304603F032F9C8
:10BE10002168054691F82C0000F00300012841D06C
:10BE200002283BD000204A8C101A4884ADF800004C
:10BE30006A1E1044ADF80400888CADF80200A9F128
:10BE400001010844ADF806006A465146304602F04A
:10BE5000E9FC2168BDF8020088845146304602F0B2
:10BE600029FA064430780A281ED00D281CD0BDF8C7
:10BE70000000216828444884307818B1761C307856
:10BE80000028BBD12068818C39448184818D21F0C8
:10BE90000301818502F020FBBDE8FC8705EBD5702E
:10BEA0004010C0E72846BEE7206890F82C1001F04B
:10BEB000030101290BD0022909D0018C418431787A
:10BEC0000A29D9D1828C02EB09018184D4E7A0F838
:10BED0002280F4E70C03002070B514460D46064698
:10BEE00000F0AAFE05480068458484843046FFF7C8
:10BEF0006FFFBDE8704002F0EFBA00000C030020B5
:10BF000047F6FF7300F044B82DE9FF471F460C9E2B
:10BF100090460D46814696B300240094019400F0AB
:10BF20008BFEADB1286800906868019017480099B1
:10BF3000016001994160284607F0D4F9040007D058
:10BF40000246294602A803F03BF902A807F0CAF905
:10BF5000304611F0C3F805467168684688473B468D
:10BF600042466946484602F0B5FC204607F0BAF959
:10BF7000284611F0B3F802F0AFFABDE8FF87FFE7FB
:10BF800004B0BDE8F04700F003B800002806002028
:10BF90002DE9FC411F4690460D4606004FF0000477
:10BFA0001AD000F049FE65B1284607F09BF904005D
:10BFB00007D002462946684603F002F9684607F0B2
:10BFC00091F93B4642462946304602F083FC204622
:10BFD00007F088F902F080FABDE8FC812DE9FF4FF7
:10BFE00087B006004FF0000091460C460290039087
:10BFF0007ED000F021FE2568676829B238B2401A69
:10C00000401CB346019000F035FD804619F00C0F3E
:10C010001ED030460A9A019902F068FA09F00C0124
:10C02000042904D0082902D00C2911D104E03A14C3
:10C0300000FB1820401C09E02914C1EB274300FB3A
:10C040001830401C00EBD07001EB600060F31F451E
:10C05000204607F047F9009048B1CDE90457024661
:10C06000214604A803F0ACF804A807F03BF9A8F1B6
:10C07000010A30460A9A019903F050FA06900AEB39
:10C08000254060F31F47CDE902573046069902F07C
:10C09000F1FF19F003010FD0012978D002290ED148
:10C0A000B4F90420B4F90010521A101A401C00EB25
:10C0B000D07001EB600000E02088ADF8080002AA13
:10C0C0003046069902F0AEFB3348007888B3334817
:10C0D000006890F82A0080072BD45E450ED1BDF988
:10C0E0000A30B4F902108B4208DDB4F9042000E0F4
:10C0F00049E0B4F900005B1EFFF7E4FCBDF908203D
:10C10000B4F90000824206DDBDF90E30BDF90A1017
:10C11000521EFFF7D7FC2148B4F904200068B0F99B
:10C120002200904205DCBDF90E30BDF90A10FFF780
:10C13000C9FC30460A9A019903F0E6F9064408EB77
:10C14000254060F31F453078002892D112480078CE
:10C15000A0B11248006890F82A0080070ED45E450E
:10C160000CD0BDF90E10B4F90630994206DAB4F9D4
:10C170000420B4F90000491CFFF7A4FC009807F064
:10C18000B1F802F0A9F90BB0BDE8F08FFFE7A18884
:10C19000081A401C91E70000840300200C030020D3
:10C1A0002DE9FF4F87B09346149E07000FD056B17C
:10C1B00000F042FD0898046845689948864209D114
:10C1C00028B221B208E00A9B0899FFF707FF0BB0DD
:10C1D000BDE8F08F28142114401A401C039000F091
:10C1E00049FC804638460A9A039902F07FF98D4946
:10C1F0004FF0000A00FB08F0D1468E4223D11BF01D
:10C200000C0102D00C290ED102E0291A491C08E0C9
:10C2100029B222B2891A091A491C01EBD17102EB29
:10C22000610161F30F04401E204460F30F05CDE966
:10C230000145BDF80810C8F10009A1EB0800401C39
:10C24000ADF804004AE078498E421FD10BF00C0192
:10C25000042904D0082902D00C290ED102E0281AA2
:10C26000401C08E02AB221B2521A101A401C00EBFE
:10C27000D07001EB600060F30F04A8F101002044CE
:10C2800060F30F05C146CDE9014527E064498E42C0
:10C2900024D11BF00C0102D00C290FD103E0C0EB1C
:10C2A0002541491C08E02214C2EB2541091A491C0A
:10C2B00001EBD17102EB610161F31F44401E00EB01
:10C2C000244060F31F45CDE90145BDF80A10C8F1CF
:10C2D000000AA1EB0800401CADF80600089807F022
:10C2E00001F85FEA000809D00246CDE9044504A838
:10C2F000089902F065FF04A806F0F4FF494C38469F
:10C300000A9A039903F00AF905460146384602F0F5
:10C31000B1FEA64211D11BF0030116D0012924D091
:10C32000022903D114E000BFADF80610BDF80610D5
:10C33000401E0844ADF80A003FE03B498E4219D147
:10C340001BF0030111D00129EAD108994988EBE7D4
:10C350000899B1F90630B1F90220991A091A491C55
:10C3600001EBD17102EB6101DEE70899C988091A76
:10C37000491CD9E72A498E421FD11BF0030110D076
:10C38000012949D0022912D10899B1F90420B1F943
:10C390000010521A121A521C02EBD27201EB620107
:10C3A00003E008998988091A491CADF80410BDF802
:10C3B0000410401E0844ADF808002B465A4601A957
:10C3C00038460096FFF7A0FD38460A9A039903F015
:10C3D0009BF8BDF80410074401EB0900BDF80810F4
:10C3E000ADF8040001EB0900BDF80610ADF8080037
:10C3F00001EB0A00BDF80A10ADF8060001EB0A00D7
